{
	"contracts/EasyMode.sol": {
		"EasyLiskGarden": {
			"abi": [
				{
					"inputs": [],
					"stateMutability": "nonpayable",
					"type": "constructor"
				},
				{
					"anonymous": false,
					"inputs": [
						{
							"indexed": true,
							"internalType": "uint256",
							"name": "plantId",
							"type": "uint256"
						}
					],
					"name": "PlantDied",
					"type": "event"
				},
				{
					"anonymous": false,
					"inputs": [
						{
							"indexed": true,
							"internalType": "uint256",
							"name": "plantId",
							"type": "uint256"
						},
						{
							"indexed": true,
							"internalType": "address",
							"name": "owner",
							"type": "address"
						},
						{
							"indexed": false,
							"internalType": "uint256",
							"name": "reward",
							"type": "uint256"
						}
					],
					"name": "PlantHarvested",
					"type": "event"
				},
				{
					"anonymous": false,
					"inputs": [
						{
							"indexed": true,
							"internalType": "address",
							"name": "owner",
							"type": "address"
						},
						{
							"indexed": true,
							"internalType": "uint256",
							"name": "plantId",
							"type": "uint256"
						}
					],
					"name": "PlantSeeded",
					"type": "event"
				},
				{
					"anonymous": false,
					"inputs": [
						{
							"indexed": true,
							"internalType": "uint256",
							"name": "plantId",
							"type": "uint256"
						},
						{
							"indexed": false,
							"internalType": "uint8",
							"name": "newWaterLevel",
							"type": "uint8"
						}
					],
					"name": "PlantWatered",
					"type": "event"
				},
				{
					"anonymous": false,
					"inputs": [
						{
							"indexed": true,
							"internalType": "uint256",
							"name": "plantId",
							"type": "uint256"
						},
						{
							"indexed": false,
							"internalType": "enum EasyLiskGarden.GrowthStage",
							"name": "newStage",
							"type": "uint8"
						}
					],
					"name": "StageAdvanced",
					"type": "event"
				},
				{
					"inputs": [],
					"name": "HARVEST_REWARD",
					"outputs": [
						{
							"internalType": "uint256",
							"name": "",
							"type": "uint256"
						}
					],
					"stateMutability": "view",
					"type": "function"
				},
				{
					"inputs": [],
					"name": "PLANT_PRICE",
					"outputs": [
						{
							"internalType": "uint256",
							"name": "",
							"type": "uint256"
						}
					],
					"stateMutability": "view",
					"type": "function"
				},
				{
					"inputs": [],
					"name": "STAGE_DURATION",
					"outputs": [
						{
							"internalType": "uint256",
							"name": "",
							"type": "uint256"
						}
					],
					"stateMutability": "view",
					"type": "function"
				},
				{
					"inputs": [],
					"name": "WATER_DEPLETION_RATE",
					"outputs": [
						{
							"internalType": "uint8",
							"name": "",
							"type": "uint8"
						}
					],
					"stateMutability": "view",
					"type": "function"
				},
				{
					"inputs": [],
					"name": "WATER_DEPlESION",
					"outputs": [
						{
							"internalType": "uint256",
							"name": "",
							"type": "uint256"
						}
					],
					"stateMutability": "view",
					"type": "function"
				},
				{
					"inputs": [
						{
							"internalType": "uint256",
							"name": "plantId",
							"type": "uint256"
						}
					],
					"name": "calculateWaterLevel",
					"outputs": [
						{
							"internalType": "uint8",
							"name": "",
							"type": "uint8"
						}
					],
					"stateMutability": "view",
					"type": "function"
				},
				{
					"inputs": [
						{
							"internalType": "uint256",
							"name": "plantId",
							"type": "uint256"
						}
					],
					"name": "getPlant",
					"outputs": [
						{
							"components": [
								{
									"internalType": "uint256",
									"name": "id",
									"type": "uint256"
								},
								{
									"internalType": "address",
									"name": "owner",
									"type": "address"
								},
								{
									"internalType": "enum EasyLiskGarden.GrowthStage",
									"name": "growthStage",
									"type": "uint8"
								},
								{
									"internalType": "uint256",
									"name": "plantedDate",
									"type": "uint256"
								},
								{
									"internalType": "uint256",
									"name": "lastWatered",
									"type": "uint256"
								},
								{
									"internalType": "uint8",
									"name": "waterLevel",
									"type": "uint8"
								},
								{
									"internalType": "bool",
									"name": "exists",
									"type": "bool"
								},
								{
									"internalType": "bool",
									"name": "isDead",
									"type": "bool"
								}
							],
							"internalType": "struct EasyLiskGarden.Plant",
							"name": "",
							"type": "tuple"
						}
					],
					"stateMutability": "view",
					"type": "function"
				},
				{
					"inputs": [
						{
							"internalType": "address",
							"name": "user",
							"type": "address"
						}
					],
					"name": "getUserPlants",
					"outputs": [
						{
							"internalType": "uint256[]",
							"name": "",
							"type": "uint256[]"
						}
					],
					"stateMutability": "view",
					"type": "function"
				},
				{
					"inputs": [
						{
							"internalType": "uint256",
							"name": "plantId",
							"type": "uint256"
						}
					],
					"name": "harvestPlant",
					"outputs": [],
					"stateMutability": "nonpayable",
					"type": "function"
				},
				{
					"inputs": [],
					"name": "myPlant",
					"outputs": [
						{
							"internalType": "uint256",
							"name": "id",
							"type": "uint256"
						},
						{
							"internalType": "address",
							"name": "owner",
							"type": "address"
						},
						{
							"internalType": "enum EasyLiskGarden.GrowthStage",
							"name": "growthStage",
							"type": "uint8"
						},
						{
							"internalType": "uint256",
							"name": "plantedDate",
							"type": "uint256"
						},
						{
							"internalType": "uint256",
							"name": "lastWatered",
							"type": "uint256"
						},
						{
							"internalType": "uint8",
							"name": "waterLevel",
							"type": "uint8"
						},
						{
							"internalType": "bool",
							"name": "exists",
							"type": "bool"
						},
						{
							"internalType": "bool",
							"name": "isDead",
							"type": "bool"
						}
					],
					"stateMutability": "view",
					"type": "function"
				},
				{
					"inputs": [],
					"name": "owner",
					"outputs": [
						{
							"internalType": "address",
							"name": "",
							"type": "address"
						}
					],
					"stateMutability": "view",
					"type": "function"
				},
				{
					"inputs": [],
					"name": "plantCounter",
					"outputs": [
						{
							"internalType": "uint256",
							"name": "",
							"type": "uint256"
						}
					],
					"stateMutability": "view",
					"type": "function"
				},
				{
					"inputs": [],
					"name": "plantSeed",
					"outputs": [
						{
							"internalType": "uint256",
							"name": "",
							"type": "uint256"
						}
					],
					"stateMutability": "payable",
					"type": "function"
				},
				{
					"inputs": [
						{
							"internalType": "uint256",
							"name": "",
							"type": "uint256"
						}
					],
					"name": "plants",
					"outputs": [
						{
							"internalType": "uint256",
							"name": "id",
							"type": "uint256"
						},
						{
							"internalType": "address",
							"name": "owner",
							"type": "address"
						},
						{
							"internalType": "enum EasyLiskGarden.GrowthStage",
							"name": "growthStage",
							"type": "uint8"
						},
						{
							"internalType": "uint256",
							"name": "plantedDate",
							"type": "uint256"
						},
						{
							"internalType": "uint256",
							"name": "lastWatered",
							"type": "uint256"
						},
						{
							"internalType": "uint8",
							"name": "waterLevel",
							"type": "uint8"
						},
						{
							"internalType": "bool",
							"name": "exists",
							"type": "bool"
						},
						{
							"internalType": "bool",
							"name": "isDead",
							"type": "bool"
						}
					],
					"stateMutability": "view",
					"type": "function"
				},
				{
					"inputs": [
						{
							"internalType": "uint256",
							"name": "plantId",
							"type": "uint256"
						}
					],
					"name": "updatePlantStage",
					"outputs": [],
					"stateMutability": "nonpayable",
					"type": "function"
				},
				{
					"inputs": [
						{
							"internalType": "address",
							"name": "",
							"type": "address"
						},
						{
							"internalType": "uint256",
							"name": "",
							"type": "uint256"
						}
					],
					"name": "userPlants",
					"outputs": [
						{
							"internalType": "uint256",
							"name": "",
							"type": "uint256"
						}
					],
					"stateMutability": "view",
					"type": "function"
				},
				{
					"inputs": [
						{
							"internalType": "uint256",
							"name": "plantId",
							"type": "uint256"
						}
					],
					"name": "waterPlant",
					"outputs": [],
					"stateMutability": "nonpayable",
					"type": "function"
				},
				{
					"inputs": [],
					"name": "withdraw",
					"outputs": [],
					"stateMutability": "nonpayable",
					"type": "function"
				},
				{
					"stateMutability": "payable",
					"type": "receive"
				}
			],
			"devdoc": {
				"kind": "dev",
				"methods": {},
				"version": 1
			},
			"evm": {
				"assembly": "    /* \"contracts/EasyMode.sol\":58:5643  contract EasyLiskGarden {... */\n  mstore(0x40, 0x80)\n    /* \"contracts/EasyMode.sol\":1192:1241  constructor() {... */\n  callvalue\n  dup1\n  iszero\n  tag_1\n  jumpi\n  revert(0x00, 0x00)\ntag_1:\n  pop\n    /* \"contracts/EasyMode.sol\":1224:1234  msg.sender */\n  caller\n    /* \"contracts/EasyMode.sol\":1216:1221  owner */\n  0x08\n  0x00\n    /* \"contracts/EasyMode.sol\":1216:1234  owner = msg.sender */\n  0x0100\n  exp\n  dup2\n  sload\n  dup2\n  0xffffffffffffffffffffffffffffffffffffffff\n  mul\n  not\n  and\n  swap1\n  dup4\n  0xffffffffffffffffffffffffffffffffffffffff\n  and\n  mul\n  or\n  swap1\n  sstore\n  pop\n    /* \"contracts/EasyMode.sol\":58:5643  contract EasyLiskGarden {... */\n  dataSize(sub_0)\n  dup1\n  dataOffset(sub_0)\n  0x00\n  codecopy\n  0x00\n  return\nstop\n\nsub_0: assembly {\n        /* \"contracts/EasyMode.sol\":58:5643  contract EasyLiskGarden {... */\n      mstore(0x40, 0x80)\n      jumpi(tag_1, lt(calldatasize, 0x04))\n      shr(0xe0, calldataload(0x00))\n      dup1\n      0x8da5cb5b\n      gt\n      tag_21\n      jumpi\n      dup1\n      0xbacb5ebd\n      gt\n      tag_22\n      jumpi\n      dup1\n      0xbacb5ebd\n      eq\n      tag_16\n      jumpi\n      dup1\n      0xcfc9a5f8\n      eq\n      tag_17\n      jumpi\n      dup1\n      0xddd42596\n      eq\n      tag_18\n      jumpi\n      dup1\n      0xe38f8448\n      eq\n      tag_19\n      jumpi\n      dup1\n      0xed0b1f5f\n      eq\n      tag_20\n      jumpi\n      jump(tag_2)\n    tag_22:\n      dup1\n      0x8da5cb5b\n      eq\n      tag_12\n      jumpi\n      dup1\n      0x8dd2361c\n      eq\n      tag_13\n      jumpi\n      dup1\n      0x9886bcfa\n      eq\n      tag_14\n      jumpi\n      dup1\n      0x9c471749\n      eq\n      tag_15\n      jumpi\n      jump(tag_2)\n    tag_21:\n      dup1\n      0x51f9efde\n      gt\n      tag_23\n      jumpi\n      dup1\n      0x51f9efde\n      eq\n      tag_7\n      jumpi\n      dup1\n      0x74119a38\n      eq\n      tag_8\n      jumpi\n      dup1\n      0x754e150d\n      eq\n      tag_9\n      jumpi\n      dup1\n      0x891c0785\n      eq\n      tag_10\n      jumpi\n      dup1\n      0x8aee578b\n      eq\n      tag_11\n      jumpi\n      jump(tag_2)\n    tag_23:\n      dup1\n      0x2e0fc9ff\n      eq\n      tag_3\n      jumpi\n      dup1\n      0x30cec0eb\n      eq\n      tag_4\n      jumpi\n      dup1\n      0x3a8fdff0\n      eq\n      tag_5\n      jumpi\n      dup1\n      0x3ccfd60b\n      eq\n      tag_6\n      jumpi\n      jump(tag_2)\n    tag_1:\n      jumpi(tag_2, calldatasize)\n      stop\n    tag_2:\n      revert(0x00, 0x00)\n        /* \"contracts/EasyMode.sol\":730:782  uint256 public constant WATER_DEPlESION = 30 seconds */\n    tag_3:\n      callvalue\n      dup1\n      iszero\n      tag_26\n      jumpi\n      revert(0x00, 0x00)\n    tag_26:\n      pop\n      tag_27\n      tag_28\n      jump\t// in\n    tag_27:\n      mload(0x40)\n      tag_29\n      swap2\n      swap1\n      tag_30\n      jump\t// in\n    tag_29:\n      mload(0x40)\n      dup1\n      swap2\n      sub\n      swap1\n      return\n        /* \"contracts/EasyMode.sol\":5276:5394  function getUserPlants(address user) external view returns (uint256[] memory) {... */\n    tag_4:\n      callvalue\n      dup1\n      iszero\n      tag_31\n      jumpi\n      revert(0x00, 0x00)\n    tag_31:\n      pop\n      tag_32\n      0x04\n      dup1\n      calldatasize\n      sub\n      dup2\n      add\n      swap1\n      tag_33\n      swap2\n      swap1\n      tag_34\n      jump\t// in\n    tag_33:\n      tag_35\n      jump\t// in\n    tag_32:\n      mload(0x40)\n      tag_36\n      swap2\n      swap1\n      tag_37\n      jump\t// in\n    tag_36:\n      mload(0x40)\n      dup1\n      swap2\n      sub\n      swap1\n      return\n        /* \"contracts/EasyMode.sol\":374:394  Plant public myPlant */\n    tag_5:\n      callvalue\n      dup1\n      iszero\n      tag_38\n      jumpi\n      revert(0x00, 0x00)\n    tag_38:\n      pop\n      tag_39\n      tag_40\n      jump\t// in\n    tag_39:\n      mload(0x40)\n      tag_41\n      swap9\n      swap8\n      swap7\n      swap6\n      swap5\n      swap4\n      swap3\n      swap2\n      swap1\n      tag_42\n      jump\t// in\n    tag_41:\n      mload(0x40)\n      dup1\n      swap2\n      sub\n      swap1\n      return\n        /* \"contracts/EasyMode.sol\":5400:5606  function withdraw() external {... */\n    tag_6:\n      callvalue\n      dup1\n      iszero\n      tag_43\n      jumpi\n      revert(0x00, 0x00)\n    tag_43:\n      pop\n      tag_44\n      tag_45\n      jump\t// in\n    tag_44:\n      stop\n        /* \"contracts/EasyMode.sol\":674:724  uint256 public constant STAGE_DURATION = 1 minutes */\n    tag_7:\n      callvalue\n      dup1\n      iszero\n      tag_46\n      jumpi\n      revert(0x00, 0x00)\n    tag_46:\n      pop\n      tag_47\n      tag_48\n      jump\t// in\n    tag_47:\n      mload(0x40)\n      tag_49\n      swap2\n      swap1\n      tag_30\n      jump\t// in\n    tag_49:\n      mload(0x40)\n      dup1\n      swap2\n      sub\n      swap1\n      return\n        /* \"contracts/EasyMode.sol\":1814:2416  function plantSeed() external payable checkBalance returns(uint256) {... */\n    tag_8:\n      tag_50\n      tag_51\n      jump\t// in\n    tag_50:\n      mload(0x40)\n      tag_52\n      swap2\n      swap1\n      tag_30\n      jump\t// in\n    tag_52:\n      mload(0x40)\n      dup1\n      swap2\n      sub\n      swap1\n      return\n        /* \"contracts/EasyMode.sol\":2422:3015  function calculateWaterLevel(uint256 plantId) public view returns (uint8) {... */\n    tag_9:\n      callvalue\n      dup1\n      iszero\n      tag_53\n      jumpi\n      revert(0x00, 0x00)\n    tag_53:\n      pop\n      tag_54\n      0x04\n      dup1\n      calldatasize\n      sub\n      dup2\n      add\n      swap1\n      tag_55\n      swap2\n      swap1\n      tag_56\n      jump\t// in\n    tag_55:\n      tag_57\n      jump\t// in\n    tag_54:\n      mload(0x40)\n      tag_58\n      swap2\n      swap1\n      tag_59\n      jump\t// in\n    tag_58:\n      mload(0x40)\n      dup1\n      swap2\n      sub\n      swap1\n      return\n        /* \"contracts/EasyMode.sol\":615:667  uint256 public constant HARVEST_REWARD = 0.003 ether */\n    tag_10:\n      callvalue\n      dup1\n      iszero\n      tag_60\n      jumpi\n      revert(0x00, 0x00)\n    tag_60:\n      pop\n      tag_61\n      tag_62\n      jump\t// in\n    tag_61:\n      mload(0x40)\n      tag_63\n      swap2\n      swap1\n      tag_30\n      jump\t// in\n    tag_63:\n      mload(0x40)\n      dup1\n      swap2\n      sub\n      swap1\n      return\n        /* \"contracts/EasyMode.sol\":446:493  mapping(address => uint256[]) public userPlants */\n    tag_11:\n      callvalue\n      dup1\n      iszero\n      tag_64\n      jumpi\n      revert(0x00, 0x00)\n    tag_64:\n      pop\n      tag_65\n      0x04\n      dup1\n      calldatasize\n      sub\n      dup2\n      add\n      swap1\n      tag_66\n      swap2\n      swap1\n      tag_67\n      jump\t// in\n    tag_66:\n      tag_68\n      jump\t// in\n    tag_65:\n      mload(0x40)\n      tag_69\n      swap2\n      swap1\n      tag_30\n      jump\t// in\n    tag_69:\n      mload(0x40)\n      dup1\n      swap2\n      sub\n      swap1\n      return\n        /* \"contracts/EasyMode.sol\":533:553  address public owner */\n    tag_12:\n      callvalue\n      dup1\n      iszero\n      tag_70\n      jumpi\n      revert(0x00, 0x00)\n    tag_70:\n      pop\n      tag_71\n      tag_72\n      jump\t// in\n    tag_71:\n      mload(0x40)\n      tag_73\n      swap2\n      swap1\n      tag_74\n      jump\t// in\n    tag_73:\n      mload(0x40)\n      dup1\n      swap2\n      sub\n      swap1\n      return\n        /* \"contracts/EasyMode.sol\":401:440  mapping(uint256 => Plant) public plants */\n    tag_13:\n      callvalue\n      dup1\n      iszero\n      tag_75\n      jumpi\n      revert(0x00, 0x00)\n    tag_75:\n      pop\n      tag_76\n      0x04\n      dup1\n      calldatasize\n      sub\n      dup2\n      add\n      swap1\n      tag_77\n      swap2\n      swap1\n      tag_56\n      jump\t// in\n    tag_77:\n      tag_78\n      jump\t// in\n    tag_76:\n      mload(0x40)\n      tag_79\n      swap9\n      swap8\n      swap7\n      swap6\n      swap5\n      swap4\n      swap3\n      swap2\n      swap1\n      tag_42\n      jump\t// in\n    tag_79:\n      mload(0x40)\n      dup1\n      swap2\n      sub\n      swap1\n      return\n        /* \"contracts/EasyMode.sol\":3372:3685  function waterPlant(uint256 plantId) external ownerChecking {... */\n    tag_14:\n      callvalue\n      dup1\n      iszero\n      tag_80\n      jumpi\n      revert(0x00, 0x00)\n    tag_80:\n      pop\n      tag_81\n      0x04\n      dup1\n      calldatasize\n      sub\n      dup2\n      add\n      swap1\n      tag_82\n      swap2\n      swap1\n      tag_56\n      jump\t// in\n    tag_82:\n      tag_83\n      jump\t// in\n    tag_81:\n      stop\n        /* \"contracts/EasyMode.sol\":500:527  uint256 public plantCounter */\n    tag_15:\n      callvalue\n      dup1\n      iszero\n      tag_84\n      jumpi\n      revert(0x00, 0x00)\n    tag_84:\n      pop\n      tag_85\n      tag_86\n      jump\t// in\n    tag_85:\n      mload(0x40)\n      tag_87\n      swap2\n      swap1\n      tag_30\n      jump\t// in\n    tag_87:\n      mload(0x40)\n      dup1\n      swap2\n      sub\n      swap1\n      return\n        /* \"contracts/EasyMode.sol\":789:835  uint8 public constant WATER_DEPLETION_RATE = 2 */\n    tag_16:\n      callvalue\n      dup1\n      iszero\n      tag_88\n      jumpi\n      revert(0x00, 0x00)\n    tag_88:\n      pop\n      tag_89\n      tag_90\n      jump\t// in\n    tag_89:\n      mload(0x40)\n      tag_91\n      swap2\n      swap1\n      tag_59\n      jump\t// in\n    tag_91:\n      mload(0x40)\n      dup1\n      swap2\n      sub\n      swap1\n      return\n        /* \"contracts/EasyMode.sol\":560:609  uint256 public constant PLANT_PRICE = 0.001 ether */\n    tag_17:\n      callvalue\n      dup1\n      iszero\n      tag_92\n      jumpi\n      revert(0x00, 0x00)\n    tag_92:\n      pop\n      tag_93\n      tag_94\n      jump\t// in\n    tag_93:\n      mload(0x40)\n      tag_95\n      swap2\n      swap1\n      tag_30\n      jump\t// in\n    tag_95:\n      mload(0x40)\n      dup1\n      swap2\n      sub\n      swap1\n      return\n        /* \"contracts/EasyMode.sol\":3691:4578  function updatePlantStage(uint256 plantId) public ownerChecking checkPlantExist(plantId) {... */\n    tag_18:\n      callvalue\n      dup1\n      iszero\n      tag_96\n      jumpi\n      revert(0x00, 0x00)\n    tag_96:\n      pop\n      tag_97\n      0x04\n      dup1\n      calldatasize\n      sub\n      dup2\n      add\n      swap1\n      tag_98\n      swap2\n      swap1\n      tag_56\n      jump\t// in\n    tag_98:\n      tag_99\n      jump\t// in\n    tag_97:\n      stop\n        /* \"contracts/EasyMode.sol\":4584:5060  function harvestPlant(uint256 plantId) external checkPlantExist(plantId) ownerChecking checkPlantAliveStatus(plantId) {... */\n    tag_19:\n      callvalue\n      dup1\n      iszero\n      tag_100\n      jumpi\n      revert(0x00, 0x00)\n    tag_100:\n      pop\n      tag_101\n      0x04\n      dup1\n      calldatasize\n      sub\n      dup2\n      add\n      swap1\n      tag_102\n      swap2\n      swap1\n      tag_56\n      jump\t// in\n    tag_102:\n      tag_103\n      jump\t// in\n    tag_101:\n      stop\n        /* \"contracts/EasyMode.sol\":5066:5270  function getPlant(uint256 plantId) external view returns (Plant memory) {... */\n    tag_20:\n      callvalue\n      dup1\n      iszero\n      tag_104\n      jumpi\n      revert(0x00, 0x00)\n    tag_104:\n      pop\n      tag_105\n      0x04\n      dup1\n      calldatasize\n      sub\n      dup2\n      add\n      swap1\n      tag_106\n      swap2\n      swap1\n      tag_56\n      jump\t// in\n    tag_106:\n      tag_107\n      jump\t// in\n    tag_105:\n      mload(0x40)\n      tag_108\n      swap2\n      swap1\n      tag_109\n      jump\t// in\n    tag_108:\n      mload(0x40)\n      dup1\n      swap2\n      sub\n      swap1\n      return\n        /* \"contracts/EasyMode.sol\":730:782  uint256 public constant WATER_DEPlESION = 30 seconds */\n    tag_28:\n        /* \"contracts/EasyMode.sol\":772:782  30 seconds */\n      0x1e\n        /* \"contracts/EasyMode.sol\":730:782  uint256 public constant WATER_DEPlESION = 30 seconds */\n      dup2\n      jump\t// out\n        /* \"contracts/EasyMode.sol\":5276:5394  function getUserPlants(address user) external view returns (uint256[] memory) {... */\n    tag_35:\n        /* \"contracts/EasyMode.sol\":5336:5352  uint256[] memory */\n      0x60\n        /* \"contracts/EasyMode.sol\":5371:5381  userPlants */\n      0x06\n        /* \"contracts/EasyMode.sol\":5371:5387  userPlants[user] */\n      0x00\n        /* \"contracts/EasyMode.sol\":5382:5386  user */\n      dup4\n        /* \"contracts/EasyMode.sol\":5371:5387  userPlants[user] */\n      0xffffffffffffffffffffffffffffffffffffffff\n      and\n      0xffffffffffffffffffffffffffffffffffffffff\n      and\n      dup2\n      mstore\n      0x20\n      add\n      swap1\n      dup2\n      mstore\n      0x20\n      add\n      0x00\n      keccak256\n        /* \"contracts/EasyMode.sol\":5364:5387  return userPlants[user] */\n      dup1\n      sload\n      dup1\n      0x20\n      mul\n      0x20\n      add\n      mload(0x40)\n      swap1\n      dup2\n      add\n      0x40\n      mstore\n      dup1\n      swap3\n      swap2\n      swap1\n      dup2\n      dup2\n      mstore\n      0x20\n      add\n      dup3\n      dup1\n      sload\n      dup1\n      iszero\n      tag_111\n      jumpi\n      0x20\n      mul\n      dup3\n      add\n      swap2\n      swap1\n      0x00\n      mstore\n      keccak256(0x00, 0x20)\n      swap1\n    tag_112:\n      dup2\n      sload\n      dup2\n      mstore\n      0x20\n      add\n      swap1\n      0x01\n      add\n      swap1\n      dup1\n      dup4\n      gt\n      tag_112\n      jumpi\n    tag_111:\n      pop\n      pop\n      pop\n      pop\n      pop\n      swap1\n      pop\n        /* \"contracts/EasyMode.sol\":5276:5394  function getUserPlants(address user) external view returns (uint256[] memory) {... */\n      swap2\n      swap1\n      pop\n      jump\t// out\n        /* \"contracts/EasyMode.sol\":374:394  Plant public myPlant */\n    tag_40:\n      0x00\n      dup1\n      0x00\n      add\n      sload\n      swap1\n      dup1\n      0x01\n      add\n      0x00\n      swap1\n      sload\n      swap1\n      0x0100\n      exp\n      swap1\n      div\n      0xffffffffffffffffffffffffffffffffffffffff\n      and\n      swap1\n      dup1\n      0x01\n      add\n      0x14\n      swap1\n      sload\n      swap1\n      0x0100\n      exp\n      swap1\n      div\n      0xff\n      and\n      swap1\n      dup1\n      0x02\n      add\n      sload\n      swap1\n      dup1\n      0x03\n      add\n      sload\n      swap1\n      dup1\n      0x04\n      add\n      0x00\n      swap1\n      sload\n      swap1\n      0x0100\n      exp\n      swap1\n      div\n      0xff\n      and\n      swap1\n      dup1\n      0x04\n      add\n      0x01\n      swap1\n      sload\n      swap1\n      0x0100\n      exp\n      swap1\n      div\n      0xff\n      and\n      swap1\n      dup1\n      0x04\n      add\n      0x02\n      swap1\n      sload\n      swap1\n      0x0100\n      exp\n      swap1\n      div\n      0xff\n      and\n      swap1\n      pop\n      dup9\n      jump\t// out\n        /* \"contracts/EasyMode.sol\":5400:5606  function withdraw() external {... */\n    tag_45:\n        /* \"contracts/EasyMode.sol\":5461:5466  owner */\n      0x08\n      0x00\n      swap1\n      sload\n      swap1\n      0x0100\n      exp\n      swap1\n      div\n      0xffffffffffffffffffffffffffffffffffffffff\n      and\n        /* \"contracts/EasyMode.sol\":5447:5466  msg.sender == owner */\n      0xffffffffffffffffffffffffffffffffffffffff\n      and\n        /* \"contracts/EasyMode.sol\":5447:5457  msg.sender */\n      caller\n        /* \"contracts/EasyMode.sol\":5447:5466  msg.sender == owner */\n      0xffffffffffffffffffffffffffffffffffffffff\n      and\n      eq\n        /* \"contracts/EasyMode.sol\":5439:5482  require(msg.sender == owner, \"Bukan owner\") */\n      tag_114\n      jumpi\n      mload(0x40)\n      0x08c379a000000000000000000000000000000000000000000000000000000000\n      dup2\n      mstore\n      0x04\n      add\n      tag_115\n      swap1\n      tag_116\n      jump\t// in\n    tag_115:\n      mload(0x40)\n      dup1\n      swap2\n      sub\n      swap1\n      revert\n    tag_114:\n        /* \"contracts/EasyMode.sol\":5493:5505  bool success */\n      0x00\n        /* \"contracts/EasyMode.sol\":5511:5516  owner */\n      0x08\n      0x00\n      swap1\n      sload\n      swap1\n      0x0100\n      exp\n      swap1\n      div\n      0xffffffffffffffffffffffffffffffffffffffff\n      and\n        /* \"contracts/EasyMode.sol\":5511:5521  owner.call */\n      0xffffffffffffffffffffffffffffffffffffffff\n      and\n        /* \"contracts/EasyMode.sol\":5529:5550  address(this).balance */\n      selfbalance\n        /* \"contracts/EasyMode.sol\":5511:5555  owner.call{value: address(this).balance}(\"\") */\n      mload(0x40)\n      tag_117\n      swap1\n      tag_118\n      jump\t// in\n    tag_117:\n      0x00\n      mload(0x40)\n      dup1\n      dup4\n      sub\n      dup2\n      dup6\n      dup8\n      gas\n      call\n      swap3\n      pop\n      pop\n      pop\n      returndatasize\n      dup1\n      0x00\n      dup2\n      eq\n      tag_121\n      jumpi\n      mload(0x40)\n      swap2\n      pop\n      and(add(returndatasize, 0x3f), not(0x1f))\n      dup3\n      add\n      0x40\n      mstore\n      returndatasize\n      dup3\n      mstore\n      returndatasize\n      0x00\n      0x20\n      dup5\n      add\n      returndatacopy\n      jump(tag_120)\n    tag_121:\n      0x60\n      swap2\n      pop\n    tag_120:\n      pop\n        /* \"contracts/EasyMode.sol\":5492:5555  (bool success, ) = owner.call{value: address(this).balance}(\"\") */\n      pop\n      swap1\n      pop\n        /* \"contracts/EasyMode.sol\":5573:5580  success */\n      dup1\n        /* \"contracts/EasyMode.sol\":5565:5599  require(success, \"Transfer gagal\") */\n      tag_122\n      jumpi\n      mload(0x40)\n      0x08c379a000000000000000000000000000000000000000000000000000000000\n      dup2\n      mstore\n      0x04\n      add\n      tag_123\n      swap1\n      tag_124\n      jump\t// in\n    tag_123:\n      mload(0x40)\n      dup1\n      swap2\n      sub\n      swap1\n      revert\n    tag_122:\n        /* \"contracts/EasyMode.sol\":5429:5606  {... */\n      pop\n        /* \"contracts/EasyMode.sol\":5400:5606  function withdraw() external {... */\n      jump\t// out\n        /* \"contracts/EasyMode.sol\":674:724  uint256 public constant STAGE_DURATION = 1 minutes */\n    tag_48:\n        /* \"contracts/EasyMode.sol\":715:724  1 minutes */\n      0x3c\n        /* \"contracts/EasyMode.sol\":674:724  uint256 public constant STAGE_DURATION = 1 minutes */\n      dup2\n      jump\t// out\n        /* \"contracts/EasyMode.sol\":1814:2416  function plantSeed() external payable checkBalance returns(uint256) {... */\n    tag_51:\n        /* \"contracts/EasyMode.sol\":1873:1880  uint256 */\n      0x00\n        /* \"contracts/EasyMode.sol\":598:609  0.001 ether */\n      0x038d7ea4c68000\n        /* \"contracts/EasyMode.sol\":1289:1298  msg.value */\n      callvalue\n        /* \"contracts/EasyMode.sol\":1289:1313  msg.value == PLANT_PRICE */\n      eq\n        /* \"contracts/EasyMode.sol\":1281:1337  require(msg.value == PLANT_PRICE, \"Isufficient Balance\") */\n      tag_126\n      jumpi\n      mload(0x40)\n      0x08c379a000000000000000000000000000000000000000000000000000000000\n      dup2\n      mstore\n      0x04\n      add\n      tag_127\n      swap1\n      tag_128\n      jump\t// in\n    tag_127:\n      mload(0x40)\n      dup1\n      swap2\n      sub\n      swap1\n      revert\n    tag_126:\n        /* \"contracts/EasyMode.sol\":1892:1904  plantCounter */\n      0x07\n      0x00\n        /* \"contracts/EasyMode.sol\":1892:1906  plantCounter++ */\n      dup2\n      sload\n      dup1\n      swap3\n      swap2\n      swap1\n      tag_130\n      swap1\n      tag_131\n      jump\t// in\n    tag_130:\n      swap2\n      swap1\n      pop\n      sstore\n      pop\n        /* \"contracts/EasyMode.sol\":1917:1932  uint256 plantId */\n      0x00\n        /* \"contracts/EasyMode.sol\":1935:1947  plantCounter */\n      sload(0x07)\n        /* \"contracts/EasyMode.sol\":1917:1947  uint256 plantId = plantCounter */\n      swap1\n      pop\n        /* \"contracts/EasyMode.sol\":1968:2249  Plant({... */\n      mload(0x40)\n      dup1\n      0x0100\n      add\n      0x40\n      mstore\n      dup1\n        /* \"contracts/EasyMode.sol\":1992:1999  plantId */\n      dup3\n        /* \"contracts/EasyMode.sol\":1968:2249  Plant({... */\n      dup2\n      mstore\n      0x20\n      add\n        /* \"contracts/EasyMode.sol\":2020:2030  msg.sender */\n      caller\n        /* \"contracts/EasyMode.sol\":1968:2249  Plant({... */\n      0xffffffffffffffffffffffffffffffffffffffff\n      and\n      dup2\n      mstore\n      0x20\n      add\n        /* \"contracts/EasyMode.sol\":2086:2102  GrowthStage.SEED */\n      0x00\n        /* \"contracts/EasyMode.sol\":1968:2249  Plant({... */\n      0x03\n      dup2\n      gt\n      iszero\n      tag_132\n      jumpi\n      tag_133\n      tag_134\n      jump\t// in\n    tag_133:\n    tag_132:\n      dup2\n      mstore\n      0x20\n      add\n        /* \"contracts/EasyMode.sol\":2129:2144  block.timestamp */\n      timestamp\n        /* \"contracts/EasyMode.sol\":1968:2249  Plant({... */\n      dup2\n      mstore\n      0x20\n      add\n        /* \"contracts/EasyMode.sol\":2171:2186  block.timestamp */\n      timestamp\n        /* \"contracts/EasyMode.sol\":1968:2249  Plant({... */\n      dup2\n      mstore\n      0x20\n      add\n        /* \"contracts/EasyMode.sol\":2056:2059  100 */\n      0x64\n        /* \"contracts/EasyMode.sol\":1968:2249  Plant({... */\n      0xff\n      and\n      dup2\n      mstore\n      0x20\n      add\n        /* \"contracts/EasyMode.sol\":2208:2212  true */\n      0x01\n        /* \"contracts/EasyMode.sol\":1968:2249  Plant({... */\n      iszero\n      iszero\n      dup2\n      mstore\n      0x20\n      add\n        /* \"contracts/EasyMode.sol\":2234:2238  true */\n      0x01\n        /* \"contracts/EasyMode.sol\":1968:2249  Plant({... */\n      iszero\n      iszero\n      dup2\n      mstore\n      pop\n        /* \"contracts/EasyMode.sol\":1958:1965  myPlant */\n      0x00\n        /* \"contracts/EasyMode.sol\":1958:2249  myPlant = Plant({... */\n      0x00\n      dup3\n      add\n      mload\n      dup2\n      0x00\n      add\n      sstore\n      0x20\n      dup3\n      add\n      mload\n      dup2\n      0x01\n      add\n      exp(0x0100, 0x00)\n      dup2\n      sload\n      dup2\n      0xffffffffffffffffffffffffffffffffffffffff\n      mul\n      not\n      and\n      swap1\n      dup4\n      0xffffffffffffffffffffffffffffffffffffffff\n      and\n      mul\n      or\n      swap1\n      sstore\n      pop\n      0x40\n      dup3\n      add\n      mload\n      dup2\n      0x01\n      add\n      exp(0x0100, 0x14)\n      dup2\n      sload\n      dup2\n      0xff\n      mul\n      not\n      and\n      swap1\n      dup4\n      0x03\n      dup2\n      gt\n      iszero\n      tag_135\n      jumpi\n      tag_136\n      tag_134\n      jump\t// in\n    tag_136:\n    tag_135:\n      mul\n      or\n      swap1\n      sstore\n      pop\n      0x60\n      dup3\n      add\n      mload\n      dup2\n      0x02\n      add\n      sstore\n      0x80\n      dup3\n      add\n      mload\n      dup2\n      0x03\n      add\n      sstore\n      0xa0\n      dup3\n      add\n      mload\n      dup2\n      0x04\n      add\n      exp(0x0100, 0x00)\n      dup2\n      sload\n      dup2\n      0xff\n      mul\n      not\n      and\n      swap1\n      dup4\n      0xff\n      and\n      mul\n      or\n      swap1\n      sstore\n      pop\n      0xc0\n      dup3\n      add\n      mload\n      dup2\n      0x04\n      add\n      exp(0x0100, 0x01)\n      dup2\n      sload\n      dup2\n      0xff\n      mul\n      not\n      and\n      swap1\n      dup4\n      iszero\n      iszero\n      mul\n      or\n      swap1\n      sstore\n      pop\n      0xe0\n      dup3\n      add\n      mload\n      dup2\n      0x04\n      add\n      exp(0x0100, 0x02)\n      dup2\n      sload\n      dup2\n      0xff\n      mul\n      not\n      and\n      swap1\n      dup4\n      iszero\n      iszero\n      mul\n      or\n      swap1\n      sstore\n      pop\n      swap1\n      pop\n      pop\n        /* \"contracts/EasyMode.sol\":2283:2290  myPlant */\n      0x00\n        /* \"contracts/EasyMode.sol\":2260:2266  plants */\n      0x05\n        /* \"contracts/EasyMode.sol\":2260:2280  plants[plantCounter] */\n      0x00\n        /* \"contracts/EasyMode.sol\":2267:2279  plantCounter */\n      sload(0x07)\n        /* \"contracts/EasyMode.sol\":2260:2280  plants[plantCounter] */\n      dup2\n      mstore\n      0x20\n      add\n      swap1\n      dup2\n      mstore\n      0x20\n      add\n      0x00\n      keccak256\n        /* \"contracts/EasyMode.sol\":2260:2290  plants[plantCounter] = myPlant */\n      0x00\n      dup3\n      add\n      sload\n      dup2\n      0x00\n      add\n      sstore\n      0x01\n      dup3\n      add\n      0x00\n      swap1\n      sload\n      swap1\n      0x0100\n      exp\n      swap1\n      div\n      0xffffffffffffffffffffffffffffffffffffffff\n      and\n      dup2\n      0x01\n      add\n      exp(0x0100, 0x00)\n      dup2\n      sload\n      dup2\n      0xffffffffffffffffffffffffffffffffffffffff\n      mul\n      not\n      and\n      swap1\n      dup4\n      0xffffffffffffffffffffffffffffffffffffffff\n      and\n      mul\n      or\n      swap1\n      sstore\n      pop\n      0x01\n      dup3\n      add\n      0x14\n      swap1\n      sload\n      swap1\n      0x0100\n      exp\n      swap1\n      div\n      0xff\n      and\n      dup2\n      0x01\n      add\n      exp(0x0100, 0x14)\n      dup2\n      sload\n      dup2\n      0xff\n      mul\n      not\n      and\n      swap1\n      dup4\n      0x03\n      dup2\n      gt\n      iszero\n      tag_137\n      jumpi\n      tag_138\n      tag_134\n      jump\t// in\n    tag_138:\n    tag_137:\n      mul\n      or\n      swap1\n      sstore\n      pop\n      0x02\n      dup3\n      add\n      sload\n      dup2\n      0x02\n      add\n      sstore\n      0x03\n      dup3\n      add\n      sload\n      dup2\n      0x03\n      add\n      sstore\n      0x04\n      dup3\n      add\n      0x00\n      swap1\n      sload\n      swap1\n      0x0100\n      exp\n      swap1\n      div\n      0xff\n      and\n      dup2\n      0x04\n      add\n      exp(0x0100, 0x00)\n      dup2\n      sload\n      dup2\n      0xff\n      mul\n      not\n      and\n      swap1\n      dup4\n      0xff\n      and\n      mul\n      or\n      swap1\n      sstore\n      pop\n      0x04\n      dup3\n      add\n      0x01\n      swap1\n      sload\n      swap1\n      0x0100\n      exp\n      swap1\n      div\n      0xff\n      and\n      dup2\n      0x04\n      add\n      exp(0x0100, 0x01)\n      dup2\n      sload\n      dup2\n      0xff\n      mul\n      not\n      and\n      swap1\n      dup4\n      iszero\n      iszero\n      mul\n      or\n      swap1\n      sstore\n      pop\n      0x04\n      dup3\n      add\n      0x02\n      swap1\n      sload\n      swap1\n      0x0100\n      exp\n      swap1\n      div\n      0xff\n      and\n      dup2\n      0x04\n      add\n      exp(0x0100, 0x02)\n      dup2\n      sload\n      dup2\n      0xff\n      mul\n      not\n      and\n      swap1\n      dup4\n      iszero\n      iszero\n      mul\n      or\n      swap1\n      sstore\n      pop\n      swap1\n      pop\n      pop\n        /* \"contracts/EasyMode.sol\":2300:2310  userPlants */\n      0x06\n        /* \"contracts/EasyMode.sol\":2300:2322  userPlants[msg.sender] */\n      0x00\n        /* \"contracts/EasyMode.sol\":2311:2321  msg.sender */\n      caller\n        /* \"contracts/EasyMode.sol\":2300:2322  userPlants[msg.sender] */\n      0xffffffffffffffffffffffffffffffffffffffff\n      and\n      0xffffffffffffffffffffffffffffffffffffffff\n      and\n      dup2\n      mstore\n      0x20\n      add\n      swap1\n      dup2\n      mstore\n      0x20\n      add\n      0x00\n      keccak256\n        /* \"contracts/EasyMode.sol\":2328:2335  plantId */\n      dup2\n        /* \"contracts/EasyMode.sol\":2300:2336  userPlants[msg.sender].push(plantId) */\n      swap1\n      dup1\n      0x01\n      dup2\n      sload\n      add\n      dup1\n      dup3\n      sstore\n      dup1\n      swap2\n      pop\n      pop\n      0x01\n      swap1\n      sub\n      swap1\n      0x00\n      mstore\n      keccak256(0x00, 0x20)\n      add\n      0x00\n      swap1\n      swap2\n      swap1\n      swap2\n      swap1\n      swap2\n      pop\n      sstore\n        /* \"contracts/EasyMode.sol\":2376:2383  plantId */\n      dup1\n        /* \"contracts/EasyMode.sol\":2364:2374  msg.sender */\n      caller\n        /* \"contracts/EasyMode.sol\":2352:2384  PlantSeeded(msg.sender, plantId) */\n      0xffffffffffffffffffffffffffffffffffffffff\n      and\n      0x4f5b22082ac57121703b0b6c1203ef527cfbfa5069616fee6deb979d124adbf0\n      mload(0x40)\n      mload(0x40)\n      dup1\n      swap2\n      sub\n      swap1\n      log3\n        /* \"contracts/EasyMode.sol\":2402:2409  plantId */\n      dup1\n        /* \"contracts/EasyMode.sol\":2395:2409  return plantId */\n      swap2\n      pop\n      pop\n        /* \"contracts/EasyMode.sol\":1814:2416  function plantSeed() external payable checkBalance returns(uint256) {... */\n      swap1\n      jump\t// out\n        /* \"contracts/EasyMode.sol\":2422:3015  function calculateWaterLevel(uint256 plantId) public view returns (uint8) {... */\n    tag_57:\n        /* \"contracts/EasyMode.sol\":2489:2494  uint8 */\n      0x00\n        /* \"contracts/EasyMode.sol\":2506:2524  Plant memory plant */\n      0x00\n        /* \"contracts/EasyMode.sol\":2527:2533  plants */\n      0x05\n        /* \"contracts/EasyMode.sol\":2527:2542  plants[plantId] */\n      0x00\n        /* \"contracts/EasyMode.sol\":2534:2541  plantId */\n      dup5\n        /* \"contracts/EasyMode.sol\":2527:2542  plants[plantId] */\n      dup2\n      mstore\n      0x20\n      add\n      swap1\n      dup2\n      mstore\n      0x20\n      add\n      0x00\n      keccak256\n        /* \"contracts/EasyMode.sol\":2506:2542  Plant memory plant = plants[plantId] */\n      mload(0x40)\n      dup1\n      0x0100\n      add\n      0x40\n      mstore\n      swap1\n      dup2\n      0x00\n      dup3\n      add\n      sload\n      dup2\n      mstore\n      0x20\n      add\n      0x01\n      dup3\n      add\n      0x00\n      swap1\n      sload\n      swap1\n      0x0100\n      exp\n      swap1\n      div\n      0xffffffffffffffffffffffffffffffffffffffff\n      and\n      0xffffffffffffffffffffffffffffffffffffffff\n      and\n      0xffffffffffffffffffffffffffffffffffffffff\n      and\n      dup2\n      mstore\n      0x20\n      add\n      0x01\n      dup3\n      add\n      0x14\n      swap1\n      sload\n      swap1\n      0x0100\n      exp\n      swap1\n      div\n      0xff\n      and\n      0x03\n      dup2\n      gt\n      iszero\n      tag_141\n      jumpi\n      tag_142\n      tag_134\n      jump\t// in\n    tag_142:\n    tag_141:\n      0x03\n      dup2\n      gt\n      iszero\n      tag_143\n      jumpi\n      tag_144\n      tag_134\n      jump\t// in\n    tag_144:\n    tag_143:\n      dup2\n      mstore\n      0x20\n      add\n      0x02\n      dup3\n      add\n      sload\n      dup2\n      mstore\n      0x20\n      add\n      0x03\n      dup3\n      add\n      sload\n      dup2\n      mstore\n      0x20\n      add\n      0x04\n      dup3\n      add\n      0x00\n      swap1\n      sload\n      swap1\n      0x0100\n      exp\n      swap1\n      div\n      0xff\n      and\n      0xff\n      and\n      0xff\n      and\n      dup2\n      mstore\n      0x20\n      add\n      0x04\n      dup3\n      add\n      0x01\n      swap1\n      sload\n      swap1\n      0x0100\n      exp\n      swap1\n      div\n      0xff\n      and\n      iszero\n      iszero\n      iszero\n      iszero\n      dup2\n      mstore\n      0x20\n      add\n      0x04\n      dup3\n      add\n      0x02\n      swap1\n      sload\n      swap1\n      0x0100\n      exp\n      swap1\n      div\n      0xff\n      and\n      iszero\n      iszero\n      iszero\n      iszero\n      dup2\n      mstore\n      pop\n      pop\n      swap1\n      pop\n        /* \"contracts/EasyMode.sol\":2557:2562  plant */\n      dup1\n        /* \"contracts/EasyMode.sol\":2557:2569  plant.exists */\n      0xc0\n      add\n      mload\n        /* \"contracts/EasyMode.sol\":2556:2569  !plant.exists */\n      iszero\n        /* \"contracts/EasyMode.sol\":2556:2585  !plant.exists || plant.isDead */\n      dup1\n      tag_145\n      jumpi\n      pop\n        /* \"contracts/EasyMode.sol\":2573:2578  plant */\n      dup1\n        /* \"contracts/EasyMode.sol\":2573:2585  plant.isDead */\n      0xe0\n      add\n      mload\n        /* \"contracts/EasyMode.sol\":2556:2585  !plant.exists || plant.isDead */\n    tag_145:\n        /* \"contracts/EasyMode.sol\":2553:2620  if(!plant.exists || plant.isDead) {... */\n      iszero\n      tag_146\n      jumpi\n        /* \"contracts/EasyMode.sol\":2608:2609  0 */\n      0x00\n        /* \"contracts/EasyMode.sol\":2601:2609  return 0 */\n      swap2\n      pop\n      pop\n      jump(tag_140)\n        /* \"contracts/EasyMode.sol\":2553:2620  if(!plant.exists || plant.isDead) {... */\n    tag_146:\n        /* \"contracts/EasyMode.sol\":2630:2654  uint256 timeSinceWatered */\n      0x00\n        /* \"contracts/EasyMode.sol\":2675:2680  plant */\n      dup2\n        /* \"contracts/EasyMode.sol\":2675:2692  plant.lastWatered */\n      0x80\n      add\n      mload\n        /* \"contracts/EasyMode.sol\":2657:2672  block.timestamp */\n      timestamp\n        /* \"contracts/EasyMode.sol\":2657:2692  block.timestamp - plant.lastWatered */\n      tag_147\n      swap2\n      swap1\n      tag_148\n      jump\t// in\n    tag_147:\n        /* \"contracts/EasyMode.sol\":2630:2692  uint256 timeSinceWatered = block.timestamp - plant.lastWatered */\n      swap1\n      pop\n        /* \"contracts/EasyMode.sol\":2702:2728  uint256 depletionIntervals */\n      0x00\n        /* \"contracts/EasyMode.sol\":772:782  30 seconds */\n      0x1e\n        /* \"contracts/EasyMode.sol\":2731:2747  timeSinceWatered */\n      dup3\n        /* \"contracts/EasyMode.sol\":2731:2765  timeSinceWatered / WATER_DEPlESION */\n      tag_149\n      swap2\n      swap1\n      tag_150\n      jump\t// in\n    tag_149:\n        /* \"contracts/EasyMode.sol\":2702:2765  uint256 depletionIntervals = timeSinceWatered / WATER_DEPlESION */\n      swap1\n      pop\n        /* \"contracts/EasyMode.sol\":2775:2792  uint256 waterLost */\n      0x00\n        /* \"contracts/EasyMode.sol\":834:835  2 */\n      0x02\n        /* \"contracts/EasyMode.sol\":2795:2836  depletionIntervals * WATER_DEPLETION_RATE */\n      0xff\n      and\n        /* \"contracts/EasyMode.sol\":2795:2813  depletionIntervals */\n      dup3\n        /* \"contracts/EasyMode.sol\":2795:2836  depletionIntervals * WATER_DEPLETION_RATE */\n      tag_151\n      swap2\n      swap1\n      tag_152\n      jump\t// in\n    tag_151:\n        /* \"contracts/EasyMode.sol\":2775:2836  uint256 waterLost = depletionIntervals * WATER_DEPLETION_RATE */\n      swap1\n      pop\n        /* \"contracts/EasyMode.sol\":2871:2876  plant */\n      dup4\n        /* \"contracts/EasyMode.sol\":2871:2887  plant.waterLevel */\n      0xa0\n      add\n      mload\n        /* \"contracts/EasyMode.sol\":2858:2887  waterLost >= plant.waterLevel */\n      0xff\n      and\n        /* \"contracts/EasyMode.sol\":2858:2867  waterLost */\n      dup2\n        /* \"contracts/EasyMode.sol\":2858:2887  waterLost >= plant.waterLevel */\n      lt\n        /* \"contracts/EasyMode.sol\":2855:2922  if(waterLost >= plant.waterLevel) {... */\n      tag_153\n      jumpi\n        /* \"contracts/EasyMode.sol\":2910:2911  0 */\n      0x00\n        /* \"contracts/EasyMode.sol\":2903:2911  return 0 */\n      swap5\n      pop\n      pop\n      pop\n      pop\n      pop\n      jump(tag_140)\n        /* \"contracts/EasyMode.sol\":2855:2922  if(waterLost >= plant.waterLevel) {... */\n    tag_153:\n        /* \"contracts/EasyMode.sol\":2932:2946  uint256 result */\n      0x00\n        /* \"contracts/EasyMode.sol\":2968:2977  waterLost */\n      dup2\n        /* \"contracts/EasyMode.sol\":2949:2954  plant */\n      dup6\n        /* \"contracts/EasyMode.sol\":2949:2965  plant.waterLevel */\n      0xa0\n      add\n      mload\n        /* \"contracts/EasyMode.sol\":2949:2977  plant.waterLevel - waterLost */\n      0xff\n      and\n      tag_154\n      swap2\n      swap1\n      tag_148\n      jump\t// in\n    tag_154:\n        /* \"contracts/EasyMode.sol\":2932:2977  uint256 result = plant.waterLevel - waterLost */\n      swap1\n      pop\n        /* \"contracts/EasyMode.sol\":3001:3007  result */\n      dup1\n        /* \"contracts/EasyMode.sol\":2988:3008  return uint8(result) */\n      swap6\n      pop\n      pop\n      pop\n      pop\n      pop\n      pop\n        /* \"contracts/EasyMode.sol\":2422:3015  function calculateWaterLevel(uint256 plantId) public view returns (uint8) {... */\n    tag_140:\n      swap2\n      swap1\n      pop\n      jump\t// out\n        /* \"contracts/EasyMode.sol\":615:667  uint256 public constant HARVEST_REWARD = 0.003 ether */\n    tag_62:\n        /* \"contracts/EasyMode.sol\":656:667  0.003 ether */\n      0x0aa87bee538000\n        /* \"contracts/EasyMode.sol\":615:667  uint256 public constant HARVEST_REWARD = 0.003 ether */\n      dup2\n      jump\t// out\n        /* \"contracts/EasyMode.sol\":446:493  mapping(address => uint256[]) public userPlants */\n    tag_68:\n      mstore(0x20, 0x06)\n      dup2\n      0x00\n      mstore\n      keccak256(0x00, 0x40)\n      dup2\n      dup2\n      sload\n      dup2\n      lt\n      tag_155\n      jumpi\n      0x00\n      dup1\n      revert\n    tag_155:\n      swap1\n      0x00\n      mstore\n      keccak256(0x00, 0x20)\n      add\n      0x00\n      swap2\n      pop\n      swap2\n      pop\n      pop\n      sload\n      dup2\n      jump\t// out\n        /* \"contracts/EasyMode.sol\":533:553  address public owner */\n    tag_72:\n      0x08\n      0x00\n      swap1\n      sload\n      swap1\n      0x0100\n      exp\n      swap1\n      div\n      0xffffffffffffffffffffffffffffffffffffffff\n      and\n      dup2\n      jump\t// out\n        /* \"contracts/EasyMode.sol\":401:440  mapping(uint256 => Plant) public plants */\n    tag_78:\n      mstore(0x20, 0x05)\n      dup1\n      0x00\n      mstore\n      keccak256(0x00, 0x40)\n      0x00\n      swap2\n      pop\n      swap1\n      pop\n      dup1\n      0x00\n      add\n      sload\n      swap1\n      dup1\n      0x01\n      add\n      0x00\n      swap1\n      sload\n      swap1\n      0x0100\n      exp\n      swap1\n      div\n      0xffffffffffffffffffffffffffffffffffffffff\n      and\n      swap1\n      dup1\n      0x01\n      add\n      0x14\n      swap1\n      sload\n      swap1\n      0x0100\n      exp\n      swap1\n      div\n      0xff\n      and\n      swap1\n      dup1\n      0x02\n      add\n      sload\n      swap1\n      dup1\n      0x03\n      add\n      sload\n      swap1\n      dup1\n      0x04\n      add\n      0x00\n      swap1\n      sload\n      swap1\n      0x0100\n      exp\n      swap1\n      div\n      0xff\n      and\n      swap1\n      dup1\n      0x04\n      add\n      0x01\n      swap1\n      sload\n      swap1\n      0x0100\n      exp\n      swap1\n      div\n      0xff\n      and\n      swap1\n      dup1\n      0x04\n      add\n      0x02\n      swap1\n      sload\n      swap1\n      0x0100\n      exp\n      swap1\n      div\n      0xff\n      and\n      swap1\n      pop\n      dup9\n      jump\t// out\n        /* \"contracts/EasyMode.sol\":3372:3685  function waterPlant(uint256 plantId) external ownerChecking {... */\n    tag_83:\n        /* \"contracts/EasyMode.sol\":1420:1425  owner */\n      0x08\n      0x00\n      swap1\n      sload\n      swap1\n      0x0100\n      exp\n      swap1\n      div\n      0xffffffffffffffffffffffffffffffffffffffff\n      and\n        /* \"contracts/EasyMode.sol\":1406:1425  msg.sender == owner */\n      0xffffffffffffffffffffffffffffffffffffffff\n      and\n        /* \"contracts/EasyMode.sol\":1406:1416  msg.sender */\n      caller\n        /* \"contracts/EasyMode.sol\":1406:1425  msg.sender == owner */\n      0xffffffffffffffffffffffffffffffffffffffff\n      and\n      eq\n        /* \"contracts/EasyMode.sol\":1398:1451  require(msg.sender == owner, \"Not your plant buddy!\") */\n      tag_158\n      jumpi\n      mload(0x40)\n      0x08c379a000000000000000000000000000000000000000000000000000000000\n      dup2\n      mstore\n      0x04\n      add\n      tag_159\n      swap1\n      tag_160\n      jump\t// in\n    tag_159:\n      mload(0x40)\n      dup1\n      swap2\n      sub\n      swap1\n      revert\n    tag_158:\n        /* \"contracts/EasyMode.sol\":3442:3461  Plant storage plant */\n      0x00\n        /* \"contracts/EasyMode.sol\":3464:3470  plants */\n      0x05\n        /* \"contracts/EasyMode.sol\":3464:3479  plants[plantId] */\n      0x00\n        /* \"contracts/EasyMode.sol\":3471:3478  plantId */\n      dup4\n        /* \"contracts/EasyMode.sol\":3464:3479  plants[plantId] */\n      dup2\n      mstore\n      0x20\n      add\n      swap1\n      dup2\n      mstore\n      0x20\n      add\n      0x00\n      keccak256\n        /* \"contracts/EasyMode.sol\":3442:3479  Plant storage plant = plants[plantId] */\n      swap1\n      pop\n        /* \"contracts/EasyMode.sol\":3498:3523  updateWaterLevel(plantId) */\n      tag_162\n        /* \"contracts/EasyMode.sol\":3515:3522  plantId */\n      dup3\n        /* \"contracts/EasyMode.sol\":3498:3514  updateWaterLevel */\n      tag_163\n        /* \"contracts/EasyMode.sol\":3498:3523  updateWaterLevel(plantId) */\n      jump\t// in\n    tag_162:\n        /* \"contracts/EasyMode.sol\":3552:3555  100 */\n      0x64\n        /* \"contracts/EasyMode.sol\":3533:3538  plant */\n      dup2\n        /* \"contracts/EasyMode.sol\":3533:3549  plant.waterLevel */\n      0x04\n      add\n      0x00\n        /* \"contracts/EasyMode.sol\":3533:3555  plant.waterLevel = 100 */\n      0x0100\n      exp\n      dup2\n      sload\n      dup2\n      0xff\n      mul\n      not\n      and\n      swap1\n      dup4\n      0xff\n      and\n      mul\n      or\n      swap1\n      sstore\n      pop\n        /* \"contracts/EasyMode.sol\":3585:3600  block.timestamp */\n      timestamp\n        /* \"contracts/EasyMode.sol\":3565:3570  plant */\n      dup2\n        /* \"contracts/EasyMode.sol\":3565:3582  plant.lastWatered */\n      0x03\n      add\n        /* \"contracts/EasyMode.sol\":3565:3600  plant.lastWatered = block.timestamp */\n      dup2\n      swap1\n      sstore\n      pop\n        /* \"contracts/EasyMode.sol\":3629:3636  plantId */\n      dup2\n        /* \"contracts/EasyMode.sol\":3616:3642  PlantWatered(plantId, 100) */\n      0xd4b742b9ba48fffa1f14267075a7793851770764117c423fd0a6550dfc8cb574\n        /* \"contracts/EasyMode.sol\":3638:3641  100 */\n      0x64\n        /* \"contracts/EasyMode.sol\":3616:3642  PlantWatered(plantId, 100) */\n      mload(0x40)\n      tag_164\n      swap2\n      swap1\n      tag_165\n      jump\t// in\n    tag_164:\n      mload(0x40)\n      dup1\n      swap2\n      sub\n      swap1\n      log2\n        /* \"contracts/EasyMode.sol\":3653:3678  updatePlantStage(plantId) */\n      tag_166\n        /* \"contracts/EasyMode.sol\":3670:3677  plantId */\n      dup3\n        /* \"contracts/EasyMode.sol\":3653:3669  updatePlantStage */\n      tag_99\n        /* \"contracts/EasyMode.sol\":3653:3678  updatePlantStage(plantId) */\n      jump\t// in\n    tag_166:\n        /* \"contracts/EasyMode.sol\":3432:3685  {... */\n      pop\n        /* \"contracts/EasyMode.sol\":3372:3685  function waterPlant(uint256 plantId) external ownerChecking {... */\n      pop\n      jump\t// out\n        /* \"contracts/EasyMode.sol\":500:527  uint256 public plantCounter */\n    tag_86:\n      sload(0x07)\n      dup2\n      jump\t// out\n        /* \"contracts/EasyMode.sol\":789:835  uint8 public constant WATER_DEPLETION_RATE = 2 */\n    tag_90:\n        /* \"contracts/EasyMode.sol\":834:835  2 */\n      0x02\n        /* \"contracts/EasyMode.sol\":789:835  uint8 public constant WATER_DEPLETION_RATE = 2 */\n      dup2\n      jump\t// out\n        /* \"contracts/EasyMode.sol\":560:609  uint256 public constant PLANT_PRICE = 0.001 ether */\n    tag_94:\n        /* \"contracts/EasyMode.sol\":598:609  0.001 ether */\n      0x038d7ea4c68000\n        /* \"contracts/EasyMode.sol\":560:609  uint256 public constant PLANT_PRICE = 0.001 ether */\n      dup2\n      jump\t// out\n        /* \"contracts/EasyMode.sol\":3691:4578  function updatePlantStage(uint256 plantId) public ownerChecking checkPlantExist(plantId) {... */\n    tag_99:\n        /* \"contracts/EasyMode.sol\":1420:1425  owner */\n      0x08\n      0x00\n      swap1\n      sload\n      swap1\n      0x0100\n      exp\n      swap1\n      div\n      0xffffffffffffffffffffffffffffffffffffffff\n      and\n        /* \"contracts/EasyMode.sol\":1406:1425  msg.sender == owner */\n      0xffffffffffffffffffffffffffffffffffffffff\n      and\n        /* \"contracts/EasyMode.sol\":1406:1416  msg.sender */\n      caller\n        /* \"contracts/EasyMode.sol\":1406:1425  msg.sender == owner */\n      0xffffffffffffffffffffffffffffffffffffffff\n      and\n      eq\n        /* \"contracts/EasyMode.sol\":1398:1451  require(msg.sender == owner, \"Not your plant buddy!\") */\n      tag_168\n      jumpi\n      mload(0x40)\n      0x08c379a000000000000000000000000000000000000000000000000000000000\n      dup2\n      mstore\n      0x04\n      add\n      tag_169\n      swap1\n      tag_160\n      jump\t// in\n    tag_169:\n      mload(0x40)\n      dup1\n      swap2\n      sub\n      swap1\n      revert\n    tag_168:\n        /* \"contracts/EasyMode.sol\":3771:3778  plantId */\n      dup1\n        /* \"contracts/EasyMode.sol\":1527:1545  Plant memory plant */\n      0x00\n        /* \"contracts/EasyMode.sol\":1548:1554  plants */\n      0x05\n        /* \"contracts/EasyMode.sol\":1548:1563  plants[plantId] */\n      0x00\n        /* \"contracts/EasyMode.sol\":1555:1562  plantId */\n      dup4\n        /* \"contracts/EasyMode.sol\":1548:1563  plants[plantId] */\n      dup2\n      mstore\n      0x20\n      add\n      swap1\n      dup2\n      mstore\n      0x20\n      add\n      0x00\n      keccak256\n        /* \"contracts/EasyMode.sol\":1527:1563  Plant memory plant = plants[plantId] */\n      mload(0x40)\n      dup1\n      0x0100\n      add\n      0x40\n      mstore\n      swap1\n      dup2\n      0x00\n      dup3\n      add\n      sload\n      dup2\n      mstore\n      0x20\n      add\n      0x01\n      dup3\n      add\n      0x00\n      swap1\n      sload\n      swap1\n      0x0100\n      exp\n      swap1\n      div\n      0xffffffffffffffffffffffffffffffffffffffff\n      and\n      0xffffffffffffffffffffffffffffffffffffffff\n      and\n      0xffffffffffffffffffffffffffffffffffffffff\n      and\n      dup2\n      mstore\n      0x20\n      add\n      0x01\n      dup3\n      add\n      0x14\n      swap1\n      sload\n      swap1\n      0x0100\n      exp\n      swap1\n      div\n      0xff\n      and\n      0x03\n      dup2\n      gt\n      iszero\n      tag_171\n      jumpi\n      tag_172\n      tag_134\n      jump\t// in\n    tag_172:\n    tag_171:\n      0x03\n      dup2\n      gt\n      iszero\n      tag_173\n      jumpi\n      tag_174\n      tag_134\n      jump\t// in\n    tag_174:\n    tag_173:\n      dup2\n      mstore\n      0x20\n      add\n      0x02\n      dup3\n      add\n      sload\n      dup2\n      mstore\n      0x20\n      add\n      0x03\n      dup3\n      add\n      sload\n      dup2\n      mstore\n      0x20\n      add\n      0x04\n      dup3\n      add\n      0x00\n      swap1\n      sload\n      swap1\n      0x0100\n      exp\n      swap1\n      div\n      0xff\n      and\n      0xff\n      and\n      0xff\n      and\n      dup2\n      mstore\n      0x20\n      add\n      0x04\n      dup3\n      add\n      0x01\n      swap1\n      sload\n      swap1\n      0x0100\n      exp\n      swap1\n      div\n      0xff\n      and\n      iszero\n      iszero\n      iszero\n      iszero\n      dup2\n      mstore\n      0x20\n      add\n      0x04\n      dup3\n      add\n      0x02\n      swap1\n      sload\n      swap1\n      0x0100\n      exp\n      swap1\n      div\n      0xff\n      and\n      iszero\n      iszero\n      iszero\n      iszero\n      dup2\n      mstore\n      pop\n      pop\n      swap1\n      pop\n        /* \"contracts/EasyMode.sol\":1581:1586  plant */\n      dup1\n        /* \"contracts/EasyMode.sol\":1581:1593  plant.exists */\n      0xc0\n      add\n      mload\n        /* \"contracts/EasyMode.sol\":1573:1618  require(plant.exists, \"Plant doesn't exist!\") */\n      tag_175\n      jumpi\n      mload(0x40)\n      0x08c379a000000000000000000000000000000000000000000000000000000000\n      dup2\n      mstore\n      0x04\n      add\n      tag_176\n      swap1\n      tag_177\n      jump\t// in\n    tag_176:\n      mload(0x40)\n      dup1\n      swap2\n      sub\n      swap1\n      revert\n    tag_175:\n        /* \"contracts/EasyMode.sol\":3790:3809  Plant storage plant */\n      0x00\n        /* \"contracts/EasyMode.sol\":3812:3818  plants */\n      0x05\n        /* \"contracts/EasyMode.sol\":3812:3827  plants[plantId] */\n      0x00\n        /* \"contracts/EasyMode.sol\":3819:3826  plantId */\n      dup6\n        /* \"contracts/EasyMode.sol\":3812:3827  plants[plantId] */\n      dup2\n      mstore\n      0x20\n      add\n      swap1\n      dup2\n      mstore\n      0x20\n      add\n      0x00\n      keccak256\n        /* \"contracts/EasyMode.sol\":3790:3827  Plant storage plant = plants[plantId] */\n      swap1\n      pop\n        /* \"contracts/EasyMode.sol\":3897:3922  updateWaterLevel(plantId) */\n      tag_179\n        /* \"contracts/EasyMode.sol\":3914:3921  plantId */\n      dup5\n        /* \"contracts/EasyMode.sol\":3897:3913  updateWaterLevel */\n      tag_163\n        /* \"contracts/EasyMode.sol\":3897:3922  updateWaterLevel(plantId) */\n      jump\t// in\n    tag_179:\n        /* \"contracts/EasyMode.sol\":3944:3949  plant */\n      dup1\n        /* \"contracts/EasyMode.sol\":3944:3956  plant.isDead */\n      0x04\n      add\n      0x02\n      swap1\n      sload\n      swap1\n      0x0100\n      exp\n      swap1\n      div\n      0xff\n      and\n        /* \"contracts/EasyMode.sol\":3941:3988  if(plant.isDead){... */\n      iszero\n      tag_180\n      jumpi\n        /* \"contracts/EasyMode.sol\":3971:3978  return; */\n      pop\n      jump(tag_178)\n        /* \"contracts/EasyMode.sol\":3941:3988  if(plant.isDead){... */\n    tag_180:\n        /* \"contracts/EasyMode.sol\":3998:4022  uint256 timeSincePlanted */\n      0x00\n        /* \"contracts/EasyMode.sol\":4043:4048  plant */\n      dup2\n        /* \"contracts/EasyMode.sol\":4043:4060  plant.plantedDate */\n      0x02\n      add\n      sload\n        /* \"contracts/EasyMode.sol\":4025:4040  block.timestamp */\n      timestamp\n        /* \"contracts/EasyMode.sol\":4025:4060  block.timestamp - plant.plantedDate */\n      tag_181\n      swap2\n      swap1\n      tag_148\n      jump\t// in\n    tag_181:\n        /* \"contracts/EasyMode.sol\":3998:4060  uint256 timeSincePlanted = block.timestamp - plant.plantedDate */\n      swap1\n      pop\n        /* \"contracts/EasyMode.sol\":4070:4090  GrowthStage oldStage */\n      0x00\n        /* \"contracts/EasyMode.sol\":4093:4098  plant */\n      dup3\n        /* \"contracts/EasyMode.sol\":4093:4110  plant.growthStage */\n      0x01\n      add\n      0x14\n      swap1\n      sload\n      swap1\n      0x0100\n      exp\n      swap1\n      div\n      0xff\n      and\n        /* \"contracts/EasyMode.sol\":4070:4110  GrowthStage oldStage = plant.growthStage */\n      swap1\n      pop\n        /* \"contracts/EasyMode.sol\":4161:4162  3 */\n      0x03\n        /* \"contracts/EasyMode.sol\":715:724  1 minutes */\n      0x3c\n        /* \"contracts/EasyMode.sol\":4144:4162  STAGE_DURATION * 3 */\n      tag_182\n      swap2\n      swap1\n      tag_152\n      jump\t// in\n    tag_182:\n        /* \"contracts/EasyMode.sol\":4124:4140  timeSincePlanted */\n      dup3\n        /* \"contracts/EasyMode.sol\":4124:4162  timeSincePlanted >= STAGE_DURATION * 3 */\n      lt\n        /* \"contracts/EasyMode.sol\":4121:4448  if(timeSincePlanted >= STAGE_DURATION * 3){... */\n      tag_183\n      jumpi\n        /* \"contracts/EasyMode.sol\":4197:4217  GrowthStage.BLOOMING */\n      0x03\n        /* \"contracts/EasyMode.sol\":4177:4182  plant */\n      dup4\n        /* \"contracts/EasyMode.sol\":4177:4194  plant.growthStage */\n      0x01\n      add\n      0x14\n        /* \"contracts/EasyMode.sol\":4177:4217  plant.growthStage = GrowthStage.BLOOMING */\n      0x0100\n      exp\n      dup2\n      sload\n      dup2\n      0xff\n      mul\n      not\n      and\n      swap1\n      dup4\n      0x03\n      dup2\n      gt\n      iszero\n      tag_184\n      jumpi\n      tag_185\n      tag_134\n      jump\t// in\n    tag_185:\n    tag_184:\n      mul\n      or\n      swap1\n      sstore\n      pop\n        /* \"contracts/EasyMode.sol\":4121:4448  if(timeSincePlanted >= STAGE_DURATION * 3){... */\n      jump(tag_186)\n    tag_183:\n        /* \"contracts/EasyMode.sol\":4274:4275  2 */\n      0x02\n        /* \"contracts/EasyMode.sol\":715:724  1 minutes */\n      0x3c\n        /* \"contracts/EasyMode.sol\":4257:4275  STAGE_DURATION * 2 */\n      tag_187\n      swap2\n      swap1\n      tag_152\n      jump\t// in\n    tag_187:\n        /* \"contracts/EasyMode.sol\":4237:4253  timeSincePlanted */\n      dup3\n        /* \"contracts/EasyMode.sol\":4237:4275  timeSincePlanted >= STAGE_DURATION * 2 */\n      lt\n        /* \"contracts/EasyMode.sol\":4234:4448  if(timeSincePlanted >= STAGE_DURATION * 2){... */\n      tag_188\n      jumpi\n        /* \"contracts/EasyMode.sol\":4310:4329  GrowthStage.GROWING */\n      0x02\n        /* \"contracts/EasyMode.sol\":4290:4295  plant */\n      dup4\n        /* \"contracts/EasyMode.sol\":4290:4307  plant.growthStage */\n      0x01\n      add\n      0x14\n        /* \"contracts/EasyMode.sol\":4290:4329  plant.growthStage = GrowthStage.GROWING */\n      0x0100\n      exp\n      dup2\n      sload\n      dup2\n      0xff\n      mul\n      not\n      and\n      swap1\n      dup4\n      0x03\n      dup2\n      gt\n      iszero\n      tag_189\n      jumpi\n      tag_190\n      tag_134\n      jump\t// in\n    tag_190:\n    tag_189:\n      mul\n      or\n      swap1\n      sstore\n      pop\n        /* \"contracts/EasyMode.sol\":4234:4448  if(timeSincePlanted >= STAGE_DURATION * 2){... */\n      jump(tag_191)\n    tag_188:\n        /* \"contracts/EasyMode.sol\":715:724  1 minutes */\n      0x3c\n        /* \"contracts/EasyMode.sol\":4349:4365  timeSincePlanted */\n      dup3\n        /* \"contracts/EasyMode.sol\":4349:4383  timeSincePlanted >= STAGE_DURATION */\n      lt\n        /* \"contracts/EasyMode.sol\":4346:4448  if(timeSincePlanted >= STAGE_DURATION) {... */\n      tag_192\n      jumpi\n        /* \"contracts/EasyMode.sol\":4419:4437  GrowthStage.SPROUT */\n      0x01\n        /* \"contracts/EasyMode.sol\":4399:4404  plant */\n      dup4\n        /* \"contracts/EasyMode.sol\":4399:4416  plant.growthStage */\n      0x01\n      add\n      0x14\n        /* \"contracts/EasyMode.sol\":4399:4437  plant.growthStage = GrowthStage.SPROUT */\n      0x0100\n      exp\n      dup2\n      sload\n      dup2\n      0xff\n      mul\n      not\n      and\n      swap1\n      dup4\n      0x03\n      dup2\n      gt\n      iszero\n      tag_193\n      jumpi\n      tag_194\n      tag_134\n      jump\t// in\n    tag_194:\n    tag_193:\n      mul\n      or\n      swap1\n      sstore\n      pop\n        /* \"contracts/EasyMode.sol\":4346:4448  if(timeSincePlanted >= STAGE_DURATION) {... */\n    tag_192:\n        /* \"contracts/EasyMode.sol\":4234:4448  if(timeSincePlanted >= STAGE_DURATION * 2){... */\n    tag_191:\n        /* \"contracts/EasyMode.sol\":4121:4448  if(timeSincePlanted >= STAGE_DURATION * 3){... */\n    tag_186:\n        /* \"contracts/EasyMode.sol\":4491:4499  oldStage */\n      dup1\n        /* \"contracts/EasyMode.sol\":4470:4499  plant.growthStage != oldStage */\n      0x03\n      dup2\n      gt\n      iszero\n      tag_195\n      jumpi\n      tag_196\n      tag_134\n      jump\t// in\n    tag_196:\n    tag_195:\n        /* \"contracts/EasyMode.sol\":4470:4475  plant */\n      dup4\n        /* \"contracts/EasyMode.sol\":4470:4487  plant.growthStage */\n      0x01\n      add\n      0x14\n      swap1\n      sload\n      swap1\n      0x0100\n      exp\n      swap1\n      div\n      0xff\n      and\n        /* \"contracts/EasyMode.sol\":4470:4499  plant.growthStage != oldStage */\n      0x03\n      dup2\n      gt\n      iszero\n      tag_197\n      jumpi\n      tag_198\n      tag_134\n      jump\t// in\n    tag_198:\n    tag_197:\n      eq\n        /* \"contracts/EasyMode.sol\":4467:4572  if(plant.growthStage != oldStage) {... */\n      tag_199\n      jumpi\n        /* \"contracts/EasyMode.sol\":4534:4541  plantId */\n      dup6\n        /* \"contracts/EasyMode.sol\":4520:4561  StageAdvanced(plantId, plant.growthStage) */\n      0x338b8976706f9da67298dddfa1ea4ff7d99cce68b9ca39c4f348994f8e2124a8\n        /* \"contracts/EasyMode.sol\":4543:4548  plant */\n      dup5\n        /* \"contracts/EasyMode.sol\":4543:4560  plant.growthStage */\n      0x01\n      add\n      0x14\n      swap1\n      sload\n      swap1\n      0x0100\n      exp\n      swap1\n      div\n      0xff\n      and\n        /* \"contracts/EasyMode.sol\":4520:4561  StageAdvanced(plantId, plant.growthStage) */\n      mload(0x40)\n      tag_200\n      swap2\n      swap1\n      tag_201\n      jump\t// in\n    tag_200:\n      mload(0x40)\n      dup1\n      swap2\n      sub\n      swap1\n      log2\n        /* \"contracts/EasyMode.sol\":4467:4572  if(plant.growthStage != oldStage) {... */\n    tag_199:\n        /* \"contracts/EasyMode.sol\":3780:4578  {... */\n      pop\n      pop\n      pop\n        /* \"contracts/EasyMode.sol\":1628:1629  _ */\n    tag_178:\n        /* \"contracts/EasyMode.sol\":1517:1636  {... */\n      pop\n        /* \"contracts/EasyMode.sol\":1461:1462  _ */\n      pop\n        /* \"contracts/EasyMode.sol\":3691:4578  function updatePlantStage(uint256 plantId) public ownerChecking checkPlantExist(plantId) {... */\n      pop\n      jump\t// out\n        /* \"contracts/EasyMode.sol\":4584:5060  function harvestPlant(uint256 plantId) external checkPlantExist(plantId) ownerChecking checkPlantAliveStatus(plantId) {... */\n    tag_103:\n        /* \"contracts/EasyMode.sol\":4648:4655  plantId */\n      dup1\n        /* \"contracts/EasyMode.sol\":1527:1545  Plant memory plant */\n      0x00\n        /* \"contracts/EasyMode.sol\":1548:1554  plants */\n      0x05\n        /* \"contracts/EasyMode.sol\":1548:1563  plants[plantId] */\n      0x00\n        /* \"contracts/EasyMode.sol\":1555:1562  plantId */\n      dup4\n        /* \"contracts/EasyMode.sol\":1548:1563  plants[plantId] */\n      dup2\n      mstore\n      0x20\n      add\n      swap1\n      dup2\n      mstore\n      0x20\n      add\n      0x00\n      keccak256\n        /* \"contracts/EasyMode.sol\":1527:1563  Plant memory plant = plants[plantId] */\n      mload(0x40)\n      dup1\n      0x0100\n      add\n      0x40\n      mstore\n      swap1\n      dup2\n      0x00\n      dup3\n      add\n      sload\n      dup2\n      mstore\n      0x20\n      add\n      0x01\n      dup3\n      add\n      0x00\n      swap1\n      sload\n      swap1\n      0x0100\n      exp\n      swap1\n      div\n      0xffffffffffffffffffffffffffffffffffffffff\n      and\n      0xffffffffffffffffffffffffffffffffffffffff\n      and\n      0xffffffffffffffffffffffffffffffffffffffff\n      and\n      dup2\n      mstore\n      0x20\n      add\n      0x01\n      dup3\n      add\n      0x14\n      swap1\n      sload\n      swap1\n      0x0100\n      exp\n      swap1\n      div\n      0xff\n      and\n      0x03\n      dup2\n      gt\n      iszero\n      tag_203\n      jumpi\n      tag_204\n      tag_134\n      jump\t// in\n    tag_204:\n    tag_203:\n      0x03\n      dup2\n      gt\n      iszero\n      tag_205\n      jumpi\n      tag_206\n      tag_134\n      jump\t// in\n    tag_206:\n    tag_205:\n      dup2\n      mstore\n      0x20\n      add\n      0x02\n      dup3\n      add\n      sload\n      dup2\n      mstore\n      0x20\n      add\n      0x03\n      dup3\n      add\n      sload\n      dup2\n      mstore\n      0x20\n      add\n      0x04\n      dup3\n      add\n      0x00\n      swap1\n      sload\n      swap1\n      0x0100\n      exp\n      swap1\n      div\n      0xff\n      and\n      0xff\n      and\n      0xff\n      and\n      dup2\n      mstore\n      0x20\n      add\n      0x04\n      dup3\n      add\n      0x01\n      swap1\n      sload\n      swap1\n      0x0100\n      exp\n      swap1\n      div\n      0xff\n      and\n      iszero\n      iszero\n      iszero\n      iszero\n      dup2\n      mstore\n      0x20\n      add\n      0x04\n      dup3\n      add\n      0x02\n      swap1\n      sload\n      swap1\n      0x0100\n      exp\n      swap1\n      div\n      0xff\n      and\n      iszero\n      iszero\n      iszero\n      iszero\n      dup2\n      mstore\n      pop\n      pop\n      swap1\n      pop\n        /* \"contracts/EasyMode.sol\":1581:1586  plant */\n      dup1\n        /* \"contracts/EasyMode.sol\":1581:1593  plant.exists */\n      0xc0\n      add\n      mload\n        /* \"contracts/EasyMode.sol\":1573:1618  require(plant.exists, \"Plant doesn't exist!\") */\n      tag_207\n      jumpi\n      mload(0x40)\n      0x08c379a000000000000000000000000000000000000000000000000000000000\n      dup2\n      mstore\n      0x04\n      add\n      tag_208\n      swap1\n      tag_177\n      jump\t// in\n    tag_208:\n      mload(0x40)\n      dup1\n      swap2\n      sub\n      swap1\n      revert\n    tag_207:\n        /* \"contracts/EasyMode.sol\":1420:1425  owner */\n      0x08\n      0x00\n      swap1\n      sload\n      swap1\n      0x0100\n      exp\n      swap1\n      div\n      0xffffffffffffffffffffffffffffffffffffffff\n      and\n        /* \"contracts/EasyMode.sol\":1406:1425  msg.sender == owner */\n      0xffffffffffffffffffffffffffffffffffffffff\n      and\n        /* \"contracts/EasyMode.sol\":1406:1416  msg.sender */\n      caller\n        /* \"contracts/EasyMode.sol\":1406:1425  msg.sender == owner */\n      0xffffffffffffffffffffffffffffffffffffffff\n      and\n      eq\n        /* \"contracts/EasyMode.sol\":1398:1451  require(msg.sender == owner, \"Not your plant buddy!\") */\n      tag_210\n      jumpi\n      mload(0x40)\n      0x08c379a000000000000000000000000000000000000000000000000000000000\n      dup2\n      mstore\n      0x04\n      add\n      tag_211\n      swap1\n      tag_160\n      jump\t// in\n    tag_211:\n      mload(0x40)\n      dup1\n      swap2\n      sub\n      swap1\n      revert\n    tag_210:\n        /* \"contracts/EasyMode.sol\":4693:4700  plantId */\n      dup3\n        /* \"contracts/EasyMode.sol\":1700:1718  Plant memory plant */\n      0x00\n        /* \"contracts/EasyMode.sol\":1721:1727  plants */\n      0x05\n        /* \"contracts/EasyMode.sol\":1721:1736  plants[plantId] */\n      0x00\n        /* \"contracts/EasyMode.sol\":1728:1735  plantId */\n      dup4\n        /* \"contracts/EasyMode.sol\":1721:1736  plants[plantId] */\n      dup2\n      mstore\n      0x20\n      add\n      swap1\n      dup2\n      mstore\n      0x20\n      add\n      0x00\n      keccak256\n        /* \"contracts/EasyMode.sol\":1700:1736  Plant memory plant = plants[plantId] */\n      mload(0x40)\n      dup1\n      0x0100\n      add\n      0x40\n      mstore\n      swap1\n      dup2\n      0x00\n      dup3\n      add\n      sload\n      dup2\n      mstore\n      0x20\n      add\n      0x01\n      dup3\n      add\n      0x00\n      swap1\n      sload\n      swap1\n      0x0100\n      exp\n      swap1\n      div\n      0xffffffffffffffffffffffffffffffffffffffff\n      and\n      0xffffffffffffffffffffffffffffffffffffffff\n      and\n      0xffffffffffffffffffffffffffffffffffffffff\n      and\n      dup2\n      mstore\n      0x20\n      add\n      0x01\n      dup3\n      add\n      0x14\n      swap1\n      sload\n      swap1\n      0x0100\n      exp\n      swap1\n      div\n      0xff\n      and\n      0x03\n      dup2\n      gt\n      iszero\n      tag_213\n      jumpi\n      tag_214\n      tag_134\n      jump\t// in\n    tag_214:\n    tag_213:\n      0x03\n      dup2\n      gt\n      iszero\n      tag_215\n      jumpi\n      tag_216\n      tag_134\n      jump\t// in\n    tag_216:\n    tag_215:\n      dup2\n      mstore\n      0x20\n      add\n      0x02\n      dup3\n      add\n      sload\n      dup2\n      mstore\n      0x20\n      add\n      0x03\n      dup3\n      add\n      sload\n      dup2\n      mstore\n      0x20\n      add\n      0x04\n      dup3\n      add\n      0x00\n      swap1\n      sload\n      swap1\n      0x0100\n      exp\n      swap1\n      div\n      0xff\n      and\n      0xff\n      and\n      0xff\n      and\n      dup2\n      mstore\n      0x20\n      add\n      0x04\n      dup3\n      add\n      0x01\n      swap1\n      sload\n      swap1\n      0x0100\n      exp\n      swap1\n      div\n      0xff\n      and\n      iszero\n      iszero\n      iszero\n      iszero\n      dup2\n      mstore\n      0x20\n      add\n      0x04\n      dup3\n      add\n      0x02\n      swap1\n      sload\n      swap1\n      0x0100\n      exp\n      swap1\n      div\n      0xff\n      and\n      iszero\n      iszero\n      iszero\n      iszero\n      dup2\n      mstore\n      pop\n      pop\n      swap1\n      pop\n        /* \"contracts/EasyMode.sol\":1755:1760  plant */\n      dup1\n        /* \"contracts/EasyMode.sol\":1755:1767  plant.isDead */\n      0xe0\n      add\n      mload\n        /* \"contracts/EasyMode.sol\":1754:1767  !plant.isDead */\n      iszero\n        /* \"contracts/EasyMode.sol\":1746:1790  require(!plant.isDead, \"Plant already dead\") */\n      tag_217\n      jumpi\n      mload(0x40)\n      0x08c379a000000000000000000000000000000000000000000000000000000000\n      dup2\n      mstore\n      0x04\n      add\n      tag_218\n      swap1\n      tag_219\n      jump\t// in\n    tag_218:\n      mload(0x40)\n      dup1\n      swap2\n      sub\n      swap1\n      revert\n    tag_217:\n        /* \"contracts/EasyMode.sol\":4712:4730  Plant memory plant */\n      0x00\n        /* \"contracts/EasyMode.sol\":4733:4739  plants */\n      0x05\n        /* \"contracts/EasyMode.sol\":4733:4748  plants[plantId] */\n      0x00\n        /* \"contracts/EasyMode.sol\":4740:4747  plantId */\n      dup8\n        /* \"contracts/EasyMode.sol\":4733:4748  plants[plantId] */\n      dup2\n      mstore\n      0x20\n      add\n      swap1\n      dup2\n      mstore\n      0x20\n      add\n      0x00\n      keccak256\n        /* \"contracts/EasyMode.sol\":4712:4748  Plant memory plant = plants[plantId] */\n      mload(0x40)\n      dup1\n      0x0100\n      add\n      0x40\n      mstore\n      swap1\n      dup2\n      0x00\n      dup3\n      add\n      sload\n      dup2\n      mstore\n      0x20\n      add\n      0x01\n      dup3\n      add\n      0x00\n      swap1\n      sload\n      swap1\n      0x0100\n      exp\n      swap1\n      div\n      0xffffffffffffffffffffffffffffffffffffffff\n      and\n      0xffffffffffffffffffffffffffffffffffffffff\n      and\n      0xffffffffffffffffffffffffffffffffffffffff\n      and\n      dup2\n      mstore\n      0x20\n      add\n      0x01\n      dup3\n      add\n      0x14\n      swap1\n      sload\n      swap1\n      0x0100\n      exp\n      swap1\n      div\n      0xff\n      and\n      0x03\n      dup2\n      gt\n      iszero\n      tag_221\n      jumpi\n      tag_222\n      tag_134\n      jump\t// in\n    tag_222:\n    tag_221:\n      0x03\n      dup2\n      gt\n      iszero\n      tag_223\n      jumpi\n      tag_224\n      tag_134\n      jump\t// in\n    tag_224:\n    tag_223:\n      dup2\n      mstore\n      0x20\n      add\n      0x02\n      dup3\n      add\n      sload\n      dup2\n      mstore\n      0x20\n      add\n      0x03\n      dup3\n      add\n      sload\n      dup2\n      mstore\n      0x20\n      add\n      0x04\n      dup3\n      add\n      0x00\n      swap1\n      sload\n      swap1\n      0x0100\n      exp\n      swap1\n      div\n      0xff\n      and\n      0xff\n      and\n      0xff\n      and\n      dup2\n      mstore\n      0x20\n      add\n      0x04\n      dup3\n      add\n      0x01\n      swap1\n      sload\n      swap1\n      0x0100\n      exp\n      swap1\n      div\n      0xff\n      and\n      iszero\n      iszero\n      iszero\n      iszero\n      dup2\n      mstore\n      0x20\n      add\n      0x04\n      dup3\n      add\n      0x02\n      swap1\n      sload\n      swap1\n      0x0100\n      exp\n      swap1\n      div\n      0xff\n      and\n      iszero\n      iszero\n      iszero\n      iszero\n      dup2\n      mstore\n      pop\n      pop\n      swap1\n      pop\n        /* \"contracts/EasyMode.sol\":4759:4784  updatePlantStage(plantId) */\n      tag_225\n        /* \"contracts/EasyMode.sol\":4776:4783  plantId */\n      dup7\n        /* \"contracts/EasyMode.sol\":4759:4775  updatePlantStage */\n      tag_99\n        /* \"contracts/EasyMode.sol\":4759:4784  updatePlantStage(plantId) */\n      jump\t// in\n    tag_225:\n        /* \"contracts/EasyMode.sol\":4823:4843  GrowthStage.BLOOMING */\n      0x03\n        /* \"contracts/EasyMode.sol\":4802:4843  plant.growthStage == GrowthStage.BLOOMING */\n      dup1\n      dup2\n      gt\n      iszero\n      tag_226\n      jumpi\n      tag_227\n      tag_134\n      jump\t// in\n    tag_227:\n    tag_226:\n        /* \"contracts/EasyMode.sol\":4802:4807  plant */\n      dup2\n        /* \"contracts/EasyMode.sol\":4802:4819  plant.growthStage */\n      0x40\n      add\n      mload\n        /* \"contracts/EasyMode.sol\":4802:4843  plant.growthStage == GrowthStage.BLOOMING */\n      0x03\n      dup2\n      gt\n      iszero\n      tag_228\n      jumpi\n      tag_229\n      tag_134\n      jump\t// in\n    tag_229:\n    tag_228:\n      eq\n        /* \"contracts/EasyMode.sol\":4794:4844  require(plant.growthStage == GrowthStage.BLOOMING) */\n      tag_230\n      jumpi\n      revert(0x00, 0x00)\n    tag_230:\n        /* \"contracts/EasyMode.sol\":4870:4875  false */\n      0x00\n        /* \"contracts/EasyMode.sol\":4855:4860  plant */\n      dup2\n        /* \"contracts/EasyMode.sol\":4855:4867  plant.exists */\n      0xc0\n      add\n        /* \"contracts/EasyMode.sol\":4855:4875  plant.exists = false */\n      swap1\n      iszero\n      iszero\n      swap1\n      dup2\n      iszero\n      iszero\n      dup2\n      mstore\n      pop\n      pop\n        /* \"contracts/EasyMode.sol\":4914:4919  owner */\n      0x08\n      0x00\n      swap1\n      sload\n      swap1\n      0x0100\n      exp\n      swap1\n      div\n      0xffffffffffffffffffffffffffffffffffffffff\n      and\n        /* \"contracts/EasyMode.sol\":4890:4936  PlantHarvested(plantId, owner, HARVEST_REWARD) */\n      0xffffffffffffffffffffffffffffffffffffffff\n      and\n        /* \"contracts/EasyMode.sol\":4905:4912  plantId */\n      dup7\n        /* \"contracts/EasyMode.sol\":4890:4936  PlantHarvested(plantId, owner, HARVEST_REWARD) */\n      0x79f2138ea100070ff95b59c265da7aa3c7a0f61595fe1bb2f5fda2762f398847\n        /* \"contracts/EasyMode.sol\":656:667  0.003 ether */\n      0x0aa87bee538000\n        /* \"contracts/EasyMode.sol\":4890:4936  PlantHarvested(plantId, owner, HARVEST_REWARD) */\n      mload(0x40)\n      tag_231\n      swap2\n      swap1\n      tag_30\n      jump\t// in\n    tag_231:\n      mload(0x40)\n      dup1\n      swap2\n      sub\n      swap1\n      log3\n        /* \"contracts/EasyMode.sol\":4948:4960  bool success */\n      0x00\n        /* \"contracts/EasyMode.sol\":4966:4976  msg.sender */\n      caller\n        /* \"contracts/EasyMode.sol\":4966:4981  msg.sender.call */\n      0xffffffffffffffffffffffffffffffffffffffff\n      and\n        /* \"contracts/EasyMode.sol\":656:667  0.003 ether */\n      0x0aa87bee538000\n        /* \"contracts/EasyMode.sol\":4966:5008  msg.sender.call{value: HARVEST_REWARD}(\"\") */\n      mload(0x40)\n      tag_232\n      swap1\n      tag_118\n      jump\t// in\n    tag_232:\n      0x00\n      mload(0x40)\n      dup1\n      dup4\n      sub\n      dup2\n      dup6\n      dup8\n      gas\n      call\n      swap3\n      pop\n      pop\n      pop\n      returndatasize\n      dup1\n      0x00\n      dup2\n      eq\n      tag_235\n      jumpi\n      mload(0x40)\n      swap2\n      pop\n      and(add(returndatasize, 0x3f), not(0x1f))\n      dup3\n      add\n      0x40\n      mstore\n      returndatasize\n      dup3\n      mstore\n      returndatasize\n      0x00\n      0x20\n      dup5\n      add\n      returndatacopy\n      jump(tag_234)\n    tag_235:\n      0x60\n      swap2\n      pop\n    tag_234:\n      pop\n        /* \"contracts/EasyMode.sol\":4947:5008  (bool success, ) = msg.sender.call{value: HARVEST_REWARD}(\"\") */\n      pop\n      swap1\n      pop\n        /* \"contracts/EasyMode.sol\":5026:5033  success */\n      dup1\n        /* \"contracts/EasyMode.sol\":5018:5053  require(success, \"transfer failed\") */\n      tag_236\n      jumpi\n      mload(0x40)\n      0x08c379a000000000000000000000000000000000000000000000000000000000\n      dup2\n      mstore\n      0x04\n      add\n      tag_237\n      swap1\n      tag_238\n      jump\t// in\n    tag_237:\n      mload(0x40)\n      dup1\n      swap2\n      sub\n      swap1\n      revert\n    tag_236:\n        /* \"contracts/EasyMode.sol\":4702:5060  {... */\n      pop\n      pop\n        /* \"contracts/EasyMode.sol\":1690:1808  {... */\n      pop\n        /* \"contracts/EasyMode.sol\":1461:1462  _ */\n      pop\n        /* \"contracts/EasyMode.sol\":1517:1636  {... */\n      pop\n        /* \"contracts/EasyMode.sol\":4584:5060  function harvestPlant(uint256 plantId) external checkPlantExist(plantId) ownerChecking checkPlantAliveStatus(plantId) {... */\n      pop\n      pop\n      jump\t// out\n        /* \"contracts/EasyMode.sol\":5066:5270  function getPlant(uint256 plantId) external view returns (Plant memory) {... */\n    tag_107:\n        /* \"contracts/EasyMode.sol\":5124:5136  Plant memory */\n      tag_239\n      tag_240\n      jump\t// in\n    tag_239:\n        /* \"contracts/EasyMode.sol\":5148:5166  Plant memory plant */\n      0x00\n        /* \"contracts/EasyMode.sol\":5169:5175  plants */\n      0x05\n        /* \"contracts/EasyMode.sol\":5169:5184  plants[plantId] */\n      0x00\n        /* \"contracts/EasyMode.sol\":5176:5183  plantId */\n      dup5\n        /* \"contracts/EasyMode.sol\":5169:5184  plants[plantId] */\n      dup2\n      mstore\n      0x20\n      add\n      swap1\n      dup2\n      mstore\n      0x20\n      add\n      0x00\n      keccak256\n        /* \"contracts/EasyMode.sol\":5148:5184  Plant memory plant = plants[plantId] */\n      mload(0x40)\n      dup1\n      0x0100\n      add\n      0x40\n      mstore\n      swap1\n      dup2\n      0x00\n      dup3\n      add\n      sload\n      dup2\n      mstore\n      0x20\n      add\n      0x01\n      dup3\n      add\n      0x00\n      swap1\n      sload\n      swap1\n      0x0100\n      exp\n      swap1\n      div\n      0xffffffffffffffffffffffffffffffffffffffff\n      and\n      0xffffffffffffffffffffffffffffffffffffffff\n      and\n      0xffffffffffffffffffffffffffffffffffffffff\n      and\n      dup2\n      mstore\n      0x20\n      add\n      0x01\n      dup3\n      add\n      0x14\n      swap1\n      sload\n      swap1\n      0x0100\n      exp\n      swap1\n      div\n      0xff\n      and\n      0x03\n      dup2\n      gt\n      iszero\n      tag_242\n      jumpi\n      tag_243\n      tag_134\n      jump\t// in\n    tag_243:\n    tag_242:\n      0x03\n      dup2\n      gt\n      iszero\n      tag_244\n      jumpi\n      tag_245\n      tag_134\n      jump\t// in\n    tag_245:\n    tag_244:\n      dup2\n      mstore\n      0x20\n      add\n      0x02\n      dup3\n      add\n      sload\n      dup2\n      mstore\n      0x20\n      add\n      0x03\n      dup3\n      add\n      sload\n      dup2\n      mstore\n      0x20\n      add\n      0x04\n      dup3\n      add\n      0x00\n      swap1\n      sload\n      swap1\n      0x0100\n      exp\n      swap1\n      div\n      0xff\n      and\n      0xff\n      and\n      0xff\n      and\n      dup2\n      mstore\n      0x20\n      add\n      0x04\n      dup3\n      add\n      0x01\n      swap1\n      sload\n      swap1\n      0x0100\n      exp\n      swap1\n      div\n      0xff\n      and\n      iszero\n      iszero\n      iszero\n      iszero\n      dup2\n      mstore\n      0x20\n      add\n      0x04\n      dup3\n      add\n      0x02\n      swap1\n      sload\n      swap1\n      0x0100\n      exp\n      swap1\n      div\n      0xff\n      and\n      iszero\n      iszero\n      iszero\n      iszero\n      dup2\n      mstore\n      pop\n      pop\n      swap1\n      pop\n        /* \"contracts/EasyMode.sol\":5213:5241  calculateWaterLevel(plantId) */\n      tag_246\n        /* \"contracts/EasyMode.sol\":5233:5240  plantId */\n      dup4\n        /* \"contracts/EasyMode.sol\":5213:5232  calculateWaterLevel */\n      tag_57\n        /* \"contracts/EasyMode.sol\":5213:5241  calculateWaterLevel(plantId) */\n      jump\t// in\n    tag_246:\n        /* \"contracts/EasyMode.sol\":5194:5199  plant */\n      dup2\n        /* \"contracts/EasyMode.sol\":5194:5210  plant.waterLevel */\n      0xa0\n      add\n        /* \"contracts/EasyMode.sol\":5194:5241  plant.waterLevel = calculateWaterLevel(plantId) */\n      swap1\n      0xff\n      and\n      swap1\n      dup2\n      0xff\n      and\n      dup2\n      mstore\n      pop\n      pop\n        /* \"contracts/EasyMode.sol\":5258:5263  plant */\n      dup1\n        /* \"contracts/EasyMode.sol\":5251:5263  return plant */\n      swap2\n      pop\n      pop\n        /* \"contracts/EasyMode.sol\":5066:5270  function getPlant(uint256 plantId) external view returns (Plant memory) {... */\n      swap2\n      swap1\n      pop\n      jump\t// out\n        /* \"contracts/EasyMode.sol\":3021:3366  function updateWaterLevel(uint256 plantId) internal {... */\n    tag_163:\n        /* \"contracts/EasyMode.sol\":3083:3101  Plant memory plant */\n      0x00\n        /* \"contracts/EasyMode.sol\":3104:3110  plants */\n      0x05\n        /* \"contracts/EasyMode.sol\":3104:3119  plants[plantId] */\n      0x00\n        /* \"contracts/EasyMode.sol\":3111:3118  plantId */\n      dup4\n        /* \"contracts/EasyMode.sol\":3104:3119  plants[plantId] */\n      dup2\n      mstore\n      0x20\n      add\n      swap1\n      dup2\n      mstore\n      0x20\n      add\n      0x00\n      keccak256\n        /* \"contracts/EasyMode.sol\":3083:3119  Plant memory plant = plants[plantId] */\n      mload(0x40)\n      dup1\n      0x0100\n      add\n      0x40\n      mstore\n      swap1\n      dup2\n      0x00\n      dup3\n      add\n      sload\n      dup2\n      mstore\n      0x20\n      add\n      0x01\n      dup3\n      add\n      0x00\n      swap1\n      sload\n      swap1\n      0x0100\n      exp\n      swap1\n      div\n      0xffffffffffffffffffffffffffffffffffffffff\n      and\n      0xffffffffffffffffffffffffffffffffffffffff\n      and\n      0xffffffffffffffffffffffffffffffffffffffff\n      and\n      dup2\n      mstore\n      0x20\n      add\n      0x01\n      dup3\n      add\n      0x14\n      swap1\n      sload\n      swap1\n      0x0100\n      exp\n      swap1\n      div\n      0xff\n      and\n      0x03\n      dup2\n      gt\n      iszero\n      tag_248\n      jumpi\n      tag_249\n      tag_134\n      jump\t// in\n    tag_249:\n    tag_248:\n      0x03\n      dup2\n      gt\n      iszero\n      tag_250\n      jumpi\n      tag_251\n      tag_134\n      jump\t// in\n    tag_251:\n    tag_250:\n      dup2\n      mstore\n      0x20\n      add\n      0x02\n      dup3\n      add\n      sload\n      dup2\n      mstore\n      0x20\n      add\n      0x03\n      dup3\n      add\n      sload\n      dup2\n      mstore\n      0x20\n      add\n      0x04\n      dup3\n      add\n      0x00\n      swap1\n      sload\n      swap1\n      0x0100\n      exp\n      swap1\n      div\n      0xff\n      and\n      0xff\n      and\n      0xff\n      and\n      dup2\n      mstore\n      0x20\n      add\n      0x04\n      dup3\n      add\n      0x01\n      swap1\n      sload\n      swap1\n      0x0100\n      exp\n      swap1\n      div\n      0xff\n      and\n      iszero\n      iszero\n      iszero\n      iszero\n      dup2\n      mstore\n      0x20\n      add\n      0x04\n      dup3\n      add\n      0x02\n      swap1\n      sload\n      swap1\n      0x0100\n      exp\n      swap1\n      div\n      0xff\n      and\n      iszero\n      iszero\n      iszero\n      iszero\n      dup2\n      mstore\n      pop\n      pop\n      swap1\n      pop\n        /* \"contracts/EasyMode.sol\":3138:3156  uint8 currentWater */\n      0x00\n        /* \"contracts/EasyMode.sol\":3159:3187  calculateWaterLevel(plantId) */\n      tag_252\n        /* \"contracts/EasyMode.sol\":3179:3186  plantId */\n      dup4\n        /* \"contracts/EasyMode.sol\":3159:3178  calculateWaterLevel */\n      tag_57\n        /* \"contracts/EasyMode.sol\":3159:3187  calculateWaterLevel(plantId) */\n      jump\t// in\n    tag_252:\n        /* \"contracts/EasyMode.sol\":3138:3187  uint8 currentWater = calculateWaterLevel(plantId) */\n      swap1\n      pop\n        /* \"contracts/EasyMode.sol\":3217:3229  currentWater */\n      dup1\n        /* \"contracts/EasyMode.sol\":3198:3203  plant */\n      dup3\n        /* \"contracts/EasyMode.sol\":3198:3214  plant.waterLevel */\n      0xa0\n      add\n        /* \"contracts/EasyMode.sol\":3198:3229  plant.waterLevel = currentWater */\n      swap1\n      0xff\n      and\n      swap1\n      dup2\n      0xff\n      and\n      dup2\n      mstore\n      pop\n      pop\n        /* \"contracts/EasyMode.sol\":3260:3261  0 */\n      0x00\n        /* \"contracts/EasyMode.sol\":3244:3256  currentWater */\n      dup2\n        /* \"contracts/EasyMode.sol\":3244:3261  currentWater == 0 */\n      0xff\n      and\n      eq\n        /* \"contracts/EasyMode.sol\":3244:3278  currentWater == 0 && !plant.isDead */\n      dup1\n      iszero\n      tag_253\n      jumpi\n      pop\n        /* \"contracts/EasyMode.sol\":3266:3271  plant */\n      dup2\n        /* \"contracts/EasyMode.sol\":3266:3278  plant.isDead */\n      0xe0\n      add\n      mload\n        /* \"contracts/EasyMode.sol\":3265:3278  !plant.isDead */\n      iszero\n        /* \"contracts/EasyMode.sol\":3244:3278  currentWater == 0 && !plant.isDead */\n    tag_253:\n        /* \"contracts/EasyMode.sol\":3240:3360  if (currentWater == 0 && !plant.isDead){... */\n      iszero\n      tag_254\n      jumpi\n        /* \"contracts/EasyMode.sol\":3308:3312  true */\n      0x01\n        /* \"contracts/EasyMode.sol\":3293:3298  plant */\n      dup3\n        /* \"contracts/EasyMode.sol\":3293:3305  plant.isDead */\n      0xe0\n      add\n        /* \"contracts/EasyMode.sol\":3293:3312  plant.isDead = true */\n      swap1\n      iszero\n      iszero\n      swap1\n      dup2\n      iszero\n      iszero\n      dup2\n      mstore\n      pop\n      pop\n        /* \"contracts/EasyMode.sol\":3341:3348  plantId */\n      dup3\n        /* \"contracts/EasyMode.sol\":3331:3349  PlantDied(plantId) */\n      0xcc296a21951f3e57f21afb08547d835a0a9f0f06cc2867009cbe0cae44d36be9\n      mload(0x40)\n      mload(0x40)\n      dup1\n      swap2\n      sub\n      swap1\n      log2\n        /* \"contracts/EasyMode.sol\":3240:3360  if (currentWater == 0 && !plant.isDead){... */\n    tag_254:\n        /* \"contracts/EasyMode.sol\":3073:3366  {... */\n      pop\n      pop\n        /* \"contracts/EasyMode.sol\":3021:3366  function updateWaterLevel(uint256 plantId) internal {... */\n      pop\n      jump\t// out\n    tag_240:\n      mload(0x40)\n      dup1\n      0x0100\n      add\n      0x40\n      mstore\n      dup1\n      0x00\n      dup2\n      mstore\n      0x20\n      add\n      and(0xffffffffffffffffffffffffffffffffffffffff, 0x00)\n      dup2\n      mstore\n      0x20\n      add\n      0x00\n      0x03\n      dup2\n      gt\n      iszero\n      tag_255\n      jumpi\n      tag_256\n      tag_134\n      jump\t// in\n    tag_256:\n    tag_255:\n      dup2\n      mstore\n      0x20\n      add\n      0x00\n      dup2\n      mstore\n      0x20\n      add\n      0x00\n      dup2\n      mstore\n      0x20\n      add\n      and(0xff, 0x00)\n      dup2\n      mstore\n      0x20\n      add\n      iszero(iszero(0x00))\n      dup2\n      mstore\n      0x20\n      add\n      iszero(iszero(0x00))\n      dup2\n      mstore\n      pop\n      swap1\n      jump\t// out\n        /* \"#utility.yul\":7:84   */\n    tag_257:\n        /* \"#utility.yul\":44:51   */\n      0x00\n        /* \"#utility.yul\":73:78   */\n      dup2\n        /* \"#utility.yul\":62:78   */\n      swap1\n      pop\n        /* \"#utility.yul\":7:84   */\n      swap2\n      swap1\n      pop\n      jump\t// out\n        /* \"#utility.yul\":90:208   */\n    tag_258:\n        /* \"#utility.yul\":177:201   */\n      tag_316\n        /* \"#utility.yul\":195:200   */\n      dup2\n        /* \"#utility.yul\":177:201   */\n      tag_257\n      jump\t// in\n    tag_316:\n        /* \"#utility.yul\":172:175   */\n      dup3\n        /* \"#utility.yul\":165:202   */\n      mstore\n        /* \"#utility.yul\":90:208   */\n      pop\n      pop\n      jump\t// out\n        /* \"#utility.yul\":214:436   */\n    tag_30:\n        /* \"#utility.yul\":307:311   */\n      0x00\n        /* \"#utility.yul\":345:347   */\n      0x20\n        /* \"#utility.yul\":334:343   */\n      dup3\n        /* \"#utility.yul\":330:348   */\n      add\n        /* \"#utility.yul\":322:348   */\n      swap1\n      pop\n        /* \"#utility.yul\":358:429   */\n      tag_318\n        /* \"#utility.yul\":426:427   */\n      0x00\n        /* \"#utility.yul\":415:424   */\n      dup4\n        /* \"#utility.yul\":411:428   */\n      add\n        /* \"#utility.yul\":402:408   */\n      dup5\n        /* \"#utility.yul\":358:429   */\n      tag_258\n      jump\t// in\n    tag_318:\n        /* \"#utility.yul\":214:436   */\n      swap3\n      swap2\n      pop\n      pop\n      jump\t// out\n        /* \"#utility.yul\":523:640   */\n    tag_260:\n        /* \"#utility.yul\":632:633   */\n      0x00\n        /* \"#utility.yul\":629:630   */\n      0x00\n        /* \"#utility.yul\":622:634   */\n      revert\n        /* \"#utility.yul\":769:895   */\n    tag_262:\n        /* \"#utility.yul\":806:813   */\n      0x00\n        /* \"#utility.yul\":846:888   */\n      0xffffffffffffffffffffffffffffffffffffffff\n        /* \"#utility.yul\":839:844   */\n      dup3\n        /* \"#utility.yul\":835:889   */\n      and\n        /* \"#utility.yul\":824:889   */\n      swap1\n      pop\n        /* \"#utility.yul\":769:895   */\n      swap2\n      swap1\n      pop\n      jump\t// out\n        /* \"#utility.yul\":901:997   */\n    tag_263:\n        /* \"#utility.yul\":938:945   */\n      0x00\n        /* \"#utility.yul\":967:991   */\n      tag_324\n        /* \"#utility.yul\":985:990   */\n      dup3\n        /* \"#utility.yul\":967:991   */\n      tag_262\n      jump\t// in\n    tag_324:\n        /* \"#utility.yul\":956:991   */\n      swap1\n      pop\n        /* \"#utility.yul\":901:997   */\n      swap2\n      swap1\n      pop\n      jump\t// out\n        /* \"#utility.yul\":1003:1125   */\n    tag_264:\n        /* \"#utility.yul\":1076:1100   */\n      tag_326\n        /* \"#utility.yul\":1094:1099   */\n      dup2\n        /* \"#utility.yul\":1076:1100   */\n      tag_263\n      jump\t// in\n    tag_326:\n        /* \"#utility.yul\":1069:1074   */\n      dup2\n        /* \"#utility.yul\":1066:1101   */\n      eq\n        /* \"#utility.yul\":1056:1119   */\n      tag_327\n      jumpi\n        /* \"#utility.yul\":1115:1116   */\n      0x00\n        /* \"#utility.yul\":1112:1113   */\n      0x00\n        /* \"#utility.yul\":1105:1117   */\n      revert\n        /* \"#utility.yul\":1056:1119   */\n    tag_327:\n        /* \"#utility.yul\":1003:1125   */\n      pop\n      jump\t// out\n        /* \"#utility.yul\":1131:1270   */\n    tag_265:\n        /* \"#utility.yul\":1177:1182   */\n      0x00\n        /* \"#utility.yul\":1215:1221   */\n      dup2\n        /* \"#utility.yul\":1202:1222   */\n      calldataload\n        /* \"#utility.yul\":1193:1222   */\n      swap1\n      pop\n        /* \"#utility.yul\":1231:1264   */\n      tag_329\n        /* \"#utility.yul\":1258:1263   */\n      dup2\n        /* \"#utility.yul\":1231:1264   */\n      tag_264\n      jump\t// in\n    tag_329:\n        /* \"#utility.yul\":1131:1270   */\n      swap3\n      swap2\n      pop\n      pop\n      jump\t// out\n        /* \"#utility.yul\":1276:1605   */\n    tag_34:\n        /* \"#utility.yul\":1335:1341   */\n      0x00\n        /* \"#utility.yul\":1384:1386   */\n      0x20\n        /* \"#utility.yul\":1372:1381   */\n      dup3\n        /* \"#utility.yul\":1363:1370   */\n      dup5\n        /* \"#utility.yul\":1359:1382   */\n      sub\n        /* \"#utility.yul\":1355:1387   */\n      slt\n        /* \"#utility.yul\":1352:1471   */\n      iszero\n      tag_331\n      jumpi\n        /* \"#utility.yul\":1390:1469   */\n      tag_332\n      tag_260\n      jump\t// in\n    tag_332:\n        /* \"#utility.yul\":1352:1471   */\n    tag_331:\n        /* \"#utility.yul\":1510:1511   */\n      0x00\n        /* \"#utility.yul\":1535:1588   */\n      tag_333\n        /* \"#utility.yul\":1580:1587   */\n      dup5\n        /* \"#utility.yul\":1571:1577   */\n      dup3\n        /* \"#utility.yul\":1560:1569   */\n      dup6\n        /* \"#utility.yul\":1556:1578   */\n      add\n        /* \"#utility.yul\":1535:1588   */\n      tag_265\n      jump\t// in\n    tag_333:\n        /* \"#utility.yul\":1525:1588   */\n      swap2\n      pop\n        /* \"#utility.yul\":1481:1598   */\n      pop\n        /* \"#utility.yul\":1276:1605   */\n      swap3\n      swap2\n      pop\n      pop\n      jump\t// out\n        /* \"#utility.yul\":1611:1725   */\n    tag_266:\n        /* \"#utility.yul\":1678:1684   */\n      0x00\n        /* \"#utility.yul\":1712:1717   */\n      dup2\n        /* \"#utility.yul\":1706:1718   */\n      mload\n        /* \"#utility.yul\":1696:1718   */\n      swap1\n      pop\n        /* \"#utility.yul\":1611:1725   */\n      swap2\n      swap1\n      pop\n      jump\t// out\n        /* \"#utility.yul\":1731:1915   */\n    tag_267:\n        /* \"#utility.yul\":1830:1841   */\n      0x00\n        /* \"#utility.yul\":1864:1870   */\n      dup3\n        /* \"#utility.yul\":1859:1862   */\n      dup3\n        /* \"#utility.yul\":1852:1871   */\n      mstore\n        /* \"#utility.yul\":1904:1908   */\n      0x20\n        /* \"#utility.yul\":1899:1902   */\n      dup3\n        /* \"#utility.yul\":1895:1909   */\n      add\n        /* \"#utility.yul\":1880:1909   */\n      swap1\n      pop\n        /* \"#utility.yul\":1731:1915   */\n      swap3\n      swap2\n      pop\n      pop\n      jump\t// out\n        /* \"#utility.yul\":1921:2053   */\n    tag_268:\n        /* \"#utility.yul\":1988:1992   */\n      0x00\n        /* \"#utility.yul\":2011:2014   */\n      dup2\n        /* \"#utility.yul\":2003:2014   */\n      swap1\n      pop\n        /* \"#utility.yul\":2041:2045   */\n      0x20\n        /* \"#utility.yul\":2036:2039   */\n      dup3\n        /* \"#utility.yul\":2032:2046   */\n      add\n        /* \"#utility.yul\":2024:2046   */\n      swap1\n      pop\n        /* \"#utility.yul\":1921:2053   */\n      swap2\n      swap1\n      pop\n      jump\t// out\n        /* \"#utility.yul\":2059:2167   */\n    tag_269:\n        /* \"#utility.yul\":2136:2160   */\n      tag_338\n        /* \"#utility.yul\":2154:2159   */\n      dup2\n        /* \"#utility.yul\":2136:2160   */\n      tag_257\n      jump\t// in\n    tag_338:\n        /* \"#utility.yul\":2131:2134   */\n      dup3\n        /* \"#utility.yul\":2124:2161   */\n      mstore\n        /* \"#utility.yul\":2059:2167   */\n      pop\n      pop\n      jump\t// out\n        /* \"#utility.yul\":2173:2352   */\n    tag_270:\n        /* \"#utility.yul\":2242:2252   */\n      0x00\n        /* \"#utility.yul\":2263:2309   */\n      tag_340\n        /* \"#utility.yul\":2305:2308   */\n      dup4\n        /* \"#utility.yul\":2297:2303   */\n      dup4\n        /* \"#utility.yul\":2263:2309   */\n      tag_269\n      jump\t// in\n    tag_340:\n        /* \"#utility.yul\":2341:2345   */\n      0x20\n        /* \"#utility.yul\":2336:2339   */\n      dup4\n        /* \"#utility.yul\":2332:2346   */\n      add\n        /* \"#utility.yul\":2318:2346   */\n      swap1\n      pop\n        /* \"#utility.yul\":2173:2352   */\n      swap3\n      swap2\n      pop\n      pop\n      jump\t// out\n        /* \"#utility.yul\":2358:2471   */\n    tag_271:\n        /* \"#utility.yul\":2428:2432   */\n      0x00\n        /* \"#utility.yul\":2460:2464   */\n      0x20\n        /* \"#utility.yul\":2455:2458   */\n      dup3\n        /* \"#utility.yul\":2451:2465   */\n      add\n        /* \"#utility.yul\":2443:2465   */\n      swap1\n      pop\n        /* \"#utility.yul\":2358:2471   */\n      swap2\n      swap1\n      pop\n      jump\t// out\n        /* \"#utility.yul\":2507:3239   */\n    tag_272:\n        /* \"#utility.yul\":2626:2629   */\n      0x00\n        /* \"#utility.yul\":2655:2709   */\n      tag_343\n        /* \"#utility.yul\":2703:2708   */\n      dup3\n        /* \"#utility.yul\":2655:2709   */\n      tag_266\n      jump\t// in\n    tag_343:\n        /* \"#utility.yul\":2725:2811   */\n      tag_344\n        /* \"#utility.yul\":2804:2810   */\n      dup2\n        /* \"#utility.yul\":2799:2802   */\n      dup6\n        /* \"#utility.yul\":2725:2811   */\n      tag_267\n      jump\t// in\n    tag_344:\n        /* \"#utility.yul\":2718:2811   */\n      swap4\n      pop\n        /* \"#utility.yul\":2835:2891   */\n      tag_345\n        /* \"#utility.yul\":2885:2890   */\n      dup4\n        /* \"#utility.yul\":2835:2891   */\n      tag_268\n      jump\t// in\n    tag_345:\n        /* \"#utility.yul\":2914:2921   */\n      dup1\n        /* \"#utility.yul\":2945:2946   */\n      0x00\n        /* \"#utility.yul\":2930:3214   */\n    tag_346:\n        /* \"#utility.yul\":2955:2961   */\n      dup4\n        /* \"#utility.yul\":2952:2953   */\n      dup2\n        /* \"#utility.yul\":2949:2962   */\n      lt\n        /* \"#utility.yul\":2930:3214   */\n      iszero\n      tag_348\n      jumpi\n        /* \"#utility.yul\":3031:3037   */\n      dup2\n        /* \"#utility.yul\":3025:3038   */\n      mload\n        /* \"#utility.yul\":3058:3121   */\n      tag_349\n        /* \"#utility.yul\":3117:3120   */\n      dup9\n        /* \"#utility.yul\":3102:3115   */\n      dup3\n        /* \"#utility.yul\":3058:3121   */\n      tag_270\n      jump\t// in\n    tag_349:\n        /* \"#utility.yul\":3051:3121   */\n      swap8\n      pop\n        /* \"#utility.yul\":3144:3204   */\n      tag_350\n        /* \"#utility.yul\":3197:3203   */\n      dup4\n        /* \"#utility.yul\":3144:3204   */\n      tag_271\n      jump\t// in\n    tag_350:\n        /* \"#utility.yul\":3134:3204   */\n      swap3\n      pop\n        /* \"#utility.yul\":2990:3214   */\n      pop\n        /* \"#utility.yul\":2977:2978   */\n      0x01\n        /* \"#utility.yul\":2974:2975   */\n      dup2\n        /* \"#utility.yul\":2970:2979   */\n      add\n        /* \"#utility.yul\":2965:2979   */\n      swap1\n      pop\n        /* \"#utility.yul\":2930:3214   */\n      jump(tag_346)\n    tag_348:\n        /* \"#utility.yul\":2934:2948   */\n      pop\n        /* \"#utility.yul\":3230:3233   */\n      dup6\n        /* \"#utility.yul\":3223:3233   */\n      swap4\n      pop\n        /* \"#utility.yul\":2631:3239   */\n      pop\n      pop\n      pop\n        /* \"#utility.yul\":2507:3239   */\n      swap3\n      swap2\n      pop\n      pop\n      jump\t// out\n        /* \"#utility.yul\":3245:3618   */\n    tag_37:\n        /* \"#utility.yul\":3388:3392   */\n      0x00\n        /* \"#utility.yul\":3426:3428   */\n      0x20\n        /* \"#utility.yul\":3415:3424   */\n      dup3\n        /* \"#utility.yul\":3411:3429   */\n      add\n        /* \"#utility.yul\":3403:3429   */\n      swap1\n      pop\n        /* \"#utility.yul\":3475:3484   */\n      dup2\n        /* \"#utility.yul\":3469:3473   */\n      dup2\n        /* \"#utility.yul\":3465:3485   */\n      sub\n        /* \"#utility.yul\":3461:3462   */\n      0x00\n        /* \"#utility.yul\":3450:3459   */\n      dup4\n        /* \"#utility.yul\":3446:3463   */\n      add\n        /* \"#utility.yul\":3439:3486   */\n      mstore\n        /* \"#utility.yul\":3503:3611   */\n      tag_352\n        /* \"#utility.yul\":3606:3610   */\n      dup2\n        /* \"#utility.yul\":3597:3603   */\n      dup5\n        /* \"#utility.yul\":3503:3611   */\n      tag_272\n      jump\t// in\n    tag_352:\n        /* \"#utility.yul\":3495:3611   */\n      swap1\n      pop\n        /* \"#utility.yul\":3245:3618   */\n      swap3\n      swap2\n      pop\n      pop\n      jump\t// out\n        /* \"#utility.yul\":3624:3742   */\n    tag_273:\n        /* \"#utility.yul\":3711:3735   */\n      tag_354\n        /* \"#utility.yul\":3729:3734   */\n      dup2\n        /* \"#utility.yul\":3711:3735   */\n      tag_263\n      jump\t// in\n    tag_354:\n        /* \"#utility.yul\":3706:3709   */\n      dup3\n        /* \"#utility.yul\":3699:3736   */\n      mstore\n        /* \"#utility.yul\":3624:3742   */\n      pop\n      pop\n      jump\t// out\n        /* \"#utility.yul\":3748:3928   */\n    tag_134:\n        /* \"#utility.yul\":3796:3873   */\n      0x4e487b7100000000000000000000000000000000000000000000000000000000\n        /* \"#utility.yul\":3793:3794   */\n      0x00\n        /* \"#utility.yul\":3786:3874   */\n      mstore\n        /* \"#utility.yul\":3893:3897   */\n      0x21\n        /* \"#utility.yul\":3890:3891   */\n      0x04\n        /* \"#utility.yul\":3883:3898   */\n      mstore\n        /* \"#utility.yul\":3917:3921   */\n      0x24\n        /* \"#utility.yul\":3914:3915   */\n      0x00\n        /* \"#utility.yul\":3907:3922   */\n      revert\n        /* \"#utility.yul\":3934:4052   */\n    tag_274:\n        /* \"#utility.yul\":4020:4021   */\n      0x04\n        /* \"#utility.yul\":4013:4018   */\n      dup2\n        /* \"#utility.yul\":4010:4022   */\n      lt\n        /* \"#utility.yul\":4000:4046   */\n      tag_357\n      jumpi\n        /* \"#utility.yul\":4026:4044   */\n      tag_358\n      tag_134\n      jump\t// in\n    tag_358:\n        /* \"#utility.yul\":4000:4046   */\n    tag_357:\n        /* \"#utility.yul\":3934:4052   */\n      pop\n      jump\t// out\n        /* \"#utility.yul\":4058:4195   */\n    tag_275:\n        /* \"#utility.yul\":4108:4115   */\n      0x00\n        /* \"#utility.yul\":4137:4142   */\n      dup2\n        /* \"#utility.yul\":4126:4142   */\n      swap1\n      pop\n        /* \"#utility.yul\":4143:4189   */\n      tag_360\n        /* \"#utility.yul\":4183:4188   */\n      dup3\n        /* \"#utility.yul\":4143:4189   */\n      tag_274\n      jump\t// in\n    tag_360:\n        /* \"#utility.yul\":4058:4195   */\n      swap2\n      swap1\n      pop\n      jump\t// out\n        /* \"#utility.yul\":4201:4338   */\n    tag_276:\n        /* \"#utility.yul\":4262:4271   */\n      0x00\n        /* \"#utility.yul\":4295:4332   */\n      tag_362\n        /* \"#utility.yul\":4326:4331   */\n      dup3\n        /* \"#utility.yul\":4295:4332   */\n      tag_275\n      jump\t// in\n    tag_362:\n        /* \"#utility.yul\":4282:4332   */\n      swap1\n      pop\n        /* \"#utility.yul\":4201:4338   */\n      swap2\n      swap1\n      pop\n      jump\t// out\n        /* \"#utility.yul\":4344:4497   */\n    tag_277:\n        /* \"#utility.yul\":4442:4490   */\n      tag_364\n        /* \"#utility.yul\":4484:4489   */\n      dup2\n        /* \"#utility.yul\":4442:4490   */\n      tag_276\n      jump\t// in\n    tag_364:\n        /* \"#utility.yul\":4437:4440   */\n      dup3\n        /* \"#utility.yul\":4430:4491   */\n      mstore\n        /* \"#utility.yul\":4344:4497   */\n      pop\n      pop\n      jump\t// out\n        /* \"#utility.yul\":4503:4589   */\n    tag_278:\n        /* \"#utility.yul\":4538:4545   */\n      0x00\n        /* \"#utility.yul\":4578:4582   */\n      0xff\n        /* \"#utility.yul\":4571:4576   */\n      dup3\n        /* \"#utility.yul\":4567:4583   */\n      and\n        /* \"#utility.yul\":4556:4583   */\n      swap1\n      pop\n        /* \"#utility.yul\":4503:4589   */\n      swap2\n      swap1\n      pop\n      jump\t// out\n        /* \"#utility.yul\":4595:4707   */\n    tag_279:\n        /* \"#utility.yul\":4678:4700   */\n      tag_367\n        /* \"#utility.yul\":4694:4699   */\n      dup2\n        /* \"#utility.yul\":4678:4700   */\n      tag_278\n      jump\t// in\n    tag_367:\n        /* \"#utility.yul\":4673:4676   */\n      dup3\n        /* \"#utility.yul\":4666:4701   */\n      mstore\n        /* \"#utility.yul\":4595:4707   */\n      pop\n      pop\n      jump\t// out\n        /* \"#utility.yul\":4713:4803   */\n    tag_280:\n        /* \"#utility.yul\":4747:4754   */\n      0x00\n        /* \"#utility.yul\":4790:4795   */\n      dup2\n        /* \"#utility.yul\":4783:4796   */\n      iszero\n        /* \"#utility.yul\":4776:4797   */\n      iszero\n        /* \"#utility.yul\":4765:4797   */\n      swap1\n      pop\n        /* \"#utility.yul\":4713:4803   */\n      swap2\n      swap1\n      pop\n      jump\t// out\n        /* \"#utility.yul\":4809:4918   */\n    tag_281:\n        /* \"#utility.yul\":4890:4911   */\n      tag_370\n        /* \"#utility.yul\":4905:4910   */\n      dup2\n        /* \"#utility.yul\":4890:4911   */\n      tag_280\n      jump\t// in\n    tag_370:\n        /* \"#utility.yul\":4885:4888   */\n      dup3\n        /* \"#utility.yul\":4878:4912   */\n      mstore\n        /* \"#utility.yul\":4809:4918   */\n      pop\n      pop\n      jump\t// out\n        /* \"#utility.yul\":4924:5911   */\n    tag_42:\n        /* \"#utility.yul\":5208:5212   */\n      0x00\n        /* \"#utility.yul\":5246:5249   */\n      0x0100\n        /* \"#utility.yul\":5235:5244   */\n      dup3\n        /* \"#utility.yul\":5231:5250   */\n      add\n        /* \"#utility.yul\":5223:5250   */\n      swap1\n      pop\n        /* \"#utility.yul\":5260:5331   */\n      tag_372\n        /* \"#utility.yul\":5328:5329   */\n      0x00\n        /* \"#utility.yul\":5317:5326   */\n      dup4\n        /* \"#utility.yul\":5313:5330   */\n      add\n        /* \"#utility.yul\":5304:5310   */\n      dup12\n        /* \"#utility.yul\":5260:5331   */\n      tag_258\n      jump\t// in\n    tag_372:\n        /* \"#utility.yul\":5341:5413   */\n      tag_373\n        /* \"#utility.yul\":5409:5411   */\n      0x20\n        /* \"#utility.yul\":5398:5407   */\n      dup4\n        /* \"#utility.yul\":5394:5412   */\n      add\n        /* \"#utility.yul\":5385:5391   */\n      dup11\n        /* \"#utility.yul\":5341:5413   */\n      tag_273\n      jump\t// in\n    tag_373:\n        /* \"#utility.yul\":5423:5506   */\n      tag_374\n        /* \"#utility.yul\":5502:5504   */\n      0x40\n        /* \"#utility.yul\":5491:5500   */\n      dup4\n        /* \"#utility.yul\":5487:5505   */\n      add\n        /* \"#utility.yul\":5478:5484   */\n      dup10\n        /* \"#utility.yul\":5423:5506   */\n      tag_277\n      jump\t// in\n    tag_374:\n        /* \"#utility.yul\":5516:5588   */\n      tag_375\n        /* \"#utility.yul\":5584:5586   */\n      0x60\n        /* \"#utility.yul\":5573:5582   */\n      dup4\n        /* \"#utility.yul\":5569:5587   */\n      add\n        /* \"#utility.yul\":5560:5566   */\n      dup9\n        /* \"#utility.yul\":5516:5588   */\n      tag_258\n      jump\t// in\n    tag_375:\n        /* \"#utility.yul\":5598:5671   */\n      tag_376\n        /* \"#utility.yul\":5666:5669   */\n      0x80\n        /* \"#utility.yul\":5655:5664   */\n      dup4\n        /* \"#utility.yul\":5651:5670   */\n      add\n        /* \"#utility.yul\":5642:5648   */\n      dup8\n        /* \"#utility.yul\":5598:5671   */\n      tag_258\n      jump\t// in\n    tag_376:\n        /* \"#utility.yul\":5681:5750   */\n      tag_377\n        /* \"#utility.yul\":5745:5748   */\n      0xa0\n        /* \"#utility.yul\":5734:5743   */\n      dup4\n        /* \"#utility.yul\":5730:5749   */\n      add\n        /* \"#utility.yul\":5721:5727   */\n      dup7\n        /* \"#utility.yul\":5681:5750   */\n      tag_279\n      jump\t// in\n    tag_377:\n        /* \"#utility.yul\":5760:5827   */\n      tag_378\n        /* \"#utility.yul\":5822:5825   */\n      0xc0\n        /* \"#utility.yul\":5811:5820   */\n      dup4\n        /* \"#utility.yul\":5807:5826   */\n      add\n        /* \"#utility.yul\":5798:5804   */\n      dup6\n        /* \"#utility.yul\":5760:5827   */\n      tag_281\n      jump\t// in\n    tag_378:\n        /* \"#utility.yul\":5837:5904   */\n      tag_379\n        /* \"#utility.yul\":5899:5902   */\n      0xe0\n        /* \"#utility.yul\":5888:5897   */\n      dup4\n        /* \"#utility.yul\":5884:5903   */\n      add\n        /* \"#utility.yul\":5875:5881   */\n      dup5\n        /* \"#utility.yul\":5837:5904   */\n      tag_281\n      jump\t// in\n    tag_379:\n        /* \"#utility.yul\":4924:5911   */\n      swap10\n      swap9\n      pop\n      pop\n      pop\n      pop\n      pop\n      pop\n      pop\n      pop\n      pop\n      jump\t// out\n        /* \"#utility.yul\":5917:6039   */\n    tag_282:\n        /* \"#utility.yul\":5990:6014   */\n      tag_381\n        /* \"#utility.yul\":6008:6013   */\n      dup2\n        /* \"#utility.yul\":5990:6014   */\n      tag_257\n      jump\t// in\n    tag_381:\n        /* \"#utility.yul\":5983:5988   */\n      dup2\n        /* \"#utility.yul\":5980:6015   */\n      eq\n        /* \"#utility.yul\":5970:6033   */\n      tag_382\n      jumpi\n        /* \"#utility.yul\":6029:6030   */\n      0x00\n        /* \"#utility.yul\":6026:6027   */\n      0x00\n        /* \"#utility.yul\":6019:6031   */\n      revert\n        /* \"#utility.yul\":5970:6033   */\n    tag_382:\n        /* \"#utility.yul\":5917:6039   */\n      pop\n      jump\t// out\n        /* \"#utility.yul\":6045:6184   */\n    tag_283:\n        /* \"#utility.yul\":6091:6096   */\n      0x00\n        /* \"#utility.yul\":6129:6135   */\n      dup2\n        /* \"#utility.yul\":6116:6136   */\n      calldataload\n        /* \"#utility.yul\":6107:6136   */\n      swap1\n      pop\n        /* \"#utility.yul\":6145:6178   */\n      tag_384\n        /* \"#utility.yul\":6172:6177   */\n      dup2\n        /* \"#utility.yul\":6145:6178   */\n      tag_282\n      jump\t// in\n    tag_384:\n        /* \"#utility.yul\":6045:6184   */\n      swap3\n      swap2\n      pop\n      pop\n      jump\t// out\n        /* \"#utility.yul\":6190:6519   */\n    tag_56:\n        /* \"#utility.yul\":6249:6255   */\n      0x00\n        /* \"#utility.yul\":6298:6300   */\n      0x20\n        /* \"#utility.yul\":6286:6295   */\n      dup3\n        /* \"#utility.yul\":6277:6284   */\n      dup5\n        /* \"#utility.yul\":6273:6296   */\n      sub\n        /* \"#utility.yul\":6269:6301   */\n      slt\n        /* \"#utility.yul\":6266:6385   */\n      iszero\n      tag_386\n      jumpi\n        /* \"#utility.yul\":6304:6383   */\n      tag_387\n      tag_260\n      jump\t// in\n    tag_387:\n        /* \"#utility.yul\":6266:6385   */\n    tag_386:\n        /* \"#utility.yul\":6424:6425   */\n      0x00\n        /* \"#utility.yul\":6449:6502   */\n      tag_388\n        /* \"#utility.yul\":6494:6501   */\n      dup5\n        /* \"#utility.yul\":6485:6491   */\n      dup3\n        /* \"#utility.yul\":6474:6483   */\n      dup6\n        /* \"#utility.yul\":6470:6492   */\n      add\n        /* \"#utility.yul\":6449:6502   */\n      tag_283\n      jump\t// in\n    tag_388:\n        /* \"#utility.yul\":6439:6502   */\n      swap2\n      pop\n        /* \"#utility.yul\":6395:6512   */\n      pop\n        /* \"#utility.yul\":6190:6519   */\n      swap3\n      swap2\n      pop\n      pop\n      jump\t// out\n        /* \"#utility.yul\":6525:6739   */\n    tag_59:\n        /* \"#utility.yul\":6614:6618   */\n      0x00\n        /* \"#utility.yul\":6652:6654   */\n      0x20\n        /* \"#utility.yul\":6641:6650   */\n      dup3\n        /* \"#utility.yul\":6637:6655   */\n      add\n        /* \"#utility.yul\":6629:6655   */\n      swap1\n      pop\n        /* \"#utility.yul\":6665:6732   */\n      tag_390\n        /* \"#utility.yul\":6729:6730   */\n      0x00\n        /* \"#utility.yul\":6718:6727   */\n      dup4\n        /* \"#utility.yul\":6714:6731   */\n      add\n        /* \"#utility.yul\":6705:6711   */\n      dup5\n        /* \"#utility.yul\":6665:6732   */\n      tag_279\n      jump\t// in\n    tag_390:\n        /* \"#utility.yul\":6525:6739   */\n      swap3\n      swap2\n      pop\n      pop\n      jump\t// out\n        /* \"#utility.yul\":6745:7219   */\n    tag_67:\n        /* \"#utility.yul\":6813:6819   */\n      0x00\n        /* \"#utility.yul\":6821:6827   */\n      0x00\n        /* \"#utility.yul\":6870:6872   */\n      0x40\n        /* \"#utility.yul\":6858:6867   */\n      dup4\n        /* \"#utility.yul\":6849:6856   */\n      dup6\n        /* \"#utility.yul\":6845:6868   */\n      sub\n        /* \"#utility.yul\":6841:6873   */\n      slt\n        /* \"#utility.yul\":6838:6957   */\n      iszero\n      tag_392\n      jumpi\n        /* \"#utility.yul\":6876:6955   */\n      tag_393\n      tag_260\n      jump\t// in\n    tag_393:\n        /* \"#utility.yul\":6838:6957   */\n    tag_392:\n        /* \"#utility.yul\":6996:6997   */\n      0x00\n        /* \"#utility.yul\":7021:7074   */\n      tag_394\n        /* \"#utility.yul\":7066:7073   */\n      dup6\n        /* \"#utility.yul\":7057:7063   */\n      dup3\n        /* \"#utility.yul\":7046:7055   */\n      dup7\n        /* \"#utility.yul\":7042:7064   */\n      add\n        /* \"#utility.yul\":7021:7074   */\n      tag_265\n      jump\t// in\n    tag_394:\n        /* \"#utility.yul\":7011:7074   */\n      swap3\n      pop\n        /* \"#utility.yul\":6967:7084   */\n      pop\n        /* \"#utility.yul\":7123:7125   */\n      0x20\n        /* \"#utility.yul\":7149:7202   */\n      tag_395\n        /* \"#utility.yul\":7194:7201   */\n      dup6\n        /* \"#utility.yul\":7185:7191   */\n      dup3\n        /* \"#utility.yul\":7174:7183   */\n      dup7\n        /* \"#utility.yul\":7170:7192   */\n      add\n        /* \"#utility.yul\":7149:7202   */\n      tag_283\n      jump\t// in\n    tag_395:\n        /* \"#utility.yul\":7139:7202   */\n      swap2\n      pop\n        /* \"#utility.yul\":7094:7212   */\n      pop\n        /* \"#utility.yul\":6745:7219   */\n      swap3\n      pop\n      swap3\n      swap1\n      pop\n      jump\t// out\n        /* \"#utility.yul\":7225:7447   */\n    tag_74:\n        /* \"#utility.yul\":7318:7322   */\n      0x00\n        /* \"#utility.yul\":7356:7358   */\n      0x20\n        /* \"#utility.yul\":7345:7354   */\n      dup3\n        /* \"#utility.yul\":7341:7359   */\n      add\n        /* \"#utility.yul\":7333:7359   */\n      swap1\n      pop\n        /* \"#utility.yul\":7369:7440   */\n      tag_397\n        /* \"#utility.yul\":7437:7438   */\n      0x00\n        /* \"#utility.yul\":7426:7435   */\n      dup4\n        /* \"#utility.yul\":7422:7439   */\n      add\n        /* \"#utility.yul\":7413:7419   */\n      dup5\n        /* \"#utility.yul\":7369:7440   */\n      tag_273\n      jump\t// in\n    tag_397:\n        /* \"#utility.yul\":7225:7447   */\n      swap3\n      swap2\n      pop\n      pop\n      jump\t// out\n        /* \"#utility.yul\":7453:7561   */\n    tag_284:\n        /* \"#utility.yul\":7530:7554   */\n      tag_399\n        /* \"#utility.yul\":7548:7553   */\n      dup2\n        /* \"#utility.yul\":7530:7554   */\n      tag_263\n      jump\t// in\n    tag_399:\n        /* \"#utility.yul\":7525:7528   */\n      dup3\n        /* \"#utility.yul\":7518:7555   */\n      mstore\n        /* \"#utility.yul\":7453:7561   */\n      pop\n      pop\n      jump\t// out\n        /* \"#utility.yul\":7567:7710   */\n    tag_285:\n        /* \"#utility.yul\":7655:7703   */\n      tag_401\n        /* \"#utility.yul\":7697:7702   */\n      dup2\n        /* \"#utility.yul\":7655:7703   */\n      tag_276\n      jump\t// in\n    tag_401:\n        /* \"#utility.yul\":7650:7653   */\n      dup3\n        /* \"#utility.yul\":7643:7704   */\n      mstore\n        /* \"#utility.yul\":7567:7710   */\n      pop\n      pop\n      jump\t// out\n        /* \"#utility.yul\":7716:7818   */\n    tag_286:\n        /* \"#utility.yul\":7789:7811   */\n      tag_403\n        /* \"#utility.yul\":7805:7810   */\n      dup2\n        /* \"#utility.yul\":7789:7811   */\n      tag_278\n      jump\t// in\n    tag_403:\n        /* \"#utility.yul\":7784:7787   */\n      dup3\n        /* \"#utility.yul\":7777:7812   */\n      mstore\n        /* \"#utility.yul\":7716:7818   */\n      pop\n      pop\n      jump\t// out\n        /* \"#utility.yul\":7824:7923   */\n    tag_287:\n        /* \"#utility.yul\":7895:7916   */\n      tag_405\n        /* \"#utility.yul\":7910:7915   */\n      dup2\n        /* \"#utility.yul\":7895:7916   */\n      tag_280\n      jump\t// in\n    tag_405:\n        /* \"#utility.yul\":7890:7893   */\n      dup3\n        /* \"#utility.yul\":7883:7917   */\n      mstore\n        /* \"#utility.yul\":7824:7923   */\n      pop\n      pop\n      jump\t// out\n        /* \"#utility.yul\":7995:9565   */\n    tag_288:\n        /* \"#utility.yul\":8134:8140   */\n      0x0100\n        /* \"#utility.yul\":8129:8132   */\n      dup3\n        /* \"#utility.yul\":8125:8141   */\n      add\n        /* \"#utility.yul\":8221:8225   */\n      0x00\n        /* \"#utility.yul\":8214:8219   */\n      dup3\n        /* \"#utility.yul\":8210:8226   */\n      add\n        /* \"#utility.yul\":8204:8227   */\n      mload\n        /* \"#utility.yul\":8240:8303   */\n      tag_407\n        /* \"#utility.yul\":8297:8301   */\n      0x00\n        /* \"#utility.yul\":8292:8295   */\n      dup6\n        /* \"#utility.yul\":8288:8302   */\n      add\n        /* \"#utility.yul\":8274:8286   */\n      dup3\n        /* \"#utility.yul\":8240:8303   */\n      tag_269\n      jump\t// in\n    tag_407:\n        /* \"#utility.yul\":8151:8313   */\n      pop\n        /* \"#utility.yul\":8396:8400   */\n      0x20\n        /* \"#utility.yul\":8389:8394   */\n      dup3\n        /* \"#utility.yul\":8385:8401   */\n      add\n        /* \"#utility.yul\":8379:8402   */\n      mload\n        /* \"#utility.yul\":8415:8478   */\n      tag_408\n        /* \"#utility.yul\":8472:8476   */\n      0x20\n        /* \"#utility.yul\":8467:8470   */\n      dup6\n        /* \"#utility.yul\":8463:8477   */\n      add\n        /* \"#utility.yul\":8449:8461   */\n      dup3\n        /* \"#utility.yul\":8415:8478   */\n      tag_284\n      jump\t// in\n    tag_408:\n        /* \"#utility.yul\":8323:8488   */\n      pop\n        /* \"#utility.yul\":8577:8581   */\n      0x40\n        /* \"#utility.yul\":8570:8575   */\n      dup3\n        /* \"#utility.yul\":8566:8582   */\n      add\n        /* \"#utility.yul\":8560:8583   */\n      mload\n        /* \"#utility.yul\":8596:8670   */\n      tag_409\n        /* \"#utility.yul\":8664:8668   */\n      0x40\n        /* \"#utility.yul\":8659:8662   */\n      dup6\n        /* \"#utility.yul\":8655:8669   */\n      add\n        /* \"#utility.yul\":8641:8653   */\n      dup3\n        /* \"#utility.yul\":8596:8670   */\n      tag_285\n      jump\t// in\n    tag_409:\n        /* \"#utility.yul\":8498:8680   */\n      pop\n        /* \"#utility.yul\":8769:8773   */\n      0x60\n        /* \"#utility.yul\":8762:8767   */\n      dup3\n        /* \"#utility.yul\":8758:8774   */\n      add\n        /* \"#utility.yul\":8752:8775   */\n      mload\n        /* \"#utility.yul\":8788:8851   */\n      tag_410\n        /* \"#utility.yul\":8845:8849   */\n      0x60\n        /* \"#utility.yul\":8840:8843   */\n      dup6\n        /* \"#utility.yul\":8836:8850   */\n      add\n        /* \"#utility.yul\":8822:8834   */\n      dup3\n        /* \"#utility.yul\":8788:8851   */\n      tag_269\n      jump\t// in\n    tag_410:\n        /* \"#utility.yul\":8690:8861   */\n      pop\n        /* \"#utility.yul\":8950:8954   */\n      0x80\n        /* \"#utility.yul\":8943:8948   */\n      dup3\n        /* \"#utility.yul\":8939:8955   */\n      add\n        /* \"#utility.yul\":8933:8956   */\n      mload\n        /* \"#utility.yul\":8969:9032   */\n      tag_411\n        /* \"#utility.yul\":9026:9030   */\n      0x80\n        /* \"#utility.yul\":9021:9024   */\n      dup6\n        /* \"#utility.yul\":9017:9031   */\n      add\n        /* \"#utility.yul\":9003:9015   */\n      dup3\n        /* \"#utility.yul\":8969:9032   */\n      tag_269\n      jump\t// in\n    tag_411:\n        /* \"#utility.yul\":8871:9042   */\n      pop\n        /* \"#utility.yul\":9130:9134   */\n      0xa0\n        /* \"#utility.yul\":9123:9128   */\n      dup3\n        /* \"#utility.yul\":9119:9135   */\n      add\n        /* \"#utility.yul\":9113:9136   */\n      mload\n        /* \"#utility.yul\":9149:9208   */\n      tag_412\n        /* \"#utility.yul\":9202:9206   */\n      0xa0\n        /* \"#utility.yul\":9197:9200   */\n      dup6\n        /* \"#utility.yul\":9193:9207   */\n      add\n        /* \"#utility.yul\":9179:9191   */\n      dup3\n        /* \"#utility.yul\":9149:9208   */\n      tag_286\n      jump\t// in\n    tag_412:\n        /* \"#utility.yul\":9052:9218   */\n      pop\n        /* \"#utility.yul\":9302:9306   */\n      0xc0\n        /* \"#utility.yul\":9295:9300   */\n      dup3\n        /* \"#utility.yul\":9291:9307   */\n      add\n        /* \"#utility.yul\":9285:9308   */\n      mload\n        /* \"#utility.yul\":9321:9378   */\n      tag_413\n        /* \"#utility.yul\":9372:9376   */\n      0xc0\n        /* \"#utility.yul\":9367:9370   */\n      dup6\n        /* \"#utility.yul\":9363:9377   */\n      add\n        /* \"#utility.yul\":9349:9361   */\n      dup3\n        /* \"#utility.yul\":9321:9378   */\n      tag_287\n      jump\t// in\n    tag_413:\n        /* \"#utility.yul\":9228:9388   */\n      pop\n        /* \"#utility.yul\":9472:9476   */\n      0xe0\n        /* \"#utility.yul\":9465:9470   */\n      dup3\n        /* \"#utility.yul\":9461:9477   */\n      add\n        /* \"#utility.yul\":9455:9478   */\n      mload\n        /* \"#utility.yul\":9491:9548   */\n      tag_414\n        /* \"#utility.yul\":9542:9546   */\n      0xe0\n        /* \"#utility.yul\":9537:9540   */\n      dup6\n        /* \"#utility.yul\":9533:9547   */\n      add\n        /* \"#utility.yul\":9519:9531   */\n      dup3\n        /* \"#utility.yul\":9491:9548   */\n      tag_287\n      jump\t// in\n    tag_414:\n        /* \"#utility.yul\":9398:9558   */\n      pop\n        /* \"#utility.yul\":8103:9565   */\n      pop\n        /* \"#utility.yul\":7995:9565   */\n      pop\n      pop\n      jump\t// out\n        /* \"#utility.yul\":9571:9878   */\n    tag_109:\n        /* \"#utility.yul\":9706:9710   */\n      0x00\n        /* \"#utility.yul\":9744:9747   */\n      0x0100\n        /* \"#utility.yul\":9733:9742   */\n      dup3\n        /* \"#utility.yul\":9729:9748   */\n      add\n        /* \"#utility.yul\":9721:9748   */\n      swap1\n      pop\n        /* \"#utility.yul\":9758:9871   */\n      tag_416\n        /* \"#utility.yul\":9868:9869   */\n      0x00\n        /* \"#utility.yul\":9857:9866   */\n      dup4\n        /* \"#utility.yul\":9853:9870   */\n      add\n        /* \"#utility.yul\":9844:9850   */\n      dup5\n        /* \"#utility.yul\":9758:9871   */\n      tag_288\n      jump\t// in\n    tag_416:\n        /* \"#utility.yul\":9571:9878   */\n      swap3\n      swap2\n      pop\n      pop\n      jump\t// out\n        /* \"#utility.yul\":9884:10053   */\n    tag_289:\n        /* \"#utility.yul\":9968:9979   */\n      0x00\n        /* \"#utility.yul\":10002:10008   */\n      dup3\n        /* \"#utility.yul\":9997:10000   */\n      dup3\n        /* \"#utility.yul\":9990:10009   */\n      mstore\n        /* \"#utility.yul\":10042:10046   */\n      0x20\n        /* \"#utility.yul\":10037:10040   */\n      dup3\n        /* \"#utility.yul\":10033:10047   */\n      add\n        /* \"#utility.yul\":10018:10047   */\n      swap1\n      pop\n        /* \"#utility.yul\":9884:10053   */\n      swap3\n      swap2\n      pop\n      pop\n      jump\t// out\n        /* \"#utility.yul\":10059:10220   */\n    tag_290:\n        /* \"#utility.yul\":10199:10212   */\n      0x42756b616e206f776e6572000000000000000000000000000000000000000000\n        /* \"#utility.yul\":10195:10196   */\n      0x00\n        /* \"#utility.yul\":10187:10193   */\n      dup3\n        /* \"#utility.yul\":10183:10197   */\n      add\n        /* \"#utility.yul\":10176:10213   */\n      mstore\n        /* \"#utility.yul\":10059:10220   */\n      pop\n      jump\t// out\n        /* \"#utility.yul\":10226:10592   */\n    tag_291:\n        /* \"#utility.yul\":10368:10371   */\n      0x00\n        /* \"#utility.yul\":10389:10456   */\n      tag_420\n        /* \"#utility.yul\":10453:10455   */\n      0x0b\n        /* \"#utility.yul\":10448:10451   */\n      dup4\n        /* \"#utility.yul\":10389:10456   */\n      tag_289\n      jump\t// in\n    tag_420:\n        /* \"#utility.yul\":10382:10456   */\n      swap2\n      pop\n        /* \"#utility.yul\":10465:10558   */\n      tag_421\n        /* \"#utility.yul\":10554:10557   */\n      dup3\n        /* \"#utility.yul\":10465:10558   */\n      tag_290\n      jump\t// in\n    tag_421:\n        /* \"#utility.yul\":10583:10585   */\n      0x20\n        /* \"#utility.yul\":10578:10581   */\n      dup3\n        /* \"#utility.yul\":10574:10586   */\n      add\n        /* \"#utility.yul\":10567:10586   */\n      swap1\n      pop\n        /* \"#utility.yul\":10226:10592   */\n      swap2\n      swap1\n      pop\n      jump\t// out\n        /* \"#utility.yul\":10598:11017   */\n    tag_116:\n        /* \"#utility.yul\":10764:10768   */\n      0x00\n        /* \"#utility.yul\":10802:10804   */\n      0x20\n        /* \"#utility.yul\":10791:10800   */\n      dup3\n        /* \"#utility.yul\":10787:10805   */\n      add\n        /* \"#utility.yul\":10779:10805   */\n      swap1\n      pop\n        /* \"#utility.yul\":10851:10860   */\n      dup2\n        /* \"#utility.yul\":10845:10849   */\n      dup2\n        /* \"#utility.yul\":10841:10861   */\n      sub\n        /* \"#utility.yul\":10837:10838   */\n      0x00\n        /* \"#utility.yul\":10826:10835   */\n      dup4\n        /* \"#utility.yul\":10822:10839   */\n      add\n        /* \"#utility.yul\":10815:10862   */\n      mstore\n        /* \"#utility.yul\":10879:11010   */\n      tag_423\n        /* \"#utility.yul\":11005:11009   */\n      dup2\n        /* \"#utility.yul\":10879:11010   */\n      tag_291\n      jump\t// in\n    tag_423:\n        /* \"#utility.yul\":10871:11010   */\n      swap1\n      pop\n        /* \"#utility.yul\":10598:11017   */\n      swap2\n      swap1\n      pop\n      jump\t// out\n        /* \"#utility.yul\":11023:11170   */\n    tag_292:\n        /* \"#utility.yul\":11124:11135   */\n      0x00\n        /* \"#utility.yul\":11161:11164   */\n      dup2\n        /* \"#utility.yul\":11146:11164   */\n      swap1\n      pop\n        /* \"#utility.yul\":11023:11170   */\n      swap3\n      swap2\n      pop\n      pop\n      jump\t// out\n        /* \"#utility.yul\":11176:11290   */\n    tag_293:\n      pop\n      jump\t// out\n        /* \"#utility.yul\":11296:11694   */\n    tag_294:\n        /* \"#utility.yul\":11455:11458   */\n      0x00\n        /* \"#utility.yul\":11476:11559   */\n      tag_427\n        /* \"#utility.yul\":11557:11558   */\n      0x00\n        /* \"#utility.yul\":11552:11555   */\n      dup4\n        /* \"#utility.yul\":11476:11559   */\n      tag_292\n      jump\t// in\n    tag_427:\n        /* \"#utility.yul\":11469:11559   */\n      swap2\n      pop\n        /* \"#utility.yul\":11568:11661   */\n      tag_428\n        /* \"#utility.yul\":11657:11660   */\n      dup3\n        /* \"#utility.yul\":11568:11661   */\n      tag_293\n      jump\t// in\n    tag_428:\n        /* \"#utility.yul\":11686:11687   */\n      0x00\n        /* \"#utility.yul\":11681:11684   */\n      dup3\n        /* \"#utility.yul\":11677:11688   */\n      add\n        /* \"#utility.yul\":11670:11688   */\n      swap1\n      pop\n        /* \"#utility.yul\":11296:11694   */\n      swap2\n      swap1\n      pop\n      jump\t// out\n        /* \"#utility.yul\":11700:12079   */\n    tag_118:\n        /* \"#utility.yul\":11884:11887   */\n      0x00\n        /* \"#utility.yul\":11906:12053   */\n      tag_430\n        /* \"#utility.yul\":12049:12052   */\n      dup3\n        /* \"#utility.yul\":11906:12053   */\n      tag_294\n      jump\t// in\n    tag_430:\n        /* \"#utility.yul\":11899:12053   */\n      swap2\n      pop\n        /* \"#utility.yul\":12070:12073   */\n      dup2\n        /* \"#utility.yul\":12063:12073   */\n      swap1\n      pop\n        /* \"#utility.yul\":11700:12079   */\n      swap2\n      swap1\n      pop\n      jump\t// out\n        /* \"#utility.yul\":12085:12249   */\n    tag_295:\n        /* \"#utility.yul\":12225:12241   */\n      0x5472616e7366657220676167616c000000000000000000000000000000000000\n        /* \"#utility.yul\":12221:12222   */\n      0x00\n        /* \"#utility.yul\":12213:12219   */\n      dup3\n        /* \"#utility.yul\":12209:12223   */\n      add\n        /* \"#utility.yul\":12202:12242   */\n      mstore\n        /* \"#utility.yul\":12085:12249   */\n      pop\n      jump\t// out\n        /* \"#utility.yul\":12255:12621   */\n    tag_296:\n        /* \"#utility.yul\":12397:12400   */\n      0x00\n        /* \"#utility.yul\":12418:12485   */\n      tag_433\n        /* \"#utility.yul\":12482:12484   */\n      0x0e\n        /* \"#utility.yul\":12477:12480   */\n      dup4\n        /* \"#utility.yul\":12418:12485   */\n      tag_289\n      jump\t// in\n    tag_433:\n        /* \"#utility.yul\":12411:12485   */\n      swap2\n      pop\n        /* \"#utility.yul\":12494:12587   */\n      tag_434\n        /* \"#utility.yul\":12583:12586   */\n      dup3\n        /* \"#utility.yul\":12494:12587   */\n      tag_295\n      jump\t// in\n    tag_434:\n        /* \"#utility.yul\":12612:12614   */\n      0x20\n        /* \"#utility.yul\":12607:12610   */\n      dup3\n        /* \"#utility.yul\":12603:12615   */\n      add\n        /* \"#utility.yul\":12596:12615   */\n      swap1\n      pop\n        /* \"#utility.yul\":12255:12621   */\n      swap2\n      swap1\n      pop\n      jump\t// out\n        /* \"#utility.yul\":12627:13046   */\n    tag_124:\n        /* \"#utility.yul\":12793:12797   */\n      0x00\n        /* \"#utility.yul\":12831:12833   */\n      0x20\n        /* \"#utility.yul\":12820:12829   */\n      dup3\n        /* \"#utility.yul\":12816:12834   */\n      add\n        /* \"#utility.yul\":12808:12834   */\n      swap1\n      pop\n        /* \"#utility.yul\":12880:12889   */\n      dup2\n        /* \"#utility.yul\":12874:12878   */\n      dup2\n        /* \"#utility.yul\":12870:12890   */\n      sub\n        /* \"#utility.yul\":12866:12867   */\n      0x00\n        /* \"#utility.yul\":12855:12864   */\n      dup4\n        /* \"#utility.yul\":12851:12868   */\n      add\n        /* \"#utility.yul\":12844:12891   */\n      mstore\n        /* \"#utility.yul\":12908:13039   */\n      tag_436\n        /* \"#utility.yul\":13034:13038   */\n      dup2\n        /* \"#utility.yul\":12908:13039   */\n      tag_296\n      jump\t// in\n    tag_436:\n        /* \"#utility.yul\":12900:13039   */\n      swap1\n      pop\n        /* \"#utility.yul\":12627:13046   */\n      swap2\n      swap1\n      pop\n      jump\t// out\n        /* \"#utility.yul\":13052:13221   */\n    tag_297:\n        /* \"#utility.yul\":13192:13213   */\n      0x4973756666696369656e742042616c616e636500000000000000000000000000\n        /* \"#utility.yul\":13188:13189   */\n      0x00\n        /* \"#utility.yul\":13180:13186   */\n      dup3\n        /* \"#utility.yul\":13176:13190   */\n      add\n        /* \"#utility.yul\":13169:13214   */\n      mstore\n        /* \"#utility.yul\":13052:13221   */\n      pop\n      jump\t// out\n        /* \"#utility.yul\":13227:13593   */\n    tag_298:\n        /* \"#utility.yul\":13369:13372   */\n      0x00\n        /* \"#utility.yul\":13390:13457   */\n      tag_439\n        /* \"#utility.yul\":13454:13456   */\n      0x13\n        /* \"#utility.yul\":13449:13452   */\n      dup4\n        /* \"#utility.yul\":13390:13457   */\n      tag_289\n      jump\t// in\n    tag_439:\n        /* \"#utility.yul\":13383:13457   */\n      swap2\n      pop\n        /* \"#utility.yul\":13466:13559   */\n      tag_440\n        /* \"#utility.yul\":13555:13558   */\n      dup3\n        /* \"#utility.yul\":13466:13559   */\n      tag_297\n      jump\t// in\n    tag_440:\n        /* \"#utility.yul\":13584:13586   */\n      0x20\n        /* \"#utility.yul\":13579:13582   */\n      dup3\n        /* \"#utility.yul\":13575:13587   */\n      add\n        /* \"#utility.yul\":13568:13587   */\n      swap1\n      pop\n        /* \"#utility.yul\":13227:13593   */\n      swap2\n      swap1\n      pop\n      jump\t// out\n        /* \"#utility.yul\":13599:14018   */\n    tag_128:\n        /* \"#utility.yul\":13765:13769   */\n      0x00\n        /* \"#utility.yul\":13803:13805   */\n      0x20\n        /* \"#utility.yul\":13792:13801   */\n      dup3\n        /* \"#utility.yul\":13788:13806   */\n      add\n        /* \"#utility.yul\":13780:13806   */\n      swap1\n      pop\n        /* \"#utility.yul\":13852:13861   */\n      dup2\n        /* \"#utility.yul\":13846:13850   */\n      dup2\n        /* \"#utility.yul\":13842:13862   */\n      sub\n        /* \"#utility.yul\":13838:13839   */\n      0x00\n        /* \"#utility.yul\":13827:13836   */\n      dup4\n        /* \"#utility.yul\":13823:13840   */\n      add\n        /* \"#utility.yul\":13816:13863   */\n      mstore\n        /* \"#utility.yul\":13880:14011   */\n      tag_442\n        /* \"#utility.yul\":14006:14010   */\n      dup2\n        /* \"#utility.yul\":13880:14011   */\n      tag_298\n      jump\t// in\n    tag_442:\n        /* \"#utility.yul\":13872:14011   */\n      swap1\n      pop\n        /* \"#utility.yul\":13599:14018   */\n      swap2\n      swap1\n      pop\n      jump\t// out\n        /* \"#utility.yul\":14024:14204   */\n    tag_299:\n        /* \"#utility.yul\":14072:14149   */\n      0x4e487b7100000000000000000000000000000000000000000000000000000000\n        /* \"#utility.yul\":14069:14070   */\n      0x00\n        /* \"#utility.yul\":14062:14150   */\n      mstore\n        /* \"#utility.yul\":14169:14173   */\n      0x11\n        /* \"#utility.yul\":14166:14167   */\n      0x04\n        /* \"#utility.yul\":14159:14174   */\n      mstore\n        /* \"#utility.yul\":14193:14197   */\n      0x24\n        /* \"#utility.yul\":14190:14191   */\n      0x00\n        /* \"#utility.yul\":14183:14198   */\n      revert\n        /* \"#utility.yul\":14210:14443   */\n    tag_131:\n        /* \"#utility.yul\":14249:14252   */\n      0x00\n        /* \"#utility.yul\":14272:14296   */\n      tag_445\n        /* \"#utility.yul\":14290:14295   */\n      dup3\n        /* \"#utility.yul\":14272:14296   */\n      tag_257\n      jump\t// in\n    tag_445:\n        /* \"#utility.yul\":14263:14296   */\n      swap2\n      pop\n        /* \"#utility.yul\":14318:14384   */\n      0xffffffffffffffffffffffffffffffffffffffffffffffffffffffffffffffff\n        /* \"#utility.yul\":14311:14316   */\n      dup3\n        /* \"#utility.yul\":14308:14385   */\n      sub\n        /* \"#utility.yul\":14305:14408   */\n      tag_446\n      jumpi\n        /* \"#utility.yul\":14388:14406   */\n      tag_447\n      tag_299\n      jump\t// in\n    tag_447:\n        /* \"#utility.yul\":14305:14408   */\n    tag_446:\n        /* \"#utility.yul\":14435:14436   */\n      0x01\n        /* \"#utility.yul\":14428:14433   */\n      dup3\n        /* \"#utility.yul\":14424:14437   */\n      add\n        /* \"#utility.yul\":14417:14437   */\n      swap1\n      pop\n        /* \"#utility.yul\":14210:14443   */\n      swap2\n      swap1\n      pop\n      jump\t// out\n        /* \"#utility.yul\":14449:14643   */\n    tag_148:\n        /* \"#utility.yul\":14489:14493   */\n      0x00\n        /* \"#utility.yul\":14509:14529   */\n      tag_449\n        /* \"#utility.yul\":14527:14528   */\n      dup3\n        /* \"#utility.yul\":14509:14529   */\n      tag_257\n      jump\t// in\n    tag_449:\n        /* \"#utility.yul\":14504:14529   */\n      swap2\n      pop\n        /* \"#utility.yul\":14543:14563   */\n      tag_450\n        /* \"#utility.yul\":14561:14562   */\n      dup4\n        /* \"#utility.yul\":14543:14563   */\n      tag_257\n      jump\t// in\n    tag_450:\n        /* \"#utility.yul\":14538:14563   */\n      swap3\n      pop\n        /* \"#utility.yul\":14587:14588   */\n      dup3\n        /* \"#utility.yul\":14584:14585   */\n      dup3\n        /* \"#utility.yul\":14580:14589   */\n      sub\n        /* \"#utility.yul\":14572:14589   */\n      swap1\n      pop\n        /* \"#utility.yul\":14611:14612   */\n      dup2\n        /* \"#utility.yul\":14605:14609   */\n      dup2\n        /* \"#utility.yul\":14602:14613   */\n      gt\n        /* \"#utility.yul\":14599:14636   */\n      iszero\n      tag_451\n      jumpi\n        /* \"#utility.yul\":14616:14634   */\n      tag_452\n      tag_299\n      jump\t// in\n    tag_452:\n        /* \"#utility.yul\":14599:14636   */\n    tag_451:\n        /* \"#utility.yul\":14449:14643   */\n      swap3\n      swap2\n      pop\n      pop\n      jump\t// out\n        /* \"#utility.yul\":14649:14829   */\n    tag_300:\n        /* \"#utility.yul\":14697:14774   */\n      0x4e487b7100000000000000000000000000000000000000000000000000000000\n        /* \"#utility.yul\":14694:14695   */\n      0x00\n        /* \"#utility.yul\":14687:14775   */\n      mstore\n        /* \"#utility.yul\":14794:14798   */\n      0x12\n        /* \"#utility.yul\":14791:14792   */\n      0x04\n        /* \"#utility.yul\":14784:14799   */\n      mstore\n        /* \"#utility.yul\":14818:14822   */\n      0x24\n        /* \"#utility.yul\":14815:14816   */\n      0x00\n        /* \"#utility.yul\":14808:14823   */\n      revert\n        /* \"#utility.yul\":14835:15020   */\n    tag_150:\n        /* \"#utility.yul\":14875:14876   */\n      0x00\n        /* \"#utility.yul\":14892:14912   */\n      tag_455\n        /* \"#utility.yul\":14910:14911   */\n      dup3\n        /* \"#utility.yul\":14892:14912   */\n      tag_257\n      jump\t// in\n    tag_455:\n        /* \"#utility.yul\":14887:14912   */\n      swap2\n      pop\n        /* \"#utility.yul\":14926:14946   */\n      tag_456\n        /* \"#utility.yul\":14944:14945   */\n      dup4\n        /* \"#utility.yul\":14926:14946   */\n      tag_257\n      jump\t// in\n    tag_456:\n        /* \"#utility.yul\":14921:14946   */\n      swap3\n      pop\n        /* \"#utility.yul\":14965:14966   */\n      dup3\n        /* \"#utility.yul\":14955:14990   */\n      tag_457\n      jumpi\n        /* \"#utility.yul\":14970:14988   */\n      tag_458\n      tag_300\n      jump\t// in\n    tag_458:\n        /* \"#utility.yul\":14955:14990   */\n    tag_457:\n        /* \"#utility.yul\":15012:15013   */\n      dup3\n        /* \"#utility.yul\":15009:15010   */\n      dup3\n        /* \"#utility.yul\":15005:15014   */\n      div\n        /* \"#utility.yul\":15000:15014   */\n      swap1\n      pop\n        /* \"#utility.yul\":14835:15020   */\n      swap3\n      swap2\n      pop\n      pop\n      jump\t// out\n        /* \"#utility.yul\":15026:15436   */\n    tag_152:\n        /* \"#utility.yul\":15066:15073   */\n      0x00\n        /* \"#utility.yul\":15089:15109   */\n      tag_460\n        /* \"#utility.yul\":15107:15108   */\n      dup3\n        /* \"#utility.yul\":15089:15109   */\n      tag_257\n      jump\t// in\n    tag_460:\n        /* \"#utility.yul\":15084:15109   */\n      swap2\n      pop\n        /* \"#utility.yul\":15123:15143   */\n      tag_461\n        /* \"#utility.yul\":15141:15142   */\n      dup4\n        /* \"#utility.yul\":15123:15143   */\n      tag_257\n      jump\t// in\n    tag_461:\n        /* \"#utility.yul\":15118:15143   */\n      swap3\n      pop\n        /* \"#utility.yul\":15178:15179   */\n      dup3\n        /* \"#utility.yul\":15175:15176   */\n      dup3\n        /* \"#utility.yul\":15171:15180   */\n      mul\n        /* \"#utility.yul\":15200:15230   */\n      tag_462\n        /* \"#utility.yul\":15218:15229   */\n      dup2\n        /* \"#utility.yul\":15200:15230   */\n      tag_257\n      jump\t// in\n    tag_462:\n        /* \"#utility.yul\":15189:15230   */\n      swap2\n      pop\n        /* \"#utility.yul\":15379:15380   */\n      dup3\n        /* \"#utility.yul\":15370:15377   */\n      dup3\n        /* \"#utility.yul\":15366:15381   */\n      div\n        /* \"#utility.yul\":15363:15364   */\n      dup5\n        /* \"#utility.yul\":15360:15382   */\n      eq\n        /* \"#utility.yul\":15340:15341   */\n      dup4\n        /* \"#utility.yul\":15333:15342   */\n      iszero\n        /* \"#utility.yul\":15313:15396   */\n      or\n        /* \"#utility.yul\":15290:15429   */\n      tag_463\n      jumpi\n        /* \"#utility.yul\":15409:15427   */\n      tag_464\n      tag_299\n      jump\t// in\n    tag_464:\n        /* \"#utility.yul\":15290:15429   */\n    tag_463:\n        /* \"#utility.yul\":15074:15436   */\n      pop\n        /* \"#utility.yul\":15026:15436   */\n      swap3\n      swap2\n      pop\n      pop\n      jump\t// out\n        /* \"#utility.yul\":15442:15613   */\n    tag_301:\n        /* \"#utility.yul\":15582:15605   */\n      0x4e6f7420796f757220706c616e74206275646479210000000000000000000000\n        /* \"#utility.yul\":15578:15579   */\n      0x00\n        /* \"#utility.yul\":15570:15576   */\n      dup3\n        /* \"#utility.yul\":15566:15580   */\n      add\n        /* \"#utility.yul\":15559:15606   */\n      mstore\n        /* \"#utility.yul\":15442:15613   */\n      pop\n      jump\t// out\n        /* \"#utility.yul\":15619:15985   */\n    tag_302:\n        /* \"#utility.yul\":15761:15764   */\n      0x00\n        /* \"#utility.yul\":15782:15849   */\n      tag_467\n        /* \"#utility.yul\":15846:15848   */\n      0x15\n        /* \"#utility.yul\":15841:15844   */\n      dup4\n        /* \"#utility.yul\":15782:15849   */\n      tag_289\n      jump\t// in\n    tag_467:\n        /* \"#utility.yul\":15775:15849   */\n      swap2\n      pop\n        /* \"#utility.yul\":15858:15951   */\n      tag_468\n        /* \"#utility.yul\":15947:15950   */\n      dup3\n        /* \"#utility.yul\":15858:15951   */\n      tag_301\n      jump\t// in\n    tag_468:\n        /* \"#utility.yul\":15976:15978   */\n      0x20\n        /* \"#utility.yul\":15971:15974   */\n      dup3\n        /* \"#utility.yul\":15967:15979   */\n      add\n        /* \"#utility.yul\":15960:15979   */\n      swap1\n      pop\n        /* \"#utility.yul\":15619:15985   */\n      swap2\n      swap1\n      pop\n      jump\t// out\n        /* \"#utility.yul\":15991:16410   */\n    tag_160:\n        /* \"#utility.yul\":16157:16161   */\n      0x00\n        /* \"#utility.yul\":16195:16197   */\n      0x20\n        /* \"#utility.yul\":16184:16193   */\n      dup3\n        /* \"#utility.yul\":16180:16198   */\n      add\n        /* \"#utility.yul\":16172:16198   */\n      swap1\n      pop\n        /* \"#utility.yul\":16244:16253   */\n      dup2\n        /* \"#utility.yul\":16238:16242   */\n      dup2\n        /* \"#utility.yul\":16234:16254   */\n      sub\n        /* \"#utility.yul\":16230:16231   */\n      0x00\n        /* \"#utility.yul\":16219:16228   */\n      dup4\n        /* \"#utility.yul\":16215:16232   */\n      add\n        /* \"#utility.yul\":16208:16255   */\n      mstore\n        /* \"#utility.yul\":16272:16403   */\n      tag_470\n        /* \"#utility.yul\":16398:16402   */\n      dup2\n        /* \"#utility.yul\":16272:16403   */\n      tag_302\n      jump\t// in\n    tag_470:\n        /* \"#utility.yul\":16264:16403   */\n      swap1\n      pop\n        /* \"#utility.yul\":15991:16410   */\n      swap2\n      swap1\n      pop\n      jump\t// out\n        /* \"#utility.yul\":16416:16503   */\n    tag_303:\n        /* \"#utility.yul\":16463:16470   */\n      0x00\n        /* \"#utility.yul\":16492:16497   */\n      dup2\n        /* \"#utility.yul\":16481:16497   */\n      swap1\n      pop\n        /* \"#utility.yul\":16416:16503   */\n      swap2\n      swap1\n      pop\n      jump\t// out\n        /* \"#utility.yul\":16509:16569   */\n    tag_304:\n        /* \"#utility.yul\":16537:16540   */\n      0x00\n        /* \"#utility.yul\":16558:16563   */\n      dup2\n        /* \"#utility.yul\":16551:16563   */\n      swap1\n      pop\n        /* \"#utility.yul\":16509:16569   */\n      swap2\n      swap1\n      pop\n      jump\t// out\n        /* \"#utility.yul\":16575:16733   */\n    tag_305:\n        /* \"#utility.yul\":16633:16642   */\n      0x00\n        /* \"#utility.yul\":16666:16727   */\n      tag_474\n        /* \"#utility.yul\":16682:16726   */\n      tag_475\n        /* \"#utility.yul\":16691:16725   */\n      tag_476\n        /* \"#utility.yul\":16719:16724   */\n      dup5\n        /* \"#utility.yul\":16691:16725   */\n      tag_303\n      jump\t// in\n    tag_476:\n        /* \"#utility.yul\":16682:16726   */\n      tag_304\n      jump\t// in\n    tag_475:\n        /* \"#utility.yul\":16666:16727   */\n      tag_278\n      jump\t// in\n    tag_474:\n        /* \"#utility.yul\":16653:16727   */\n      swap1\n      pop\n        /* \"#utility.yul\":16575:16733   */\n      swap2\n      swap1\n      pop\n      jump\t// out\n        /* \"#utility.yul\":16739:16886   */\n    tag_306:\n        /* \"#utility.yul\":16834:16879   */\n      tag_478\n        /* \"#utility.yul\":16873:16878   */\n      dup2\n        /* \"#utility.yul\":16834:16879   */\n      tag_305\n      jump\t// in\n    tag_478:\n        /* \"#utility.yul\":16829:16832   */\n      dup3\n        /* \"#utility.yul\":16822:16880   */\n      mstore\n        /* \"#utility.yul\":16739:16886   */\n      pop\n      pop\n      jump\t// out\n        /* \"#utility.yul\":16892:17130   */\n    tag_165:\n        /* \"#utility.yul\":16993:16997   */\n      0x00\n        /* \"#utility.yul\":17031:17033   */\n      0x20\n        /* \"#utility.yul\":17020:17029   */\n      dup3\n        /* \"#utility.yul\":17016:17034   */\n      add\n        /* \"#utility.yul\":17008:17034   */\n      swap1\n      pop\n        /* \"#utility.yul\":17044:17123   */\n      tag_480\n        /* \"#utility.yul\":17120:17121   */\n      0x00\n        /* \"#utility.yul\":17109:17118   */\n      dup4\n        /* \"#utility.yul\":17105:17122   */\n      add\n        /* \"#utility.yul\":17096:17102   */\n      dup5\n        /* \"#utility.yul\":17044:17123   */\n      tag_306\n      jump\t// in\n    tag_480:\n        /* \"#utility.yul\":16892:17130   */\n      swap3\n      swap2\n      pop\n      pop\n      jump\t// out\n        /* \"#utility.yul\":17136:17306   */\n    tag_307:\n        /* \"#utility.yul\":17276:17298   */\n      0x506c616e7420646f65736e277420657869737421000000000000000000000000\n        /* \"#utility.yul\":17272:17273   */\n      0x00\n        /* \"#utility.yul\":17264:17270   */\n      dup3\n        /* \"#utility.yul\":17260:17274   */\n      add\n        /* \"#utility.yul\":17253:17299   */\n      mstore\n        /* \"#utility.yul\":17136:17306   */\n      pop\n      jump\t// out\n        /* \"#utility.yul\":17312:17678   */\n    tag_308:\n        /* \"#utility.yul\":17454:17457   */\n      0x00\n        /* \"#utility.yul\":17475:17542   */\n      tag_483\n        /* \"#utility.yul\":17539:17541   */\n      0x14\n        /* \"#utility.yul\":17534:17537   */\n      dup4\n        /* \"#utility.yul\":17475:17542   */\n      tag_289\n      jump\t// in\n    tag_483:\n        /* \"#utility.yul\":17468:17542   */\n      swap2\n      pop\n        /* \"#utility.yul\":17551:17644   */\n      tag_484\n        /* \"#utility.yul\":17640:17643   */\n      dup3\n        /* \"#utility.yul\":17551:17644   */\n      tag_307\n      jump\t// in\n    tag_484:\n        /* \"#utility.yul\":17669:17671   */\n      0x20\n        /* \"#utility.yul\":17664:17667   */\n      dup3\n        /* \"#utility.yul\":17660:17672   */\n      add\n        /* \"#utility.yul\":17653:17672   */\n      swap1\n      pop\n        /* \"#utility.yul\":17312:17678   */\n      swap2\n      swap1\n      pop\n      jump\t// out\n        /* \"#utility.yul\":17684:18103   */\n    tag_177:\n        /* \"#utility.yul\":17850:17854   */\n      0x00\n        /* \"#utility.yul\":17888:17890   */\n      0x20\n        /* \"#utility.yul\":17877:17886   */\n      dup3\n        /* \"#utility.yul\":17873:17891   */\n      add\n        /* \"#utility.yul\":17865:17891   */\n      swap1\n      pop\n        /* \"#utility.yul\":17937:17946   */\n      dup2\n        /* \"#utility.yul\":17931:17935   */\n      dup2\n        /* \"#utility.yul\":17927:17947   */\n      sub\n        /* \"#utility.yul\":17923:17924   */\n      0x00\n        /* \"#utility.yul\":17912:17921   */\n      dup4\n        /* \"#utility.yul\":17908:17925   */\n      add\n        /* \"#utility.yul\":17901:17948   */\n      mstore\n        /* \"#utility.yul\":17965:18096   */\n      tag_486\n        /* \"#utility.yul\":18091:18095   */\n      dup2\n        /* \"#utility.yul\":17965:18096   */\n      tag_308\n      jump\t// in\n    tag_486:\n        /* \"#utility.yul\":17957:18096   */\n      swap1\n      pop\n        /* \"#utility.yul\":17684:18103   */\n      swap2\n      swap1\n      pop\n      jump\t// out\n        /* \"#utility.yul\":18109:18353   */\n    tag_201:\n        /* \"#utility.yul\":18213:18217   */\n      0x00\n        /* \"#utility.yul\":18251:18253   */\n      0x20\n        /* \"#utility.yul\":18240:18249   */\n      dup3\n        /* \"#utility.yul\":18236:18254   */\n      add\n        /* \"#utility.yul\":18228:18254   */\n      swap1\n      pop\n        /* \"#utility.yul\":18264:18346   */\n      tag_488\n        /* \"#utility.yul\":18343:18344   */\n      0x00\n        /* \"#utility.yul\":18332:18341   */\n      dup4\n        /* \"#utility.yul\":18328:18345   */\n      add\n        /* \"#utility.yul\":18319:18325   */\n      dup5\n        /* \"#utility.yul\":18264:18346   */\n      tag_277\n      jump\t// in\n    tag_488:\n        /* \"#utility.yul\":18109:18353   */\n      swap3\n      swap2\n      pop\n      pop\n      jump\t// out\n        /* \"#utility.yul\":18359:18527   */\n    tag_309:\n        /* \"#utility.yul\":18499:18519   */\n      0x506c616e7420616c726561647920646561640000000000000000000000000000\n        /* \"#utility.yul\":18495:18496   */\n      0x00\n        /* \"#utility.yul\":18487:18493   */\n      dup3\n        /* \"#utility.yul\":18483:18497   */\n      add\n        /* \"#utility.yul\":18476:18520   */\n      mstore\n        /* \"#utility.yul\":18359:18527   */\n      pop\n      jump\t// out\n        /* \"#utility.yul\":18533:18899   */\n    tag_310:\n        /* \"#utility.yul\":18675:18678   */\n      0x00\n        /* \"#utility.yul\":18696:18763   */\n      tag_491\n        /* \"#utility.yul\":18760:18762   */\n      0x12\n        /* \"#utility.yul\":18755:18758   */\n      dup4\n        /* \"#utility.yul\":18696:18763   */\n      tag_289\n      jump\t// in\n    tag_491:\n        /* \"#utility.yul\":18689:18763   */\n      swap2\n      pop\n        /* \"#utility.yul\":18772:18865   */\n      tag_492\n        /* \"#utility.yul\":18861:18864   */\n      dup3\n        /* \"#utility.yul\":18772:18865   */\n      tag_309\n      jump\t// in\n    tag_492:\n        /* \"#utility.yul\":18890:18892   */\n      0x20\n        /* \"#utility.yul\":18885:18888   */\n      dup3\n        /* \"#utility.yul\":18881:18893   */\n      add\n        /* \"#utility.yul\":18874:18893   */\n      swap1\n      pop\n        /* \"#utility.yul\":18533:18899   */\n      swap2\n      swap1\n      pop\n      jump\t// out\n        /* \"#utility.yul\":18905:19324   */\n    tag_219:\n        /* \"#utility.yul\":19071:19075   */\n      0x00\n        /* \"#utility.yul\":19109:19111   */\n      0x20\n        /* \"#utility.yul\":19098:19107   */\n      dup3\n        /* \"#utility.yul\":19094:19112   */\n      add\n        /* \"#utility.yul\":19086:19112   */\n      swap1\n      pop\n        /* \"#utility.yul\":19158:19167   */\n      dup2\n        /* \"#utility.yul\":19152:19156   */\n      dup2\n        /* \"#utility.yul\":19148:19168   */\n      sub\n        /* \"#utility.yul\":19144:19145   */\n      0x00\n        /* \"#utility.yul\":19133:19142   */\n      dup4\n        /* \"#utility.yul\":19129:19146   */\n      add\n        /* \"#utility.yul\":19122:19169   */\n      mstore\n        /* \"#utility.yul\":19186:19317   */\n      tag_494\n        /* \"#utility.yul\":19312:19316   */\n      dup2\n        /* \"#utility.yul\":19186:19317   */\n      tag_310\n      jump\t// in\n    tag_494:\n        /* \"#utility.yul\":19178:19317   */\n      swap1\n      pop\n        /* \"#utility.yul\":18905:19324   */\n      swap2\n      swap1\n      pop\n      jump\t// out\n        /* \"#utility.yul\":19330:19495   */\n    tag_311:\n        /* \"#utility.yul\":19470:19487   */\n      0x7472616e73666572206661696c65640000000000000000000000000000000000\n        /* \"#utility.yul\":19466:19467   */\n      0x00\n        /* \"#utility.yul\":19458:19464   */\n      dup3\n        /* \"#utility.yul\":19454:19468   */\n      add\n        /* \"#utility.yul\":19447:19488   */\n      mstore\n        /* \"#utility.yul\":19330:19495   */\n      pop\n      jump\t// out\n        /* \"#utility.yul\":19501:19867   */\n    tag_312:\n        /* \"#utility.yul\":19643:19646   */\n      0x00\n        /* \"#utility.yul\":19664:19731   */\n      tag_497\n        /* \"#utility.yul\":19728:19730   */\n      0x0f\n        /* \"#utility.yul\":19723:19726   */\n      dup4\n        /* \"#utility.yul\":19664:19731   */\n      tag_289\n      jump\t// in\n    tag_497:\n        /* \"#utility.yul\":19657:19731   */\n      swap2\n      pop\n        /* \"#utility.yul\":19740:19833   */\n      tag_498\n        /* \"#utility.yul\":19829:19832   */\n      dup3\n        /* \"#utility.yul\":19740:19833   */\n      tag_311\n      jump\t// in\n    tag_498:\n        /* \"#utility.yul\":19858:19860   */\n      0x20\n        /* \"#utility.yul\":19853:19856   */\n      dup3\n        /* \"#utility.yul\":19849:19861   */\n      add\n        /* \"#utility.yul\":19842:19861   */\n      swap1\n      pop\n        /* \"#utility.yul\":19501:19867   */\n      swap2\n      swap1\n      pop\n      jump\t// out\n        /* \"#utility.yul\":19873:20292   */\n    tag_238:\n        /* \"#utility.yul\":20039:20043   */\n      0x00\n        /* \"#utility.yul\":20077:20079   */\n      0x20\n        /* \"#utility.yul\":20066:20075   */\n      dup3\n        /* \"#utility.yul\":20062:20080   */\n      add\n        /* \"#utility.yul\":20054:20080   */\n      swap1\n      pop\n        /* \"#utility.yul\":20126:20135   */\n      dup2\n        /* \"#utility.yul\":20120:20124   */\n      dup2\n        /* \"#utility.yul\":20116:20136   */\n      sub\n        /* \"#utility.yul\":20112:20113   */\n      0x00\n        /* \"#utility.yul\":20101:20110   */\n      dup4\n        /* \"#utility.yul\":20097:20114   */\n      add\n        /* \"#utility.yul\":20090:20137   */\n      mstore\n        /* \"#utility.yul\":20154:20285   */\n      tag_500\n        /* \"#utility.yul\":20280:20284   */\n      dup2\n        /* \"#utility.yul\":20154:20285   */\n      tag_312\n      jump\t// in\n    tag_500:\n        /* \"#utility.yul\":20146:20285   */\n      swap1\n      pop\n        /* \"#utility.yul\":19873:20292   */\n      swap2\n      swap1\n      pop\n      jump\t// out\n\n    auxdata: 0xa2646970667358221220c0fdcaff2e01031917073edff9db0af6e6d2ed3c56375fb62d0e45885f9ccc8b64736f6c634300081e0033\n}\n",
				"bytecode": {
					"linkReferences": {},
					"object": "6080604052348015600e575f5ffd5b503360085f6101000a81548173ffffffffffffffffffffffffffffffffffffffff021916908373ffffffffffffffffffffffffffffffffffffffff1602179055506124ef8061005c5f395ff3fe60806040526004361061010c575f3560e01c80638da5cb5b11610094578063bacb5ebd11610063578063bacb5ebd1461036d578063cfc9a5f814610397578063ddd42596146103c1578063e38f8448146103e9578063ed0b1f5f1461041157610113565b80638da5cb5b146102ae5780638dd2361c146102d85780639886bcfa1461031b5780639c4717491461034357610113565b806351f9efde116100db57806351f9efde146101c457806374119a38146101ee578063754e150d1461020c578063891c0785146102485780638aee578b1461027257610113565b80632e0fc9ff1461011757806330cec0eb146101415780633a8fdff01461017d5780633ccfd60b146101ae57610113565b3661011357005b5f5ffd5b348015610122575f5ffd5b5061012b61044d565b6040516101389190611b70565b60405180910390f35b34801561014c575f5ffd5b5061016760048036038101906101629190611be7565b610452565b6040516101749190611cc9565b60405180910390f35b348015610188575f5ffd5b506101916104e5565b6040516101a5989796959493929190611da0565b60405180910390f35b3480156101b9575f5ffd5b506101c261056b565b005b3480156101cf575f5ffd5b506101d86106c6565b6040516101e59190611b70565b60405180910390f35b6101f66106cb565b6040516102039190611b70565b60405180910390f35b348015610217575f5ffd5b50610232600480360381019061022d9190611e46565b610a9b565b60405161023f9190611e71565b60405180910390f35b348015610253575f5ffd5b5061025c610c4f565b6040516102699190611b70565b60405180910390f35b34801561027d575f5ffd5b5061029860048036038101906102939190611e8a565b610c5a565b6040516102a59190611b70565b60405180910390f35b3480156102b9575f5ffd5b506102c2610c85565b6040516102cf9190611ec8565b60405180910390f35b3480156102e3575f5ffd5b506102fe60048036038101906102f99190611e46565b610caa565b604051610312989796959493929190611da0565b60405180910390f35b348015610326575f5ffd5b50610341600480360381019061033c9190611e46565b610d40565b005b34801561034e575f5ffd5b50610357610e58565b6040516103649190611b70565b60405180910390f35b348015610378575f5ffd5b50610381610e5e565b60405161038e9190611e71565b60405180910390f35b3480156103a2575f5ffd5b506103ab610e63565b6040516103b89190611b70565b60405180910390f35b3480156103cc575f5ffd5b506103e760048036038101906103e29190611e46565b610e6e565b005b3480156103f4575f5ffd5b5061040f600480360381019061040a9190611e46565b611216565b005b34801561041c575f5ffd5b5061043760048036038101906104329190611e46565b611808565b6040516104449190611fbd565b60405180910390f35b601e81565b606060065f8373ffffffffffffffffffffffffffffffffffffffff1673ffffffffffffffffffffffffffffffffffffffff1681526020019081526020015f208054806020026020016040519081016040528092919081815260200182805480156104d957602002820191905f5260205f20905b8154815260200190600101908083116104c5575b50505050509050919050565b5f805f015490806001015f9054906101000a900473ffffffffffffffffffffffffffffffffffffffff16908060010160149054906101000a900460ff1690806002015490806003015490806004015f9054906101000a900460ff16908060040160019054906101000a900460ff16908060040160029054906101000a900460ff16905088565b60085f9054906101000a900473ffffffffffffffffffffffffffffffffffffffff1673ffffffffffffffffffffffffffffffffffffffff163373ffffffffffffffffffffffffffffffffffffffff16146105fa576040517f08c379a00000000000000000000000000000000000000000000000000000000081526004016105f190612031565b60405180910390fd5b5f60085f9054906101000a900473ffffffffffffffffffffffffffffffffffffffff1673ffffffffffffffffffffffffffffffffffffffff16476040516106409061207c565b5f6040518083038185875af1925050503d805f811461067a576040519150601f19603f3d011682016040523d82523d5f602084013e61067f565b606091505b50509050806106c3576040517f08c379a00000000000000000000000000000000000000000000000000000000081526004016106ba906120da565b60405180910390fd5b50565b603c81565b5f66038d7ea4c680003414610715576040517f08c379a000000000000000000000000000000000000000000000000000000000815260040161070c90612142565b60405180910390fd5b60075f8154809291906107279061218d565b91905055505f60075490506040518061010001604052808281526020013373ffffffffffffffffffffffffffffffffffffffff1681526020015f600381111561077357610772611cf8565b5b8152602001428152602001428152602001606460ff168152602001600115158152602001600115158152505f5f820151815f01556020820151816001015f6101000a81548173ffffffffffffffffffffffffffffffffffffffff021916908373ffffffffffffffffffffffffffffffffffffffff16021790555060408201518160010160146101000a81548160ff0219169083600381111561081857610817611cf8565b5b0217905550606082015181600201556080820151816003015560a0820151816004015f6101000a81548160ff021916908360ff16021790555060c08201518160040160016101000a81548160ff02191690831515021790555060e08201518160040160026101000a81548160ff0219169083151502179055509050505f60055f60075481526020019081526020015f205f820154815f0155600182015f9054906101000a900473ffffffffffffffffffffffffffffffffffffffff16816001015f6101000a81548173ffffffffffffffffffffffffffffffffffffffff021916908373ffffffffffffffffffffffffffffffffffffffff1602179055506001820160149054906101000a900460ff168160010160146101000a81548160ff0219169083600381111561094d5761094c611cf8565b5b02179055506002820154816002015560038201548160030155600482015f9054906101000a900460ff16816004015f6101000a81548160ff021916908360ff1602179055506004820160019054906101000a900460ff168160040160016101000a81548160ff0219169083151502179055506004820160029054906101000a900460ff168160040160026101000a81548160ff02191690831515021790555090505060065f3373ffffffffffffffffffffffffffffffffffffffff1673ffffffffffffffffffffffffffffffffffffffff1681526020019081526020015f2081908060018154018082558091505060019003905f5260205f20015f9091909190915055803373ffffffffffffffffffffffffffffffffffffffff167f4f5b22082ac57121703b0b6c1203ef527cfbfa5069616fee6deb979d124adbf060405160405180910390a38091505090565b5f5f60055f8481526020019081526020015f20604051806101000160405290815f8201548152602001600182015f9054906101000a900473ffffffffffffffffffffffffffffffffffffffff1673ffffffffffffffffffffffffffffffffffffffff1673ffffffffffffffffffffffffffffffffffffffff1681526020016001820160149054906101000a900460ff166003811115610b3d57610b3c611cf8565b5b6003811115610b4f57610b4e611cf8565b5b81526020016002820154815260200160038201548152602001600482015f9054906101000a900460ff1660ff1660ff1681526020016004820160019054906101000a900460ff161515151581526020016004820160029054906101000a900460ff16151515158152505090508060c001511580610bcd57508060e001515b15610bdb575f915050610c4a565b5f816080015142610bec91906121d4565b90505f601e82610bfc9190612234565b90505f600260ff1682610c0f9190612264565b90508360a0015160ff168110610c2b575f945050505050610c4a565b5f818560a0015160ff16610c3f91906121d4565b905080955050505050505b919050565b660aa87bee53800081565b6006602052815f5260405f208181548110610c73575f80fd5b905f5260205f20015f91509150505481565b60085f9054906101000a900473ffffffffffffffffffffffffffffffffffffffff1681565b6005602052805f5260405f205f91509050805f015490806001015f9054906101000a900473ffffffffffffffffffffffffffffffffffffffff16908060010160149054906101000a900460ff1690806002015490806003015490806004015f9054906101000a900460ff16908060040160019054906101000a900460ff16908060040160029054906101000a900460ff16905088565b60085f9054906101000a900473ffffffffffffffffffffffffffffffffffffffff1673ffffffffffffffffffffffffffffffffffffffff163373ffffffffffffffffffffffffffffffffffffffff1614610dcf576040517f08c379a0000000000000000000000000000000000000000000000000000000008152600401610dc6906122ef565b60405180910390fd5b5f60055f8381526020019081526020015f209050610dec82611952565b6064816004015f6101000a81548160ff021916908360ff160217905550428160030181905550817fd4b742b9ba48fffa1f14267075a7793851770764117c423fd0a6550dfc8cb5746064604051610e43919061234f565b60405180910390a2610e5482610e6e565b5050565b60075481565b600281565b66038d7ea4c6800081565b60085f9054906101000a900473ffffffffffffffffffffffffffffffffffffffff1673ffffffffffffffffffffffffffffffffffffffff163373ffffffffffffffffffffffffffffffffffffffff1614610efd576040517f08c379a0000000000000000000000000000000000000000000000000000000008152600401610ef4906122ef565b60405180910390fd5b805f60055f8381526020019081526020015f20604051806101000160405290815f8201548152602001600182015f9054906101000a900473ffffffffffffffffffffffffffffffffffffffff1673ffffffffffffffffffffffffffffffffffffffff1673ffffffffffffffffffffffffffffffffffffffff1681526020016001820160149054906101000a900460ff166003811115610f9f57610f9e611cf8565b5b6003811115610fb157610fb0611cf8565b5b81526020016002820154815260200160038201548152602001600482015f9054906101000a900460ff1660ff1660ff1681526020016004820160019054906101000a900460ff161515151581526020016004820160029054906101000a900460ff16151515158152505090508060c00151611061576040517f08c379a0000000000000000000000000000000000000000000000000000000008152600401611058906123b2565b60405180910390fd5b5f60055f8581526020019081526020015f20905061107e84611952565b8060040160029054906101000a900460ff161561109b5750611211565b5f8160020154426110ac91906121d4565b90505f8260010160149054906101000a900460ff1690506003603c6110d19190612264565b82106111095760038360010160146101000a81548160ff021916908360038111156110ff576110fe611cf8565b5b0217905550611187565b6002603c6111179190612264565b821061114f5760028360010160146101000a81548160ff0219169083600381111561114557611144611cf8565b5b0217905550611186565b603c82106111855760018360010160146101000a81548160ff0219169083600381111561117f5761117e611cf8565b5b02179055505b5b5b80600381111561119a57611199611cf8565b5b8360010160149054906101000a900460ff1660038111156111be576111bd611cf8565b5b1461120d57857f338b8976706f9da67298dddfa1ea4ff7d99cce68b9ca39c4f348994f8e2124a88460010160149054906101000a900460ff1660405161120491906123d0565b60405180910390a25b5050505b505050565b805f60055f8381526020019081526020015f20604051806101000160405290815f8201548152602001600182015f9054906101000a900473ffffffffffffffffffffffffffffffffffffffff1673ffffffffffffffffffffffffffffffffffffffff1673ffffffffffffffffffffffffffffffffffffffff1681526020016001820160149054906101000a900460ff1660038111156112b8576112b7611cf8565b5b60038111156112ca576112c9611cf8565b5b81526020016002820154815260200160038201548152602001600482015f9054906101000a900460ff1660ff1660ff1681526020016004820160019054906101000a900460ff161515151581526020016004820160029054906101000a900460ff16151515158152505090508060c0015161137a576040517f08c379a0000000000000000000000000000000000000000000000000000000008152600401611371906123b2565b60405180910390fd5b60085f9054906101000a900473ffffffffffffffffffffffffffffffffffffffff1673ffffffffffffffffffffffffffffffffffffffff163373ffffffffffffffffffffffffffffffffffffffff1614611409576040517f08c379a0000000000000000000000000000000000000000000000000000000008152600401611400906122ef565b60405180910390fd5b825f60055f8381526020019081526020015f20604051806101000160405290815f8201548152602001600182015f9054906101000a900473ffffffffffffffffffffffffffffffffffffffff1673ffffffffffffffffffffffffffffffffffffffff1673ffffffffffffffffffffffffffffffffffffffff1681526020016001820160149054906101000a900460ff1660038111156114ab576114aa611cf8565b5b60038111156114bd576114bc611cf8565b5b81526020016002820154815260200160038201548152602001600482015f9054906101000a900460ff1660ff1660ff1681526020016004820160019054906101000a900460ff161515151581526020016004820160029054906101000a900460ff16151515158152505090508060e001511561156e576040517f08c379a000000000000000000000000000000000000000000000000000000000815260040161156590612433565b60405180910390fd5b5f60055f8781526020019081526020015f20604051806101000160405290815f8201548152602001600182015f9054906101000a900473ffffffffffffffffffffffffffffffffffffffff1673ffffffffffffffffffffffffffffffffffffffff1673ffffffffffffffffffffffffffffffffffffffff1681526020016001820160149054906101000a900460ff16600381111561160f5761160e611cf8565b5b600381111561162157611620611cf8565b5b81526020016002820154815260200160038201548152602001600482015f9054906101000a900460ff1660ff1660ff1681526020016004820160019054906101000a900460ff161515151581526020016004820160029054906101000a900460ff161515151581525050905061169686610e6e565b6003808111156116a9576116a8611cf8565b5b816040015160038111156116c0576116bf611cf8565b5b146116c9575f5ffd5b5f8160c001901515908115158152505060085f9054906101000a900473ffffffffffffffffffffffffffffffffffffffff1673ffffffffffffffffffffffffffffffffffffffff16867f79f2138ea100070ff95b59c265da7aa3c7a0f61595fe1bb2f5fda2762f398847660aa87bee5380006040516117489190611b70565b60405180910390a35f3373ffffffffffffffffffffffffffffffffffffffff16660aa87bee53800060405161177c9061207c565b5f6040518083038185875af1925050503d805f81146117b6576040519150601f19603f3d011682016040523d82523d5f602084013e6117bb565b606091505b50509050806117ff576040517f08c379a00000000000000000000000000000000000000000000000000000000081526004016117f69061249b565b60405180910390fd5b50505050505050565b611810611aec565b5f60055f8481526020019081526020015f20604051806101000160405290815f8201548152602001600182015f9054906101000a900473ffffffffffffffffffffffffffffffffffffffff1673ffffffffffffffffffffffffffffffffffffffff1673ffffffffffffffffffffffffffffffffffffffff1681526020016001820160149054906101000a900460ff1660038111156118b1576118b0611cf8565b5b60038111156118c3576118c2611cf8565b5b81526020016002820154815260200160038201548152602001600482015f9054906101000a900460ff1660ff1660ff1681526020016004820160019054906101000a900460ff161515151581526020016004820160029054906101000a900460ff161515151581525050905061193883610a9b565b8160a0019060ff16908160ff168152505080915050919050565b5f60055f8381526020019081526020015f20604051806101000160405290815f8201548152602001600182015f9054906101000a900473ffffffffffffffffffffffffffffffffffffffff1673ffffffffffffffffffffffffffffffffffffffff1673ffffffffffffffffffffffffffffffffffffffff1681526020016001820160149054906101000a900460ff1660038111156119f3576119f2611cf8565b5b6003811115611a0557611a04611cf8565b5b81526020016002820154815260200160038201548152602001600482015f9054906101000a900460ff1660ff1660ff1681526020016004820160019054906101000a900460ff161515151581526020016004820160029054906101000a900460ff16151515158152505090505f611a7b83610a9b565b9050808260a0019060ff16908160ff16815250505f8160ff16148015611aa357508160e00151155b15611ae75760018260e0019015159081151581525050827fcc296a21951f3e57f21afb08547d835a0a9f0f06cc2867009cbe0cae44d36be960405160405180910390a25b505050565b6040518061010001604052805f81526020015f73ffffffffffffffffffffffffffffffffffffffff1681526020015f6003811115611b2d57611b2c611cf8565b5b81526020015f81526020015f81526020015f60ff1681526020015f151581526020015f151581525090565b5f819050919050565b611b6a81611b58565b82525050565b5f602082019050611b835f830184611b61565b92915050565b5f5ffd5b5f73ffffffffffffffffffffffffffffffffffffffff82169050919050565b5f611bb682611b8d565b9050919050565b611bc681611bac565b8114611bd0575f5ffd5b50565b5f81359050611be181611bbd565b92915050565b5f60208284031215611bfc57611bfb611b89565b5b5f611c0984828501611bd3565b91505092915050565b5f81519050919050565b5f82825260208201905092915050565b5f819050602082019050919050565b611c4481611b58565b82525050565b5f611c558383611c3b565b60208301905092915050565b5f602082019050919050565b5f611c7782611c12565b611c818185611c1c565b9350611c8c83611c2c565b805f5b83811015611cbc578151611ca38882611c4a565b9750611cae83611c61565b925050600181019050611c8f565b5085935050505092915050565b5f6020820190508181035f830152611ce18184611c6d565b905092915050565b611cf281611bac565b82525050565b7f4e487b71000000000000000000000000000000000000000000000000000000005f52602160045260245ffd5b60048110611d3657611d35611cf8565b5b50565b5f819050611d4682611d25565b919050565b5f611d5582611d39565b9050919050565b611d6581611d4b565b82525050565b5f60ff82169050919050565b611d8081611d6b565b82525050565b5f8115159050919050565b611d9a81611d86565b82525050565b5f61010082019050611db45f83018b611b61565b611dc1602083018a611ce9565b611dce6040830189611d5c565b611ddb6060830188611b61565b611de86080830187611b61565b611df560a0830186611d77565b611e0260c0830185611d91565b611e0f60e0830184611d91565b9998505050505050505050565b611e2581611b58565b8114611e2f575f5ffd5b50565b5f81359050611e4081611e1c565b92915050565b5f60208284031215611e5b57611e5a611b89565b5b5f611e6884828501611e32565b91505092915050565b5f602082019050611e845f830184611d77565b92915050565b5f5f60408385031215611ea057611e9f611b89565b5b5f611ead85828601611bd3565b9250506020611ebe85828601611e32565b9150509250929050565b5f602082019050611edb5f830184611ce9565b92915050565b611eea81611bac565b82525050565b611ef981611d4b565b82525050565b611f0881611d6b565b82525050565b611f1781611d86565b82525050565b61010082015f820151611f325f850182611c3b565b506020820151611f456020850182611ee1565b506040820151611f586040850182611ef0565b506060820151611f6b6060850182611c3b565b506080820151611f7e6080850182611c3b565b5060a0820151611f9160a0850182611eff565b5060c0820151611fa460c0850182611f0e565b5060e0820151611fb760e0850182611f0e565b50505050565b5f61010082019050611fd15f830184611f1d565b92915050565b5f82825260208201905092915050565b7f42756b616e206f776e65720000000000000000000000000000000000000000005f82015250565b5f61201b600b83611fd7565b915061202682611fe7565b602082019050919050565b5f6020820190508181035f8301526120488161200f565b9050919050565b5f81905092915050565b50565b5f6120675f8361204f565b915061207282612059565b5f82019050919050565b5f6120868261205c565b9150819050919050565b7f5472616e7366657220676167616c0000000000000000000000000000000000005f82015250565b5f6120c4600e83611fd7565b91506120cf82612090565b602082019050919050565b5f6020820190508181035f8301526120f1816120b8565b9050919050565b7f4973756666696369656e742042616c616e6365000000000000000000000000005f82015250565b5f61212c601383611fd7565b9150612137826120f8565b602082019050919050565b5f6020820190508181035f83015261215981612120565b9050919050565b7f4e487b71000000000000000000000000000000000000000000000000000000005f52601160045260245ffd5b5f61219782611b58565b91507fffffffffffffffffffffffffffffffffffffffffffffffffffffffffffffffff82036121c9576121c8612160565b5b600182019050919050565b5f6121de82611b58565b91506121e983611b58565b925082820390508181111561220157612200612160565b5b92915050565b7f4e487b71000000000000000000000000000000000000000000000000000000005f52601260045260245ffd5b5f61223e82611b58565b915061224983611b58565b92508261225957612258612207565b5b828204905092915050565b5f61226e82611b58565b915061227983611b58565b925082820261228781611b58565b9150828204841483151761229e5761229d612160565b5b5092915050565b7f4e6f7420796f757220706c616e742062756464792100000000000000000000005f82015250565b5f6122d9601583611fd7565b91506122e4826122a5565b602082019050919050565b5f6020820190508181035f830152612306816122cd565b9050919050565b5f819050919050565b5f819050919050565b5f61233961233461232f8461230d565b612316565b611d6b565b9050919050565b6123498161231f565b82525050565b5f6020820190506123625f830184612340565b92915050565b7f506c616e7420646f65736e2774206578697374210000000000000000000000005f82015250565b5f61239c601483611fd7565b91506123a782612368565b602082019050919050565b5f6020820190508181035f8301526123c981612390565b9050919050565b5f6020820190506123e35f830184611d5c565b92915050565b7f506c616e7420616c7265616479206465616400000000000000000000000000005f82015250565b5f61241d601283611fd7565b9150612428826123e9565b602082019050919050565b5f6020820190508181035f83015261244a81612411565b9050919050565b7f7472616e73666572206661696c656400000000000000000000000000000000005f82015250565b5f612485600f83611fd7565b915061249082612451565b602082019050919050565b5f6020820190508181035f8301526124b281612479565b905091905056fea2646970667358221220c0fdcaff2e01031917073edff9db0af6e6d2ed3c56375fb62d0e45885f9ccc8b64736f6c634300081e0033",
					"opcodes": "PUSH1 0x80 PUSH1 0x40 MSTORE CALLVALUE DUP1 ISZERO PUSH1 0xE JUMPI PUSH0 PUSH0 REVERT JUMPDEST POP CALLER PUSH1 0x8 PUSH0 PUSH2 0x100 EXP DUP2 SLOAD DUP2 PUSH20 0xFFFFFFFFFFFFFFFFFFFFFFFFFFFFFFFFFFFFFFFF MUL NOT AND SWAP1 DUP4 PUSH20 0xFFFFFFFFFFFFFFFFFFFFFFFFFFFFFFFFFFFFFFFF AND MUL OR SWAP1 SSTORE POP PUSH2 0x24EF DUP1 PUSH2 0x5C PUSH0 CODECOPY PUSH0 RETURN INVALID PUSH1 0x80 PUSH1 0x40 MSTORE PUSH1 0x4 CALLDATASIZE LT PUSH2 0x10C JUMPI PUSH0 CALLDATALOAD PUSH1 0xE0 SHR DUP1 PUSH4 0x8DA5CB5B GT PUSH2 0x94 JUMPI DUP1 PUSH4 0xBACB5EBD GT PUSH2 0x63 JUMPI DUP1 PUSH4 0xBACB5EBD EQ PUSH2 0x36D JUMPI DUP1 PUSH4 0xCFC9A5F8 EQ PUSH2 0x397 JUMPI DUP1 PUSH4 0xDDD42596 EQ PUSH2 0x3C1 JUMPI DUP1 PUSH4 0xE38F8448 EQ PUSH2 0x3E9 JUMPI DUP1 PUSH4 0xED0B1F5F EQ PUSH2 0x411 JUMPI PUSH2 0x113 JUMP JUMPDEST DUP1 PUSH4 0x8DA5CB5B EQ PUSH2 0x2AE JUMPI DUP1 PUSH4 0x8DD2361C EQ PUSH2 0x2D8 JUMPI DUP1 PUSH4 0x9886BCFA EQ PUSH2 0x31B JUMPI DUP1 PUSH4 0x9C471749 EQ PUSH2 0x343 JUMPI PUSH2 0x113 JUMP JUMPDEST DUP1 PUSH4 0x51F9EFDE GT PUSH2 0xDB JUMPI DUP1 PUSH4 0x51F9EFDE EQ PUSH2 0x1C4 JUMPI DUP1 PUSH4 0x74119A38 EQ PUSH2 0x1EE JUMPI DUP1 PUSH4 0x754E150D EQ PUSH2 0x20C JUMPI DUP1 PUSH4 0x891C0785 EQ PUSH2 0x248 JUMPI DUP1 PUSH4 0x8AEE578B EQ PUSH2 0x272 JUMPI PUSH2 0x113 JUMP JUMPDEST DUP1 PUSH4 0x2E0FC9FF EQ PUSH2 0x117 JUMPI DUP1 PUSH4 0x30CEC0EB EQ PUSH2 0x141 JUMPI DUP1 PUSH4 0x3A8FDFF0 EQ PUSH2 0x17D JUMPI DUP1 PUSH4 0x3CCFD60B EQ PUSH2 0x1AE JUMPI PUSH2 0x113 JUMP JUMPDEST CALLDATASIZE PUSH2 0x113 JUMPI STOP JUMPDEST PUSH0 PUSH0 REVERT JUMPDEST CALLVALUE DUP1 ISZERO PUSH2 0x122 JUMPI PUSH0 PUSH0 REVERT JUMPDEST POP PUSH2 0x12B PUSH2 0x44D JUMP JUMPDEST PUSH1 0x40 MLOAD PUSH2 0x138 SWAP2 SWAP1 PUSH2 0x1B70 JUMP JUMPDEST PUSH1 0x40 MLOAD DUP1 SWAP2 SUB SWAP1 RETURN JUMPDEST CALLVALUE DUP1 ISZERO PUSH2 0x14C JUMPI PUSH0 PUSH0 REVERT JUMPDEST POP PUSH2 0x167 PUSH1 0x4 DUP1 CALLDATASIZE SUB DUP2 ADD SWAP1 PUSH2 0x162 SWAP2 SWAP1 PUSH2 0x1BE7 JUMP JUMPDEST PUSH2 0x452 JUMP JUMPDEST PUSH1 0x40 MLOAD PUSH2 0x174 SWAP2 SWAP1 PUSH2 0x1CC9 JUMP JUMPDEST PUSH1 0x40 MLOAD DUP1 SWAP2 SUB SWAP1 RETURN JUMPDEST CALLVALUE DUP1 ISZERO PUSH2 0x188 JUMPI PUSH0 PUSH0 REVERT JUMPDEST POP PUSH2 0x191 PUSH2 0x4E5 JUMP JUMPDEST PUSH1 0x40 MLOAD PUSH2 0x1A5 SWAP9 SWAP8 SWAP7 SWAP6 SWAP5 SWAP4 SWAP3 SWAP2 SWAP1 PUSH2 0x1DA0 JUMP JUMPDEST PUSH1 0x40 MLOAD DUP1 SWAP2 SUB SWAP1 RETURN JUMPDEST CALLVALUE DUP1 ISZERO PUSH2 0x1B9 JUMPI PUSH0 PUSH0 REVERT JUMPDEST POP PUSH2 0x1C2 PUSH2 0x56B JUMP JUMPDEST STOP JUMPDEST CALLVALUE DUP1 ISZERO PUSH2 0x1CF JUMPI PUSH0 PUSH0 REVERT JUMPDEST POP PUSH2 0x1D8 PUSH2 0x6C6 JUMP JUMPDEST PUSH1 0x40 MLOAD PUSH2 0x1E5 SWAP2 SWAP1 PUSH2 0x1B70 JUMP JUMPDEST PUSH1 0x40 MLOAD DUP1 SWAP2 SUB SWAP1 RETURN JUMPDEST PUSH2 0x1F6 PUSH2 0x6CB JUMP JUMPDEST PUSH1 0x40 MLOAD PUSH2 0x203 SWAP2 SWAP1 PUSH2 0x1B70 JUMP JUMPDEST PUSH1 0x40 MLOAD DUP1 SWAP2 SUB SWAP1 RETURN JUMPDEST CALLVALUE DUP1 ISZERO PUSH2 0x217 JUMPI PUSH0 PUSH0 REVERT JUMPDEST POP PUSH2 0x232 PUSH1 0x4 DUP1 CALLDATASIZE SUB DUP2 ADD SWAP1 PUSH2 0x22D SWAP2 SWAP1 PUSH2 0x1E46 JUMP JUMPDEST PUSH2 0xA9B JUMP JUMPDEST PUSH1 0x40 MLOAD PUSH2 0x23F SWAP2 SWAP1 PUSH2 0x1E71 JUMP JUMPDEST PUSH1 0x40 MLOAD DUP1 SWAP2 SUB SWAP1 RETURN JUMPDEST CALLVALUE DUP1 ISZERO PUSH2 0x253 JUMPI PUSH0 PUSH0 REVERT JUMPDEST POP PUSH2 0x25C PUSH2 0xC4F JUMP JUMPDEST PUSH1 0x40 MLOAD PUSH2 0x269 SWAP2 SWAP1 PUSH2 0x1B70 JUMP JUMPDEST PUSH1 0x40 MLOAD DUP1 SWAP2 SUB SWAP1 RETURN JUMPDEST CALLVALUE DUP1 ISZERO PUSH2 0x27D JUMPI PUSH0 PUSH0 REVERT JUMPDEST POP PUSH2 0x298 PUSH1 0x4 DUP1 CALLDATASIZE SUB DUP2 ADD SWAP1 PUSH2 0x293 SWAP2 SWAP1 PUSH2 0x1E8A JUMP JUMPDEST PUSH2 0xC5A JUMP JUMPDEST PUSH1 0x40 MLOAD PUSH2 0x2A5 SWAP2 SWAP1 PUSH2 0x1B70 JUMP JUMPDEST PUSH1 0x40 MLOAD DUP1 SWAP2 SUB SWAP1 RETURN JUMPDEST CALLVALUE DUP1 ISZERO PUSH2 0x2B9 JUMPI PUSH0 PUSH0 REVERT JUMPDEST POP PUSH2 0x2C2 PUSH2 0xC85 JUMP JUMPDEST PUSH1 0x40 MLOAD PUSH2 0x2CF SWAP2 SWAP1 PUSH2 0x1EC8 JUMP JUMPDEST PUSH1 0x40 MLOAD DUP1 SWAP2 SUB SWAP1 RETURN JUMPDEST CALLVALUE DUP1 ISZERO PUSH2 0x2E3 JUMPI PUSH0 PUSH0 REVERT JUMPDEST POP PUSH2 0x2FE PUSH1 0x4 DUP1 CALLDATASIZE SUB DUP2 ADD SWAP1 PUSH2 0x2F9 SWAP2 SWAP1 PUSH2 0x1E46 JUMP JUMPDEST PUSH2 0xCAA JUMP JUMPDEST PUSH1 0x40 MLOAD PUSH2 0x312 SWAP9 SWAP8 SWAP7 SWAP6 SWAP5 SWAP4 SWAP3 SWAP2 SWAP1 PUSH2 0x1DA0 JUMP JUMPDEST PUSH1 0x40 MLOAD DUP1 SWAP2 SUB SWAP1 RETURN JUMPDEST CALLVALUE DUP1 ISZERO PUSH2 0x326 JUMPI PUSH0 PUSH0 REVERT JUMPDEST POP PUSH2 0x341 PUSH1 0x4 DUP1 CALLDATASIZE SUB DUP2 ADD SWAP1 PUSH2 0x33C SWAP2 SWAP1 PUSH2 0x1E46 JUMP JUMPDEST PUSH2 0xD40 JUMP JUMPDEST STOP JUMPDEST CALLVALUE DUP1 ISZERO PUSH2 0x34E JUMPI PUSH0 PUSH0 REVERT JUMPDEST POP PUSH2 0x357 PUSH2 0xE58 JUMP JUMPDEST PUSH1 0x40 MLOAD PUSH2 0x364 SWAP2 SWAP1 PUSH2 0x1B70 JUMP JUMPDEST PUSH1 0x40 MLOAD DUP1 SWAP2 SUB SWAP1 RETURN JUMPDEST CALLVALUE DUP1 ISZERO PUSH2 0x378 JUMPI PUSH0 PUSH0 REVERT JUMPDEST POP PUSH2 0x381 PUSH2 0xE5E JUMP JUMPDEST PUSH1 0x40 MLOAD PUSH2 0x38E SWAP2 SWAP1 PUSH2 0x1E71 JUMP JUMPDEST PUSH1 0x40 MLOAD DUP1 SWAP2 SUB SWAP1 RETURN JUMPDEST CALLVALUE DUP1 ISZERO PUSH2 0x3A2 JUMPI PUSH0 PUSH0 REVERT JUMPDEST POP PUSH2 0x3AB PUSH2 0xE63 JUMP JUMPDEST PUSH1 0x40 MLOAD PUSH2 0x3B8 SWAP2 SWAP1 PUSH2 0x1B70 JUMP JUMPDEST PUSH1 0x40 MLOAD DUP1 SWAP2 SUB SWAP1 RETURN JUMPDEST CALLVALUE DUP1 ISZERO PUSH2 0x3CC JUMPI PUSH0 PUSH0 REVERT JUMPDEST POP PUSH2 0x3E7 PUSH1 0x4 DUP1 CALLDATASIZE SUB DUP2 ADD SWAP1 PUSH2 0x3E2 SWAP2 SWAP1 PUSH2 0x1E46 JUMP JUMPDEST PUSH2 0xE6E JUMP JUMPDEST STOP JUMPDEST CALLVALUE DUP1 ISZERO PUSH2 0x3F4 JUMPI PUSH0 PUSH0 REVERT JUMPDEST POP PUSH2 0x40F PUSH1 0x4 DUP1 CALLDATASIZE SUB DUP2 ADD SWAP1 PUSH2 0x40A SWAP2 SWAP1 PUSH2 0x1E46 JUMP JUMPDEST PUSH2 0x1216 JUMP JUMPDEST STOP JUMPDEST CALLVALUE DUP1 ISZERO PUSH2 0x41C JUMPI PUSH0 PUSH0 REVERT JUMPDEST POP PUSH2 0x437 PUSH1 0x4 DUP1 CALLDATASIZE SUB DUP2 ADD SWAP1 PUSH2 0x432 SWAP2 SWAP1 PUSH2 0x1E46 JUMP JUMPDEST PUSH2 0x1808 JUMP JUMPDEST PUSH1 0x40 MLOAD PUSH2 0x444 SWAP2 SWAP1 PUSH2 0x1FBD JUMP JUMPDEST PUSH1 0x40 MLOAD DUP1 SWAP2 SUB SWAP1 RETURN JUMPDEST PUSH1 0x1E DUP2 JUMP JUMPDEST PUSH1 0x60 PUSH1 0x6 PUSH0 DUP4 PUSH20 0xFFFFFFFFFFFFFFFFFFFFFFFFFFFFFFFFFFFFFFFF AND PUSH20 0xFFFFFFFFFFFFFFFFFFFFFFFFFFFFFFFFFFFFFFFF AND DUP2 MSTORE PUSH1 0x20 ADD SWAP1 DUP2 MSTORE PUSH1 0x20 ADD PUSH0 KECCAK256 DUP1 SLOAD DUP1 PUSH1 0x20 MUL PUSH1 0x20 ADD PUSH1 0x40 MLOAD SWAP1 DUP2 ADD PUSH1 0x40 MSTORE DUP1 SWAP3 SWAP2 SWAP1 DUP2 DUP2 MSTORE PUSH1 0x20 ADD DUP3 DUP1 SLOAD DUP1 ISZERO PUSH2 0x4D9 JUMPI PUSH1 0x20 MUL DUP3 ADD SWAP2 SWAP1 PUSH0 MSTORE PUSH1 0x20 PUSH0 KECCAK256 SWAP1 JUMPDEST DUP2 SLOAD DUP2 MSTORE PUSH1 0x20 ADD SWAP1 PUSH1 0x1 ADD SWAP1 DUP1 DUP4 GT PUSH2 0x4C5 JUMPI JUMPDEST POP POP POP POP POP SWAP1 POP SWAP2 SWAP1 POP JUMP JUMPDEST PUSH0 DUP1 PUSH0 ADD SLOAD SWAP1 DUP1 PUSH1 0x1 ADD PUSH0 SWAP1 SLOAD SWAP1 PUSH2 0x100 EXP SWAP1 DIV PUSH20 0xFFFFFFFFFFFFFFFFFFFFFFFFFFFFFFFFFFFFFFFF AND SWAP1 DUP1 PUSH1 0x1 ADD PUSH1 0x14 SWAP1 SLOAD SWAP1 PUSH2 0x100 EXP SWAP1 DIV PUSH1 0xFF AND SWAP1 DUP1 PUSH1 0x2 ADD SLOAD SWAP1 DUP1 PUSH1 0x3 ADD SLOAD SWAP1 DUP1 PUSH1 0x4 ADD PUSH0 SWAP1 SLOAD SWAP1 PUSH2 0x100 EXP SWAP1 DIV PUSH1 0xFF AND SWAP1 DUP1 PUSH1 0x4 ADD PUSH1 0x1 SWAP1 SLOAD SWAP1 PUSH2 0x100 EXP SWAP1 DIV PUSH1 0xFF AND SWAP1 DUP1 PUSH1 0x4 ADD PUSH1 0x2 SWAP1 SLOAD SWAP1 PUSH2 0x100 EXP SWAP1 DIV PUSH1 0xFF AND SWAP1 POP DUP9 JUMP JUMPDEST PUSH1 0x8 PUSH0 SWAP1 SLOAD SWAP1 PUSH2 0x100 EXP SWAP1 DIV PUSH20 0xFFFFFFFFFFFFFFFFFFFFFFFFFFFFFFFFFFFFFFFF AND PUSH20 0xFFFFFFFFFFFFFFFFFFFFFFFFFFFFFFFFFFFFFFFF AND CALLER PUSH20 0xFFFFFFFFFFFFFFFFFFFFFFFFFFFFFFFFFFFFFFFF AND EQ PUSH2 0x5FA JUMPI PUSH1 0x40 MLOAD PUSH32 0x8C379A000000000000000000000000000000000000000000000000000000000 DUP2 MSTORE PUSH1 0x4 ADD PUSH2 0x5F1 SWAP1 PUSH2 0x2031 JUMP JUMPDEST PUSH1 0x40 MLOAD DUP1 SWAP2 SUB SWAP1 REVERT JUMPDEST PUSH0 PUSH1 0x8 PUSH0 SWAP1 SLOAD SWAP1 PUSH2 0x100 EXP SWAP1 DIV PUSH20 0xFFFFFFFFFFFFFFFFFFFFFFFFFFFFFFFFFFFFFFFF AND PUSH20 0xFFFFFFFFFFFFFFFFFFFFFFFFFFFFFFFFFFFFFFFF AND SELFBALANCE PUSH1 0x40 MLOAD PUSH2 0x640 SWAP1 PUSH2 0x207C JUMP JUMPDEST PUSH0 PUSH1 0x40 MLOAD DUP1 DUP4 SUB DUP2 DUP6 DUP8 GAS CALL SWAP3 POP POP POP RETURNDATASIZE DUP1 PUSH0 DUP2 EQ PUSH2 0x67A JUMPI PUSH1 0x40 MLOAD SWAP2 POP PUSH1 0x1F NOT PUSH1 0x3F RETURNDATASIZE ADD AND DUP3 ADD PUSH1 0x40 MSTORE RETURNDATASIZE DUP3 MSTORE RETURNDATASIZE PUSH0 PUSH1 0x20 DUP5 ADD RETURNDATACOPY PUSH2 0x67F JUMP JUMPDEST PUSH1 0x60 SWAP2 POP JUMPDEST POP POP SWAP1 POP DUP1 PUSH2 0x6C3 JUMPI PUSH1 0x40 MLOAD PUSH32 0x8C379A000000000000000000000000000000000000000000000000000000000 DUP2 MSTORE PUSH1 0x4 ADD PUSH2 0x6BA SWAP1 PUSH2 0x20DA JUMP JUMPDEST PUSH1 0x40 MLOAD DUP1 SWAP2 SUB SWAP1 REVERT JUMPDEST POP JUMP JUMPDEST PUSH1 0x3C DUP2 JUMP JUMPDEST PUSH0 PUSH7 0x38D7EA4C68000 CALLVALUE EQ PUSH2 0x715 JUMPI PUSH1 0x40 MLOAD PUSH32 0x8C379A000000000000000000000000000000000000000000000000000000000 DUP2 MSTORE PUSH1 0x4 ADD PUSH2 0x70C SWAP1 PUSH2 0x2142 JUMP JUMPDEST PUSH1 0x40 MLOAD DUP1 SWAP2 SUB SWAP1 REVERT JUMPDEST PUSH1 0x7 PUSH0 DUP2 SLOAD DUP1 SWAP3 SWAP2 SWAP1 PUSH2 0x727 SWAP1 PUSH2 0x218D JUMP JUMPDEST SWAP2 SWAP1 POP SSTORE POP PUSH0 PUSH1 0x7 SLOAD SWAP1 POP PUSH1 0x40 MLOAD DUP1 PUSH2 0x100 ADD PUSH1 0x40 MSTORE DUP1 DUP3 DUP2 MSTORE PUSH1 0x20 ADD CALLER PUSH20 0xFFFFFFFFFFFFFFFFFFFFFFFFFFFFFFFFFFFFFFFF AND DUP2 MSTORE PUSH1 0x20 ADD PUSH0 PUSH1 0x3 DUP2 GT ISZERO PUSH2 0x773 JUMPI PUSH2 0x772 PUSH2 0x1CF8 JUMP JUMPDEST JUMPDEST DUP2 MSTORE PUSH1 0x20 ADD TIMESTAMP DUP2 MSTORE PUSH1 0x20 ADD TIMESTAMP DUP2 MSTORE PUSH1 0x20 ADD PUSH1 0x64 PUSH1 0xFF AND DUP2 MSTORE PUSH1 0x20 ADD PUSH1 0x1 ISZERO ISZERO DUP2 MSTORE PUSH1 0x20 ADD PUSH1 0x1 ISZERO ISZERO DUP2 MSTORE POP PUSH0 PUSH0 DUP3 ADD MLOAD DUP2 PUSH0 ADD SSTORE PUSH1 0x20 DUP3 ADD MLOAD DUP2 PUSH1 0x1 ADD PUSH0 PUSH2 0x100 EXP DUP2 SLOAD DUP2 PUSH20 0xFFFFFFFFFFFFFFFFFFFFFFFFFFFFFFFFFFFFFFFF MUL NOT AND SWAP1 DUP4 PUSH20 0xFFFFFFFFFFFFFFFFFFFFFFFFFFFFFFFFFFFFFFFF AND MUL OR SWAP1 SSTORE POP PUSH1 0x40 DUP3 ADD MLOAD DUP2 PUSH1 0x1 ADD PUSH1 0x14 PUSH2 0x100 EXP DUP2 SLOAD DUP2 PUSH1 0xFF MUL NOT AND SWAP1 DUP4 PUSH1 0x3 DUP2 GT ISZERO PUSH2 0x818 JUMPI PUSH2 0x817 PUSH2 0x1CF8 JUMP JUMPDEST JUMPDEST MUL OR SWAP1 SSTORE POP PUSH1 0x60 DUP3 ADD MLOAD DUP2 PUSH1 0x2 ADD SSTORE PUSH1 0x80 DUP3 ADD MLOAD DUP2 PUSH1 0x3 ADD SSTORE PUSH1 0xA0 DUP3 ADD MLOAD DUP2 PUSH1 0x4 ADD PUSH0 PUSH2 0x100 EXP DUP2 SLOAD DUP2 PUSH1 0xFF MUL NOT AND SWAP1 DUP4 PUSH1 0xFF AND MUL OR SWAP1 SSTORE POP PUSH1 0xC0 DUP3 ADD MLOAD DUP2 PUSH1 0x4 ADD PUSH1 0x1 PUSH2 0x100 EXP DUP2 SLOAD DUP2 PUSH1 0xFF MUL NOT AND SWAP1 DUP4 ISZERO ISZERO MUL OR SWAP1 SSTORE POP PUSH1 0xE0 DUP3 ADD MLOAD DUP2 PUSH1 0x4 ADD PUSH1 0x2 PUSH2 0x100 EXP DUP2 SLOAD DUP2 PUSH1 0xFF MUL NOT AND SWAP1 DUP4 ISZERO ISZERO MUL OR SWAP1 SSTORE POP SWAP1 POP POP PUSH0 PUSH1 0x5 PUSH0 PUSH1 0x7 SLOAD DUP2 MSTORE PUSH1 0x20 ADD SWAP1 DUP2 MSTORE PUSH1 0x20 ADD PUSH0 KECCAK256 PUSH0 DUP3 ADD SLOAD DUP2 PUSH0 ADD SSTORE PUSH1 0x1 DUP3 ADD PUSH0 SWAP1 SLOAD SWAP1 PUSH2 0x100 EXP SWAP1 DIV PUSH20 0xFFFFFFFFFFFFFFFFFFFFFFFFFFFFFFFFFFFFFFFF AND DUP2 PUSH1 0x1 ADD PUSH0 PUSH2 0x100 EXP DUP2 SLOAD DUP2 PUSH20 0xFFFFFFFFFFFFFFFFFFFFFFFFFFFFFFFFFFFFFFFF MUL NOT AND SWAP1 DUP4 PUSH20 0xFFFFFFFFFFFFFFFFFFFFFFFFFFFFFFFFFFFFFFFF AND MUL OR SWAP1 SSTORE POP PUSH1 0x1 DUP3 ADD PUSH1 0x14 SWAP1 SLOAD SWAP1 PUSH2 0x100 EXP SWAP1 DIV PUSH1 0xFF AND DUP2 PUSH1 0x1 ADD PUSH1 0x14 PUSH2 0x100 EXP DUP2 SLOAD DUP2 PUSH1 0xFF MUL NOT AND SWAP1 DUP4 PUSH1 0x3 DUP2 GT ISZERO PUSH2 0x94D JUMPI PUSH2 0x94C PUSH2 0x1CF8 JUMP JUMPDEST JUMPDEST MUL OR SWAP1 SSTORE POP PUSH1 0x2 DUP3 ADD SLOAD DUP2 PUSH1 0x2 ADD SSTORE PUSH1 0x3 DUP3 ADD SLOAD DUP2 PUSH1 0x3 ADD SSTORE PUSH1 0x4 DUP3 ADD PUSH0 SWAP1 SLOAD SWAP1 PUSH2 0x100 EXP SWAP1 DIV PUSH1 0xFF AND DUP2 PUSH1 0x4 ADD PUSH0 PUSH2 0x100 EXP DUP2 SLOAD DUP2 PUSH1 0xFF MUL NOT AND SWAP1 DUP4 PUSH1 0xFF AND MUL OR SWAP1 SSTORE POP PUSH1 0x4 DUP3 ADD PUSH1 0x1 SWAP1 SLOAD SWAP1 PUSH2 0x100 EXP SWAP1 DIV PUSH1 0xFF AND DUP2 PUSH1 0x4 ADD PUSH1 0x1 PUSH2 0x100 EXP DUP2 SLOAD DUP2 PUSH1 0xFF MUL NOT AND SWAP1 DUP4 ISZERO ISZERO MUL OR SWAP1 SSTORE POP PUSH1 0x4 DUP3 ADD PUSH1 0x2 SWAP1 SLOAD SWAP1 PUSH2 0x100 EXP SWAP1 DIV PUSH1 0xFF AND DUP2 PUSH1 0x4 ADD PUSH1 0x2 PUSH2 0x100 EXP DUP2 SLOAD DUP2 PUSH1 0xFF MUL NOT AND SWAP1 DUP4 ISZERO ISZERO MUL OR SWAP1 SSTORE POP SWAP1 POP POP PUSH1 0x6 PUSH0 CALLER PUSH20 0xFFFFFFFFFFFFFFFFFFFFFFFFFFFFFFFFFFFFFFFF AND PUSH20 0xFFFFFFFFFFFFFFFFFFFFFFFFFFFFFFFFFFFFFFFF AND DUP2 MSTORE PUSH1 0x20 ADD SWAP1 DUP2 MSTORE PUSH1 0x20 ADD PUSH0 KECCAK256 DUP2 SWAP1 DUP1 PUSH1 0x1 DUP2 SLOAD ADD DUP1 DUP3 SSTORE DUP1 SWAP2 POP POP PUSH1 0x1 SWAP1 SUB SWAP1 PUSH0 MSTORE PUSH1 0x20 PUSH0 KECCAK256 ADD PUSH0 SWAP1 SWAP2 SWAP1 SWAP2 SWAP1 SWAP2 POP SSTORE DUP1 CALLER PUSH20 0xFFFFFFFFFFFFFFFFFFFFFFFFFFFFFFFFFFFFFFFF AND PUSH32 0x4F5B22082AC57121703B0B6C1203EF527CFBFA5069616FEE6DEB979D124ADBF0 PUSH1 0x40 MLOAD PUSH1 0x40 MLOAD DUP1 SWAP2 SUB SWAP1 LOG3 DUP1 SWAP2 POP POP SWAP1 JUMP JUMPDEST PUSH0 PUSH0 PUSH1 0x5 PUSH0 DUP5 DUP2 MSTORE PUSH1 0x20 ADD SWAP1 DUP2 MSTORE PUSH1 0x20 ADD PUSH0 KECCAK256 PUSH1 0x40 MLOAD DUP1 PUSH2 0x100 ADD PUSH1 0x40 MSTORE SWAP1 DUP2 PUSH0 DUP3 ADD SLOAD DUP2 MSTORE PUSH1 0x20 ADD PUSH1 0x1 DUP3 ADD PUSH0 SWAP1 SLOAD SWAP1 PUSH2 0x100 EXP SWAP1 DIV PUSH20 0xFFFFFFFFFFFFFFFFFFFFFFFFFFFFFFFFFFFFFFFF AND PUSH20 0xFFFFFFFFFFFFFFFFFFFFFFFFFFFFFFFFFFFFFFFF AND PUSH20 0xFFFFFFFFFFFFFFFFFFFFFFFFFFFFFFFFFFFFFFFF AND DUP2 MSTORE PUSH1 0x20 ADD PUSH1 0x1 DUP3 ADD PUSH1 0x14 SWAP1 SLOAD SWAP1 PUSH2 0x100 EXP SWAP1 DIV PUSH1 0xFF AND PUSH1 0x3 DUP2 GT ISZERO PUSH2 0xB3D JUMPI PUSH2 0xB3C PUSH2 0x1CF8 JUMP JUMPDEST JUMPDEST PUSH1 0x3 DUP2 GT ISZERO PUSH2 0xB4F JUMPI PUSH2 0xB4E PUSH2 0x1CF8 JUMP JUMPDEST JUMPDEST DUP2 MSTORE PUSH1 0x20 ADD PUSH1 0x2 DUP3 ADD SLOAD DUP2 MSTORE PUSH1 0x20 ADD PUSH1 0x3 DUP3 ADD SLOAD DUP2 MSTORE PUSH1 0x20 ADD PUSH1 0x4 DUP3 ADD PUSH0 SWAP1 SLOAD SWAP1 PUSH2 0x100 EXP SWAP1 DIV PUSH1 0xFF AND PUSH1 0xFF AND PUSH1 0xFF AND DUP2 MSTORE PUSH1 0x20 ADD PUSH1 0x4 DUP3 ADD PUSH1 0x1 SWAP1 SLOAD SWAP1 PUSH2 0x100 EXP SWAP1 DIV PUSH1 0xFF AND ISZERO ISZERO ISZERO ISZERO DUP2 MSTORE PUSH1 0x20 ADD PUSH1 0x4 DUP3 ADD PUSH1 0x2 SWAP1 SLOAD SWAP1 PUSH2 0x100 EXP SWAP1 DIV PUSH1 0xFF AND ISZERO ISZERO ISZERO ISZERO DUP2 MSTORE POP POP SWAP1 POP DUP1 PUSH1 0xC0 ADD MLOAD ISZERO DUP1 PUSH2 0xBCD JUMPI POP DUP1 PUSH1 0xE0 ADD MLOAD JUMPDEST ISZERO PUSH2 0xBDB JUMPI PUSH0 SWAP2 POP POP PUSH2 0xC4A JUMP JUMPDEST PUSH0 DUP2 PUSH1 0x80 ADD MLOAD TIMESTAMP PUSH2 0xBEC SWAP2 SWAP1 PUSH2 0x21D4 JUMP JUMPDEST SWAP1 POP PUSH0 PUSH1 0x1E DUP3 PUSH2 0xBFC SWAP2 SWAP1 PUSH2 0x2234 JUMP JUMPDEST SWAP1 POP PUSH0 PUSH1 0x2 PUSH1 0xFF AND DUP3 PUSH2 0xC0F SWAP2 SWAP1 PUSH2 0x2264 JUMP JUMPDEST SWAP1 POP DUP4 PUSH1 0xA0 ADD MLOAD PUSH1 0xFF AND DUP2 LT PUSH2 0xC2B JUMPI PUSH0 SWAP5 POP POP POP POP POP PUSH2 0xC4A JUMP JUMPDEST PUSH0 DUP2 DUP6 PUSH1 0xA0 ADD MLOAD PUSH1 0xFF AND PUSH2 0xC3F SWAP2 SWAP1 PUSH2 0x21D4 JUMP JUMPDEST SWAP1 POP DUP1 SWAP6 POP POP POP POP POP POP JUMPDEST SWAP2 SWAP1 POP JUMP JUMPDEST PUSH7 0xAA87BEE538000 DUP2 JUMP JUMPDEST PUSH1 0x6 PUSH1 0x20 MSTORE DUP2 PUSH0 MSTORE PUSH1 0x40 PUSH0 KECCAK256 DUP2 DUP2 SLOAD DUP2 LT PUSH2 0xC73 JUMPI PUSH0 DUP1 REVERT JUMPDEST SWAP1 PUSH0 MSTORE PUSH1 0x20 PUSH0 KECCAK256 ADD PUSH0 SWAP2 POP SWAP2 POP POP SLOAD DUP2 JUMP JUMPDEST PUSH1 0x8 PUSH0 SWAP1 SLOAD SWAP1 PUSH2 0x100 EXP SWAP1 DIV PUSH20 0xFFFFFFFFFFFFFFFFFFFFFFFFFFFFFFFFFFFFFFFF AND DUP2 JUMP JUMPDEST PUSH1 0x5 PUSH1 0x20 MSTORE DUP1 PUSH0 MSTORE PUSH1 0x40 PUSH0 KECCAK256 PUSH0 SWAP2 POP SWAP1 POP DUP1 PUSH0 ADD SLOAD SWAP1 DUP1 PUSH1 0x1 ADD PUSH0 SWAP1 SLOAD SWAP1 PUSH2 0x100 EXP SWAP1 DIV PUSH20 0xFFFFFFFFFFFFFFFFFFFFFFFFFFFFFFFFFFFFFFFF AND SWAP1 DUP1 PUSH1 0x1 ADD PUSH1 0x14 SWAP1 SLOAD SWAP1 PUSH2 0x100 EXP SWAP1 DIV PUSH1 0xFF AND SWAP1 DUP1 PUSH1 0x2 ADD SLOAD SWAP1 DUP1 PUSH1 0x3 ADD SLOAD SWAP1 DUP1 PUSH1 0x4 ADD PUSH0 SWAP1 SLOAD SWAP1 PUSH2 0x100 EXP SWAP1 DIV PUSH1 0xFF AND SWAP1 DUP1 PUSH1 0x4 ADD PUSH1 0x1 SWAP1 SLOAD SWAP1 PUSH2 0x100 EXP SWAP1 DIV PUSH1 0xFF AND SWAP1 DUP1 PUSH1 0x4 ADD PUSH1 0x2 SWAP1 SLOAD SWAP1 PUSH2 0x100 EXP SWAP1 DIV PUSH1 0xFF AND SWAP1 POP DUP9 JUMP JUMPDEST PUSH1 0x8 PUSH0 SWAP1 SLOAD SWAP1 PUSH2 0x100 EXP SWAP1 DIV PUSH20 0xFFFFFFFFFFFFFFFFFFFFFFFFFFFFFFFFFFFFFFFF AND PUSH20 0xFFFFFFFFFFFFFFFFFFFFFFFFFFFFFFFFFFFFFFFF AND CALLER PUSH20 0xFFFFFFFFFFFFFFFFFFFFFFFFFFFFFFFFFFFFFFFF AND EQ PUSH2 0xDCF JUMPI PUSH1 0x40 MLOAD PUSH32 0x8C379A000000000000000000000000000000000000000000000000000000000 DUP2 MSTORE PUSH1 0x4 ADD PUSH2 0xDC6 SWAP1 PUSH2 0x22EF JUMP JUMPDEST PUSH1 0x40 MLOAD DUP1 SWAP2 SUB SWAP1 REVERT JUMPDEST PUSH0 PUSH1 0x5 PUSH0 DUP4 DUP2 MSTORE PUSH1 0x20 ADD SWAP1 DUP2 MSTORE PUSH1 0x20 ADD PUSH0 KECCAK256 SWAP1 POP PUSH2 0xDEC DUP3 PUSH2 0x1952 JUMP JUMPDEST PUSH1 0x64 DUP2 PUSH1 0x4 ADD PUSH0 PUSH2 0x100 EXP DUP2 SLOAD DUP2 PUSH1 0xFF MUL NOT AND SWAP1 DUP4 PUSH1 0xFF AND MUL OR SWAP1 SSTORE POP TIMESTAMP DUP2 PUSH1 0x3 ADD DUP2 SWAP1 SSTORE POP DUP2 PUSH32 0xD4B742B9BA48FFFA1F14267075A7793851770764117C423FD0A6550DFC8CB574 PUSH1 0x64 PUSH1 0x40 MLOAD PUSH2 0xE43 SWAP2 SWAP1 PUSH2 0x234F JUMP JUMPDEST PUSH1 0x40 MLOAD DUP1 SWAP2 SUB SWAP1 LOG2 PUSH2 0xE54 DUP3 PUSH2 0xE6E JUMP JUMPDEST POP POP JUMP JUMPDEST PUSH1 0x7 SLOAD DUP2 JUMP JUMPDEST PUSH1 0x2 DUP2 JUMP JUMPDEST PUSH7 0x38D7EA4C68000 DUP2 JUMP JUMPDEST PUSH1 0x8 PUSH0 SWAP1 SLOAD SWAP1 PUSH2 0x100 EXP SWAP1 DIV PUSH20 0xFFFFFFFFFFFFFFFFFFFFFFFFFFFFFFFFFFFFFFFF AND PUSH20 0xFFFFFFFFFFFFFFFFFFFFFFFFFFFFFFFFFFFFFFFF AND CALLER PUSH20 0xFFFFFFFFFFFFFFFFFFFFFFFFFFFFFFFFFFFFFFFF AND EQ PUSH2 0xEFD JUMPI PUSH1 0x40 MLOAD PUSH32 0x8C379A000000000000000000000000000000000000000000000000000000000 DUP2 MSTORE PUSH1 0x4 ADD PUSH2 0xEF4 SWAP1 PUSH2 0x22EF JUMP JUMPDEST PUSH1 0x40 MLOAD DUP1 SWAP2 SUB SWAP1 REVERT JUMPDEST DUP1 PUSH0 PUSH1 0x5 PUSH0 DUP4 DUP2 MSTORE PUSH1 0x20 ADD SWAP1 DUP2 MSTORE PUSH1 0x20 ADD PUSH0 KECCAK256 PUSH1 0x40 MLOAD DUP1 PUSH2 0x100 ADD PUSH1 0x40 MSTORE SWAP1 DUP2 PUSH0 DUP3 ADD SLOAD DUP2 MSTORE PUSH1 0x20 ADD PUSH1 0x1 DUP3 ADD PUSH0 SWAP1 SLOAD SWAP1 PUSH2 0x100 EXP SWAP1 DIV PUSH20 0xFFFFFFFFFFFFFFFFFFFFFFFFFFFFFFFFFFFFFFFF AND PUSH20 0xFFFFFFFFFFFFFFFFFFFFFFFFFFFFFFFFFFFFFFFF AND PUSH20 0xFFFFFFFFFFFFFFFFFFFFFFFFFFFFFFFFFFFFFFFF AND DUP2 MSTORE PUSH1 0x20 ADD PUSH1 0x1 DUP3 ADD PUSH1 0x14 SWAP1 SLOAD SWAP1 PUSH2 0x100 EXP SWAP1 DIV PUSH1 0xFF AND PUSH1 0x3 DUP2 GT ISZERO PUSH2 0xF9F JUMPI PUSH2 0xF9E PUSH2 0x1CF8 JUMP JUMPDEST JUMPDEST PUSH1 0x3 DUP2 GT ISZERO PUSH2 0xFB1 JUMPI PUSH2 0xFB0 PUSH2 0x1CF8 JUMP JUMPDEST JUMPDEST DUP2 MSTORE PUSH1 0x20 ADD PUSH1 0x2 DUP3 ADD SLOAD DUP2 MSTORE PUSH1 0x20 ADD PUSH1 0x3 DUP3 ADD SLOAD DUP2 MSTORE PUSH1 0x20 ADD PUSH1 0x4 DUP3 ADD PUSH0 SWAP1 SLOAD SWAP1 PUSH2 0x100 EXP SWAP1 DIV PUSH1 0xFF AND PUSH1 0xFF AND PUSH1 0xFF AND DUP2 MSTORE PUSH1 0x20 ADD PUSH1 0x4 DUP3 ADD PUSH1 0x1 SWAP1 SLOAD SWAP1 PUSH2 0x100 EXP SWAP1 DIV PUSH1 0xFF AND ISZERO ISZERO ISZERO ISZERO DUP2 MSTORE PUSH1 0x20 ADD PUSH1 0x4 DUP3 ADD PUSH1 0x2 SWAP1 SLOAD SWAP1 PUSH2 0x100 EXP SWAP1 DIV PUSH1 0xFF AND ISZERO ISZERO ISZERO ISZERO DUP2 MSTORE POP POP SWAP1 POP DUP1 PUSH1 0xC0 ADD MLOAD PUSH2 0x1061 JUMPI PUSH1 0x40 MLOAD PUSH32 0x8C379A000000000000000000000000000000000000000000000000000000000 DUP2 MSTORE PUSH1 0x4 ADD PUSH2 0x1058 SWAP1 PUSH2 0x23B2 JUMP JUMPDEST PUSH1 0x40 MLOAD DUP1 SWAP2 SUB SWAP1 REVERT JUMPDEST PUSH0 PUSH1 0x5 PUSH0 DUP6 DUP2 MSTORE PUSH1 0x20 ADD SWAP1 DUP2 MSTORE PUSH1 0x20 ADD PUSH0 KECCAK256 SWAP1 POP PUSH2 0x107E DUP5 PUSH2 0x1952 JUMP JUMPDEST DUP1 PUSH1 0x4 ADD PUSH1 0x2 SWAP1 SLOAD SWAP1 PUSH2 0x100 EXP SWAP1 DIV PUSH1 0xFF AND ISZERO PUSH2 0x109B JUMPI POP PUSH2 0x1211 JUMP JUMPDEST PUSH0 DUP2 PUSH1 0x2 ADD SLOAD TIMESTAMP PUSH2 0x10AC SWAP2 SWAP1 PUSH2 0x21D4 JUMP JUMPDEST SWAP1 POP PUSH0 DUP3 PUSH1 0x1 ADD PUSH1 0x14 SWAP1 SLOAD SWAP1 PUSH2 0x100 EXP SWAP1 DIV PUSH1 0xFF AND SWAP1 POP PUSH1 0x3 PUSH1 0x3C PUSH2 0x10D1 SWAP2 SWAP1 PUSH2 0x2264 JUMP JUMPDEST DUP3 LT PUSH2 0x1109 JUMPI PUSH1 0x3 DUP4 PUSH1 0x1 ADD PUSH1 0x14 PUSH2 0x100 EXP DUP2 SLOAD DUP2 PUSH1 0xFF MUL NOT AND SWAP1 DUP4 PUSH1 0x3 DUP2 GT ISZERO PUSH2 0x10FF JUMPI PUSH2 0x10FE PUSH2 0x1CF8 JUMP JUMPDEST JUMPDEST MUL OR SWAP1 SSTORE POP PUSH2 0x1187 JUMP JUMPDEST PUSH1 0x2 PUSH1 0x3C PUSH2 0x1117 SWAP2 SWAP1 PUSH2 0x2264 JUMP JUMPDEST DUP3 LT PUSH2 0x114F JUMPI PUSH1 0x2 DUP4 PUSH1 0x1 ADD PUSH1 0x14 PUSH2 0x100 EXP DUP2 SLOAD DUP2 PUSH1 0xFF MUL NOT AND SWAP1 DUP4 PUSH1 0x3 DUP2 GT ISZERO PUSH2 0x1145 JUMPI PUSH2 0x1144 PUSH2 0x1CF8 JUMP JUMPDEST JUMPDEST MUL OR SWAP1 SSTORE POP PUSH2 0x1186 JUMP JUMPDEST PUSH1 0x3C DUP3 LT PUSH2 0x1185 JUMPI PUSH1 0x1 DUP4 PUSH1 0x1 ADD PUSH1 0x14 PUSH2 0x100 EXP DUP2 SLOAD DUP2 PUSH1 0xFF MUL NOT AND SWAP1 DUP4 PUSH1 0x3 DUP2 GT ISZERO PUSH2 0x117F JUMPI PUSH2 0x117E PUSH2 0x1CF8 JUMP JUMPDEST JUMPDEST MUL OR SWAP1 SSTORE POP JUMPDEST JUMPDEST JUMPDEST DUP1 PUSH1 0x3 DUP2 GT ISZERO PUSH2 0x119A JUMPI PUSH2 0x1199 PUSH2 0x1CF8 JUMP JUMPDEST JUMPDEST DUP4 PUSH1 0x1 ADD PUSH1 0x14 SWAP1 SLOAD SWAP1 PUSH2 0x100 EXP SWAP1 DIV PUSH1 0xFF AND PUSH1 0x3 DUP2 GT ISZERO PUSH2 0x11BE JUMPI PUSH2 0x11BD PUSH2 0x1CF8 JUMP JUMPDEST JUMPDEST EQ PUSH2 0x120D JUMPI DUP6 PUSH32 0x338B8976706F9DA67298DDDFA1EA4FF7D99CCE68B9CA39C4F348994F8E2124A8 DUP5 PUSH1 0x1 ADD PUSH1 0x14 SWAP1 SLOAD SWAP1 PUSH2 0x100 EXP SWAP1 DIV PUSH1 0xFF AND PUSH1 0x40 MLOAD PUSH2 0x1204 SWAP2 SWAP1 PUSH2 0x23D0 JUMP JUMPDEST PUSH1 0x40 MLOAD DUP1 SWAP2 SUB SWAP1 LOG2 JUMPDEST POP POP POP JUMPDEST POP POP POP JUMP JUMPDEST DUP1 PUSH0 PUSH1 0x5 PUSH0 DUP4 DUP2 MSTORE PUSH1 0x20 ADD SWAP1 DUP2 MSTORE PUSH1 0x20 ADD PUSH0 KECCAK256 PUSH1 0x40 MLOAD DUP1 PUSH2 0x100 ADD PUSH1 0x40 MSTORE SWAP1 DUP2 PUSH0 DUP3 ADD SLOAD DUP2 MSTORE PUSH1 0x20 ADD PUSH1 0x1 DUP3 ADD PUSH0 SWAP1 SLOAD SWAP1 PUSH2 0x100 EXP SWAP1 DIV PUSH20 0xFFFFFFFFFFFFFFFFFFFFFFFFFFFFFFFFFFFFFFFF AND PUSH20 0xFFFFFFFFFFFFFFFFFFFFFFFFFFFFFFFFFFFFFFFF AND PUSH20 0xFFFFFFFFFFFFFFFFFFFFFFFFFFFFFFFFFFFFFFFF AND DUP2 MSTORE PUSH1 0x20 ADD PUSH1 0x1 DUP3 ADD PUSH1 0x14 SWAP1 SLOAD SWAP1 PUSH2 0x100 EXP SWAP1 DIV PUSH1 0xFF AND PUSH1 0x3 DUP2 GT ISZERO PUSH2 0x12B8 JUMPI PUSH2 0x12B7 PUSH2 0x1CF8 JUMP JUMPDEST JUMPDEST PUSH1 0x3 DUP2 GT ISZERO PUSH2 0x12CA JUMPI PUSH2 0x12C9 PUSH2 0x1CF8 JUMP JUMPDEST JUMPDEST DUP2 MSTORE PUSH1 0x20 ADD PUSH1 0x2 DUP3 ADD SLOAD DUP2 MSTORE PUSH1 0x20 ADD PUSH1 0x3 DUP3 ADD SLOAD DUP2 MSTORE PUSH1 0x20 ADD PUSH1 0x4 DUP3 ADD PUSH0 SWAP1 SLOAD SWAP1 PUSH2 0x100 EXP SWAP1 DIV PUSH1 0xFF AND PUSH1 0xFF AND PUSH1 0xFF AND DUP2 MSTORE PUSH1 0x20 ADD PUSH1 0x4 DUP3 ADD PUSH1 0x1 SWAP1 SLOAD SWAP1 PUSH2 0x100 EXP SWAP1 DIV PUSH1 0xFF AND ISZERO ISZERO ISZERO ISZERO DUP2 MSTORE PUSH1 0x20 ADD PUSH1 0x4 DUP3 ADD PUSH1 0x2 SWAP1 SLOAD SWAP1 PUSH2 0x100 EXP SWAP1 DIV PUSH1 0xFF AND ISZERO ISZERO ISZERO ISZERO DUP2 MSTORE POP POP SWAP1 POP DUP1 PUSH1 0xC0 ADD MLOAD PUSH2 0x137A JUMPI PUSH1 0x40 MLOAD PUSH32 0x8C379A000000000000000000000000000000000000000000000000000000000 DUP2 MSTORE PUSH1 0x4 ADD PUSH2 0x1371 SWAP1 PUSH2 0x23B2 JUMP JUMPDEST PUSH1 0x40 MLOAD DUP1 SWAP2 SUB SWAP1 REVERT JUMPDEST PUSH1 0x8 PUSH0 SWAP1 SLOAD SWAP1 PUSH2 0x100 EXP SWAP1 DIV PUSH20 0xFFFFFFFFFFFFFFFFFFFFFFFFFFFFFFFFFFFFFFFF AND PUSH20 0xFFFFFFFFFFFFFFFFFFFFFFFFFFFFFFFFFFFFFFFF AND CALLER PUSH20 0xFFFFFFFFFFFFFFFFFFFFFFFFFFFFFFFFFFFFFFFF AND EQ PUSH2 0x1409 JUMPI PUSH1 0x40 MLOAD PUSH32 0x8C379A000000000000000000000000000000000000000000000000000000000 DUP2 MSTORE PUSH1 0x4 ADD PUSH2 0x1400 SWAP1 PUSH2 0x22EF JUMP JUMPDEST PUSH1 0x40 MLOAD DUP1 SWAP2 SUB SWAP1 REVERT JUMPDEST DUP3 PUSH0 PUSH1 0x5 PUSH0 DUP4 DUP2 MSTORE PUSH1 0x20 ADD SWAP1 DUP2 MSTORE PUSH1 0x20 ADD PUSH0 KECCAK256 PUSH1 0x40 MLOAD DUP1 PUSH2 0x100 ADD PUSH1 0x40 MSTORE SWAP1 DUP2 PUSH0 DUP3 ADD SLOAD DUP2 MSTORE PUSH1 0x20 ADD PUSH1 0x1 DUP3 ADD PUSH0 SWAP1 SLOAD SWAP1 PUSH2 0x100 EXP SWAP1 DIV PUSH20 0xFFFFFFFFFFFFFFFFFFFFFFFFFFFFFFFFFFFFFFFF AND PUSH20 0xFFFFFFFFFFFFFFFFFFFFFFFFFFFFFFFFFFFFFFFF AND PUSH20 0xFFFFFFFFFFFFFFFFFFFFFFFFFFFFFFFFFFFFFFFF AND DUP2 MSTORE PUSH1 0x20 ADD PUSH1 0x1 DUP3 ADD PUSH1 0x14 SWAP1 SLOAD SWAP1 PUSH2 0x100 EXP SWAP1 DIV PUSH1 0xFF AND PUSH1 0x3 DUP2 GT ISZERO PUSH2 0x14AB JUMPI PUSH2 0x14AA PUSH2 0x1CF8 JUMP JUMPDEST JUMPDEST PUSH1 0x3 DUP2 GT ISZERO PUSH2 0x14BD JUMPI PUSH2 0x14BC PUSH2 0x1CF8 JUMP JUMPDEST JUMPDEST DUP2 MSTORE PUSH1 0x20 ADD PUSH1 0x2 DUP3 ADD SLOAD DUP2 MSTORE PUSH1 0x20 ADD PUSH1 0x3 DUP3 ADD SLOAD DUP2 MSTORE PUSH1 0x20 ADD PUSH1 0x4 DUP3 ADD PUSH0 SWAP1 SLOAD SWAP1 PUSH2 0x100 EXP SWAP1 DIV PUSH1 0xFF AND PUSH1 0xFF AND PUSH1 0xFF AND DUP2 MSTORE PUSH1 0x20 ADD PUSH1 0x4 DUP3 ADD PUSH1 0x1 SWAP1 SLOAD SWAP1 PUSH2 0x100 EXP SWAP1 DIV PUSH1 0xFF AND ISZERO ISZERO ISZERO ISZERO DUP2 MSTORE PUSH1 0x20 ADD PUSH1 0x4 DUP3 ADD PUSH1 0x2 SWAP1 SLOAD SWAP1 PUSH2 0x100 EXP SWAP1 DIV PUSH1 0xFF AND ISZERO ISZERO ISZERO ISZERO DUP2 MSTORE POP POP SWAP1 POP DUP1 PUSH1 0xE0 ADD MLOAD ISZERO PUSH2 0x156E JUMPI PUSH1 0x40 MLOAD PUSH32 0x8C379A000000000000000000000000000000000000000000000000000000000 DUP2 MSTORE PUSH1 0x4 ADD PUSH2 0x1565 SWAP1 PUSH2 0x2433 JUMP JUMPDEST PUSH1 0x40 MLOAD DUP1 SWAP2 SUB SWAP1 REVERT JUMPDEST PUSH0 PUSH1 0x5 PUSH0 DUP8 DUP2 MSTORE PUSH1 0x20 ADD SWAP1 DUP2 MSTORE PUSH1 0x20 ADD PUSH0 KECCAK256 PUSH1 0x40 MLOAD DUP1 PUSH2 0x100 ADD PUSH1 0x40 MSTORE SWAP1 DUP2 PUSH0 DUP3 ADD SLOAD DUP2 MSTORE PUSH1 0x20 ADD PUSH1 0x1 DUP3 ADD PUSH0 SWAP1 SLOAD SWAP1 PUSH2 0x100 EXP SWAP1 DIV PUSH20 0xFFFFFFFFFFFFFFFFFFFFFFFFFFFFFFFFFFFFFFFF AND PUSH20 0xFFFFFFFFFFFFFFFFFFFFFFFFFFFFFFFFFFFFFFFF AND PUSH20 0xFFFFFFFFFFFFFFFFFFFFFFFFFFFFFFFFFFFFFFFF AND DUP2 MSTORE PUSH1 0x20 ADD PUSH1 0x1 DUP3 ADD PUSH1 0x14 SWAP1 SLOAD SWAP1 PUSH2 0x100 EXP SWAP1 DIV PUSH1 0xFF AND PUSH1 0x3 DUP2 GT ISZERO PUSH2 0x160F JUMPI PUSH2 0x160E PUSH2 0x1CF8 JUMP JUMPDEST JUMPDEST PUSH1 0x3 DUP2 GT ISZERO PUSH2 0x1621 JUMPI PUSH2 0x1620 PUSH2 0x1CF8 JUMP JUMPDEST JUMPDEST DUP2 MSTORE PUSH1 0x20 ADD PUSH1 0x2 DUP3 ADD SLOAD DUP2 MSTORE PUSH1 0x20 ADD PUSH1 0x3 DUP3 ADD SLOAD DUP2 MSTORE PUSH1 0x20 ADD PUSH1 0x4 DUP3 ADD PUSH0 SWAP1 SLOAD SWAP1 PUSH2 0x100 EXP SWAP1 DIV PUSH1 0xFF AND PUSH1 0xFF AND PUSH1 0xFF AND DUP2 MSTORE PUSH1 0x20 ADD PUSH1 0x4 DUP3 ADD PUSH1 0x1 SWAP1 SLOAD SWAP1 PUSH2 0x100 EXP SWAP1 DIV PUSH1 0xFF AND ISZERO ISZERO ISZERO ISZERO DUP2 MSTORE PUSH1 0x20 ADD PUSH1 0x4 DUP3 ADD PUSH1 0x2 SWAP1 SLOAD SWAP1 PUSH2 0x100 EXP SWAP1 DIV PUSH1 0xFF AND ISZERO ISZERO ISZERO ISZERO DUP2 MSTORE POP POP SWAP1 POP PUSH2 0x1696 DUP7 PUSH2 0xE6E JUMP JUMPDEST PUSH1 0x3 DUP1 DUP2 GT ISZERO PUSH2 0x16A9 JUMPI PUSH2 0x16A8 PUSH2 0x1CF8 JUMP JUMPDEST JUMPDEST DUP2 PUSH1 0x40 ADD MLOAD PUSH1 0x3 DUP2 GT ISZERO PUSH2 0x16C0 JUMPI PUSH2 0x16BF PUSH2 0x1CF8 JUMP JUMPDEST JUMPDEST EQ PUSH2 0x16C9 JUMPI PUSH0 PUSH0 REVERT JUMPDEST PUSH0 DUP2 PUSH1 0xC0 ADD SWAP1 ISZERO ISZERO SWAP1 DUP2 ISZERO ISZERO DUP2 MSTORE POP POP PUSH1 0x8 PUSH0 SWAP1 SLOAD SWAP1 PUSH2 0x100 EXP SWAP1 DIV PUSH20 0xFFFFFFFFFFFFFFFFFFFFFFFFFFFFFFFFFFFFFFFF AND PUSH20 0xFFFFFFFFFFFFFFFFFFFFFFFFFFFFFFFFFFFFFFFF AND DUP7 PUSH32 0x79F2138EA100070FF95B59C265DA7AA3C7A0F61595FE1BB2F5FDA2762F398847 PUSH7 0xAA87BEE538000 PUSH1 0x40 MLOAD PUSH2 0x1748 SWAP2 SWAP1 PUSH2 0x1B70 JUMP JUMPDEST PUSH1 0x40 MLOAD DUP1 SWAP2 SUB SWAP1 LOG3 PUSH0 CALLER PUSH20 0xFFFFFFFFFFFFFFFFFFFFFFFFFFFFFFFFFFFFFFFF AND PUSH7 0xAA87BEE538000 PUSH1 0x40 MLOAD PUSH2 0x177C SWAP1 PUSH2 0x207C JUMP JUMPDEST PUSH0 PUSH1 0x40 MLOAD DUP1 DUP4 SUB DUP2 DUP6 DUP8 GAS CALL SWAP3 POP POP POP RETURNDATASIZE DUP1 PUSH0 DUP2 EQ PUSH2 0x17B6 JUMPI PUSH1 0x40 MLOAD SWAP2 POP PUSH1 0x1F NOT PUSH1 0x3F RETURNDATASIZE ADD AND DUP3 ADD PUSH1 0x40 MSTORE RETURNDATASIZE DUP3 MSTORE RETURNDATASIZE PUSH0 PUSH1 0x20 DUP5 ADD RETURNDATACOPY PUSH2 0x17BB JUMP JUMPDEST PUSH1 0x60 SWAP2 POP JUMPDEST POP POP SWAP1 POP DUP1 PUSH2 0x17FF JUMPI PUSH1 0x40 MLOAD PUSH32 0x8C379A000000000000000000000000000000000000000000000000000000000 DUP2 MSTORE PUSH1 0x4 ADD PUSH2 0x17F6 SWAP1 PUSH2 0x249B JUMP JUMPDEST PUSH1 0x40 MLOAD DUP1 SWAP2 SUB SWAP1 REVERT JUMPDEST POP POP POP POP POP POP POP JUMP JUMPDEST PUSH2 0x1810 PUSH2 0x1AEC JUMP JUMPDEST PUSH0 PUSH1 0x5 PUSH0 DUP5 DUP2 MSTORE PUSH1 0x20 ADD SWAP1 DUP2 MSTORE PUSH1 0x20 ADD PUSH0 KECCAK256 PUSH1 0x40 MLOAD DUP1 PUSH2 0x100 ADD PUSH1 0x40 MSTORE SWAP1 DUP2 PUSH0 DUP3 ADD SLOAD DUP2 MSTORE PUSH1 0x20 ADD PUSH1 0x1 DUP3 ADD PUSH0 SWAP1 SLOAD SWAP1 PUSH2 0x100 EXP SWAP1 DIV PUSH20 0xFFFFFFFFFFFFFFFFFFFFFFFFFFFFFFFFFFFFFFFF AND PUSH20 0xFFFFFFFFFFFFFFFFFFFFFFFFFFFFFFFFFFFFFFFF AND PUSH20 0xFFFFFFFFFFFFFFFFFFFFFFFFFFFFFFFFFFFFFFFF AND DUP2 MSTORE PUSH1 0x20 ADD PUSH1 0x1 DUP3 ADD PUSH1 0x14 SWAP1 SLOAD SWAP1 PUSH2 0x100 EXP SWAP1 DIV PUSH1 0xFF AND PUSH1 0x3 DUP2 GT ISZERO PUSH2 0x18B1 JUMPI PUSH2 0x18B0 PUSH2 0x1CF8 JUMP JUMPDEST JUMPDEST PUSH1 0x3 DUP2 GT ISZERO PUSH2 0x18C3 JUMPI PUSH2 0x18C2 PUSH2 0x1CF8 JUMP JUMPDEST JUMPDEST DUP2 MSTORE PUSH1 0x20 ADD PUSH1 0x2 DUP3 ADD SLOAD DUP2 MSTORE PUSH1 0x20 ADD PUSH1 0x3 DUP3 ADD SLOAD DUP2 MSTORE PUSH1 0x20 ADD PUSH1 0x4 DUP3 ADD PUSH0 SWAP1 SLOAD SWAP1 PUSH2 0x100 EXP SWAP1 DIV PUSH1 0xFF AND PUSH1 0xFF AND PUSH1 0xFF AND DUP2 MSTORE PUSH1 0x20 ADD PUSH1 0x4 DUP3 ADD PUSH1 0x1 SWAP1 SLOAD SWAP1 PUSH2 0x100 EXP SWAP1 DIV PUSH1 0xFF AND ISZERO ISZERO ISZERO ISZERO DUP2 MSTORE PUSH1 0x20 ADD PUSH1 0x4 DUP3 ADD PUSH1 0x2 SWAP1 SLOAD SWAP1 PUSH2 0x100 EXP SWAP1 DIV PUSH1 0xFF AND ISZERO ISZERO ISZERO ISZERO DUP2 MSTORE POP POP SWAP1 POP PUSH2 0x1938 DUP4 PUSH2 0xA9B JUMP JUMPDEST DUP2 PUSH1 0xA0 ADD SWAP1 PUSH1 0xFF AND SWAP1 DUP2 PUSH1 0xFF AND DUP2 MSTORE POP POP DUP1 SWAP2 POP POP SWAP2 SWAP1 POP JUMP JUMPDEST PUSH0 PUSH1 0x5 PUSH0 DUP4 DUP2 MSTORE PUSH1 0x20 ADD SWAP1 DUP2 MSTORE PUSH1 0x20 ADD PUSH0 KECCAK256 PUSH1 0x40 MLOAD DUP1 PUSH2 0x100 ADD PUSH1 0x40 MSTORE SWAP1 DUP2 PUSH0 DUP3 ADD SLOAD DUP2 MSTORE PUSH1 0x20 ADD PUSH1 0x1 DUP3 ADD PUSH0 SWAP1 SLOAD SWAP1 PUSH2 0x100 EXP SWAP1 DIV PUSH20 0xFFFFFFFFFFFFFFFFFFFFFFFFFFFFFFFFFFFFFFFF AND PUSH20 0xFFFFFFFFFFFFFFFFFFFFFFFFFFFFFFFFFFFFFFFF AND PUSH20 0xFFFFFFFFFFFFFFFFFFFFFFFFFFFFFFFFFFFFFFFF AND DUP2 MSTORE PUSH1 0x20 ADD PUSH1 0x1 DUP3 ADD PUSH1 0x14 SWAP1 SLOAD SWAP1 PUSH2 0x100 EXP SWAP1 DIV PUSH1 0xFF AND PUSH1 0x3 DUP2 GT ISZERO PUSH2 0x19F3 JUMPI PUSH2 0x19F2 PUSH2 0x1CF8 JUMP JUMPDEST JUMPDEST PUSH1 0x3 DUP2 GT ISZERO PUSH2 0x1A05 JUMPI PUSH2 0x1A04 PUSH2 0x1CF8 JUMP JUMPDEST JUMPDEST DUP2 MSTORE PUSH1 0x20 ADD PUSH1 0x2 DUP3 ADD SLOAD DUP2 MSTORE PUSH1 0x20 ADD PUSH1 0x3 DUP3 ADD SLOAD DUP2 MSTORE PUSH1 0x20 ADD PUSH1 0x4 DUP3 ADD PUSH0 SWAP1 SLOAD SWAP1 PUSH2 0x100 EXP SWAP1 DIV PUSH1 0xFF AND PUSH1 0xFF AND PUSH1 0xFF AND DUP2 MSTORE PUSH1 0x20 ADD PUSH1 0x4 DUP3 ADD PUSH1 0x1 SWAP1 SLOAD SWAP1 PUSH2 0x100 EXP SWAP1 DIV PUSH1 0xFF AND ISZERO ISZERO ISZERO ISZERO DUP2 MSTORE PUSH1 0x20 ADD PUSH1 0x4 DUP3 ADD PUSH1 0x2 SWAP1 SLOAD SWAP1 PUSH2 0x100 EXP SWAP1 DIV PUSH1 0xFF AND ISZERO ISZERO ISZERO ISZERO DUP2 MSTORE POP POP SWAP1 POP PUSH0 PUSH2 0x1A7B DUP4 PUSH2 0xA9B JUMP JUMPDEST SWAP1 POP DUP1 DUP3 PUSH1 0xA0 ADD SWAP1 PUSH1 0xFF AND SWAP1 DUP2 PUSH1 0xFF AND DUP2 MSTORE POP POP PUSH0 DUP2 PUSH1 0xFF AND EQ DUP1 ISZERO PUSH2 0x1AA3 JUMPI POP DUP2 PUSH1 0xE0 ADD MLOAD ISZERO JUMPDEST ISZERO PUSH2 0x1AE7 JUMPI PUSH1 0x1 DUP3 PUSH1 0xE0 ADD SWAP1 ISZERO ISZERO SWAP1 DUP2 ISZERO ISZERO DUP2 MSTORE POP POP DUP3 PUSH32 0xCC296A21951F3E57F21AFB08547D835A0A9F0F06CC2867009CBE0CAE44D36BE9 PUSH1 0x40 MLOAD PUSH1 0x40 MLOAD DUP1 SWAP2 SUB SWAP1 LOG2 JUMPDEST POP POP POP JUMP JUMPDEST PUSH1 0x40 MLOAD DUP1 PUSH2 0x100 ADD PUSH1 0x40 MSTORE DUP1 PUSH0 DUP2 MSTORE PUSH1 0x20 ADD PUSH0 PUSH20 0xFFFFFFFFFFFFFFFFFFFFFFFFFFFFFFFFFFFFFFFF AND DUP2 MSTORE PUSH1 0x20 ADD PUSH0 PUSH1 0x3 DUP2 GT ISZERO PUSH2 0x1B2D JUMPI PUSH2 0x1B2C PUSH2 0x1CF8 JUMP JUMPDEST JUMPDEST DUP2 MSTORE PUSH1 0x20 ADD PUSH0 DUP2 MSTORE PUSH1 0x20 ADD PUSH0 DUP2 MSTORE PUSH1 0x20 ADD PUSH0 PUSH1 0xFF AND DUP2 MSTORE PUSH1 0x20 ADD PUSH0 ISZERO ISZERO DUP2 MSTORE PUSH1 0x20 ADD PUSH0 ISZERO ISZERO DUP2 MSTORE POP SWAP1 JUMP JUMPDEST PUSH0 DUP2 SWAP1 POP SWAP2 SWAP1 POP JUMP JUMPDEST PUSH2 0x1B6A DUP2 PUSH2 0x1B58 JUMP JUMPDEST DUP3 MSTORE POP POP JUMP JUMPDEST PUSH0 PUSH1 0x20 DUP3 ADD SWAP1 POP PUSH2 0x1B83 PUSH0 DUP4 ADD DUP5 PUSH2 0x1B61 JUMP JUMPDEST SWAP3 SWAP2 POP POP JUMP JUMPDEST PUSH0 PUSH0 REVERT JUMPDEST PUSH0 PUSH20 0xFFFFFFFFFFFFFFFFFFFFFFFFFFFFFFFFFFFFFFFF DUP3 AND SWAP1 POP SWAP2 SWAP1 POP JUMP JUMPDEST PUSH0 PUSH2 0x1BB6 DUP3 PUSH2 0x1B8D JUMP JUMPDEST SWAP1 POP SWAP2 SWAP1 POP JUMP JUMPDEST PUSH2 0x1BC6 DUP2 PUSH2 0x1BAC JUMP JUMPDEST DUP2 EQ PUSH2 0x1BD0 JUMPI PUSH0 PUSH0 REVERT JUMPDEST POP JUMP JUMPDEST PUSH0 DUP2 CALLDATALOAD SWAP1 POP PUSH2 0x1BE1 DUP2 PUSH2 0x1BBD JUMP JUMPDEST SWAP3 SWAP2 POP POP JUMP JUMPDEST PUSH0 PUSH1 0x20 DUP3 DUP5 SUB SLT ISZERO PUSH2 0x1BFC JUMPI PUSH2 0x1BFB PUSH2 0x1B89 JUMP JUMPDEST JUMPDEST PUSH0 PUSH2 0x1C09 DUP5 DUP3 DUP6 ADD PUSH2 0x1BD3 JUMP JUMPDEST SWAP2 POP POP SWAP3 SWAP2 POP POP JUMP JUMPDEST PUSH0 DUP2 MLOAD SWAP1 POP SWAP2 SWAP1 POP JUMP JUMPDEST PUSH0 DUP3 DUP3 MSTORE PUSH1 0x20 DUP3 ADD SWAP1 POP SWAP3 SWAP2 POP POP JUMP JUMPDEST PUSH0 DUP2 SWAP1 POP PUSH1 0x20 DUP3 ADD SWAP1 POP SWAP2 SWAP1 POP JUMP JUMPDEST PUSH2 0x1C44 DUP2 PUSH2 0x1B58 JUMP JUMPDEST DUP3 MSTORE POP POP JUMP JUMPDEST PUSH0 PUSH2 0x1C55 DUP4 DUP4 PUSH2 0x1C3B JUMP JUMPDEST PUSH1 0x20 DUP4 ADD SWAP1 POP SWAP3 SWAP2 POP POP JUMP JUMPDEST PUSH0 PUSH1 0x20 DUP3 ADD SWAP1 POP SWAP2 SWAP1 POP JUMP JUMPDEST PUSH0 PUSH2 0x1C77 DUP3 PUSH2 0x1C12 JUMP JUMPDEST PUSH2 0x1C81 DUP2 DUP6 PUSH2 0x1C1C JUMP JUMPDEST SWAP4 POP PUSH2 0x1C8C DUP4 PUSH2 0x1C2C JUMP JUMPDEST DUP1 PUSH0 JUMPDEST DUP4 DUP2 LT ISZERO PUSH2 0x1CBC JUMPI DUP2 MLOAD PUSH2 0x1CA3 DUP9 DUP3 PUSH2 0x1C4A JUMP JUMPDEST SWAP8 POP PUSH2 0x1CAE DUP4 PUSH2 0x1C61 JUMP JUMPDEST SWAP3 POP POP PUSH1 0x1 DUP2 ADD SWAP1 POP PUSH2 0x1C8F JUMP JUMPDEST POP DUP6 SWAP4 POP POP POP POP SWAP3 SWAP2 POP POP JUMP JUMPDEST PUSH0 PUSH1 0x20 DUP3 ADD SWAP1 POP DUP2 DUP2 SUB PUSH0 DUP4 ADD MSTORE PUSH2 0x1CE1 DUP2 DUP5 PUSH2 0x1C6D JUMP JUMPDEST SWAP1 POP SWAP3 SWAP2 POP POP JUMP JUMPDEST PUSH2 0x1CF2 DUP2 PUSH2 0x1BAC JUMP JUMPDEST DUP3 MSTORE POP POP JUMP JUMPDEST PUSH32 0x4E487B7100000000000000000000000000000000000000000000000000000000 PUSH0 MSTORE PUSH1 0x21 PUSH1 0x4 MSTORE PUSH1 0x24 PUSH0 REVERT JUMPDEST PUSH1 0x4 DUP2 LT PUSH2 0x1D36 JUMPI PUSH2 0x1D35 PUSH2 0x1CF8 JUMP JUMPDEST JUMPDEST POP JUMP JUMPDEST PUSH0 DUP2 SWAP1 POP PUSH2 0x1D46 DUP3 PUSH2 0x1D25 JUMP JUMPDEST SWAP2 SWAP1 POP JUMP JUMPDEST PUSH0 PUSH2 0x1D55 DUP3 PUSH2 0x1D39 JUMP JUMPDEST SWAP1 POP SWAP2 SWAP1 POP JUMP JUMPDEST PUSH2 0x1D65 DUP2 PUSH2 0x1D4B JUMP JUMPDEST DUP3 MSTORE POP POP JUMP JUMPDEST PUSH0 PUSH1 0xFF DUP3 AND SWAP1 POP SWAP2 SWAP1 POP JUMP JUMPDEST PUSH2 0x1D80 DUP2 PUSH2 0x1D6B JUMP JUMPDEST DUP3 MSTORE POP POP JUMP JUMPDEST PUSH0 DUP2 ISZERO ISZERO SWAP1 POP SWAP2 SWAP1 POP JUMP JUMPDEST PUSH2 0x1D9A DUP2 PUSH2 0x1D86 JUMP JUMPDEST DUP3 MSTORE POP POP JUMP JUMPDEST PUSH0 PUSH2 0x100 DUP3 ADD SWAP1 POP PUSH2 0x1DB4 PUSH0 DUP4 ADD DUP12 PUSH2 0x1B61 JUMP JUMPDEST PUSH2 0x1DC1 PUSH1 0x20 DUP4 ADD DUP11 PUSH2 0x1CE9 JUMP JUMPDEST PUSH2 0x1DCE PUSH1 0x40 DUP4 ADD DUP10 PUSH2 0x1D5C JUMP JUMPDEST PUSH2 0x1DDB PUSH1 0x60 DUP4 ADD DUP9 PUSH2 0x1B61 JUMP JUMPDEST PUSH2 0x1DE8 PUSH1 0x80 DUP4 ADD DUP8 PUSH2 0x1B61 JUMP JUMPDEST PUSH2 0x1DF5 PUSH1 0xA0 DUP4 ADD DUP7 PUSH2 0x1D77 JUMP JUMPDEST PUSH2 0x1E02 PUSH1 0xC0 DUP4 ADD DUP6 PUSH2 0x1D91 JUMP JUMPDEST PUSH2 0x1E0F PUSH1 0xE0 DUP4 ADD DUP5 PUSH2 0x1D91 JUMP JUMPDEST SWAP10 SWAP9 POP POP POP POP POP POP POP POP POP JUMP JUMPDEST PUSH2 0x1E25 DUP2 PUSH2 0x1B58 JUMP JUMPDEST DUP2 EQ PUSH2 0x1E2F JUMPI PUSH0 PUSH0 REVERT JUMPDEST POP JUMP JUMPDEST PUSH0 DUP2 CALLDATALOAD SWAP1 POP PUSH2 0x1E40 DUP2 PUSH2 0x1E1C JUMP JUMPDEST SWAP3 SWAP2 POP POP JUMP JUMPDEST PUSH0 PUSH1 0x20 DUP3 DUP5 SUB SLT ISZERO PUSH2 0x1E5B JUMPI PUSH2 0x1E5A PUSH2 0x1B89 JUMP JUMPDEST JUMPDEST PUSH0 PUSH2 0x1E68 DUP5 DUP3 DUP6 ADD PUSH2 0x1E32 JUMP JUMPDEST SWAP2 POP POP SWAP3 SWAP2 POP POP JUMP JUMPDEST PUSH0 PUSH1 0x20 DUP3 ADD SWAP1 POP PUSH2 0x1E84 PUSH0 DUP4 ADD DUP5 PUSH2 0x1D77 JUMP JUMPDEST SWAP3 SWAP2 POP POP JUMP JUMPDEST PUSH0 PUSH0 PUSH1 0x40 DUP4 DUP6 SUB SLT ISZERO PUSH2 0x1EA0 JUMPI PUSH2 0x1E9F PUSH2 0x1B89 JUMP JUMPDEST JUMPDEST PUSH0 PUSH2 0x1EAD DUP6 DUP3 DUP7 ADD PUSH2 0x1BD3 JUMP JUMPDEST SWAP3 POP POP PUSH1 0x20 PUSH2 0x1EBE DUP6 DUP3 DUP7 ADD PUSH2 0x1E32 JUMP JUMPDEST SWAP2 POP POP SWAP3 POP SWAP3 SWAP1 POP JUMP JUMPDEST PUSH0 PUSH1 0x20 DUP3 ADD SWAP1 POP PUSH2 0x1EDB PUSH0 DUP4 ADD DUP5 PUSH2 0x1CE9 JUMP JUMPDEST SWAP3 SWAP2 POP POP JUMP JUMPDEST PUSH2 0x1EEA DUP2 PUSH2 0x1BAC JUMP JUMPDEST DUP3 MSTORE POP POP JUMP JUMPDEST PUSH2 0x1EF9 DUP2 PUSH2 0x1D4B JUMP JUMPDEST DUP3 MSTORE POP POP JUMP JUMPDEST PUSH2 0x1F08 DUP2 PUSH2 0x1D6B JUMP JUMPDEST DUP3 MSTORE POP POP JUMP JUMPDEST PUSH2 0x1F17 DUP2 PUSH2 0x1D86 JUMP JUMPDEST DUP3 MSTORE POP POP JUMP JUMPDEST PUSH2 0x100 DUP3 ADD PUSH0 DUP3 ADD MLOAD PUSH2 0x1F32 PUSH0 DUP6 ADD DUP3 PUSH2 0x1C3B JUMP JUMPDEST POP PUSH1 0x20 DUP3 ADD MLOAD PUSH2 0x1F45 PUSH1 0x20 DUP6 ADD DUP3 PUSH2 0x1EE1 JUMP JUMPDEST POP PUSH1 0x40 DUP3 ADD MLOAD PUSH2 0x1F58 PUSH1 0x40 DUP6 ADD DUP3 PUSH2 0x1EF0 JUMP JUMPDEST POP PUSH1 0x60 DUP3 ADD MLOAD PUSH2 0x1F6B PUSH1 0x60 DUP6 ADD DUP3 PUSH2 0x1C3B JUMP JUMPDEST POP PUSH1 0x80 DUP3 ADD MLOAD PUSH2 0x1F7E PUSH1 0x80 DUP6 ADD DUP3 PUSH2 0x1C3B JUMP JUMPDEST POP PUSH1 0xA0 DUP3 ADD MLOAD PUSH2 0x1F91 PUSH1 0xA0 DUP6 ADD DUP3 PUSH2 0x1EFF JUMP JUMPDEST POP PUSH1 0xC0 DUP3 ADD MLOAD PUSH2 0x1FA4 PUSH1 0xC0 DUP6 ADD DUP3 PUSH2 0x1F0E JUMP JUMPDEST POP PUSH1 0xE0 DUP3 ADD MLOAD PUSH2 0x1FB7 PUSH1 0xE0 DUP6 ADD DUP3 PUSH2 0x1F0E JUMP JUMPDEST POP POP POP POP JUMP JUMPDEST PUSH0 PUSH2 0x100 DUP3 ADD SWAP1 POP PUSH2 0x1FD1 PUSH0 DUP4 ADD DUP5 PUSH2 0x1F1D JUMP JUMPDEST SWAP3 SWAP2 POP POP JUMP JUMPDEST PUSH0 DUP3 DUP3 MSTORE PUSH1 0x20 DUP3 ADD SWAP1 POP SWAP3 SWAP2 POP POP JUMP JUMPDEST PUSH32 0x42756B616E206F776E6572000000000000000000000000000000000000000000 PUSH0 DUP3 ADD MSTORE POP JUMP JUMPDEST PUSH0 PUSH2 0x201B PUSH1 0xB DUP4 PUSH2 0x1FD7 JUMP JUMPDEST SWAP2 POP PUSH2 0x2026 DUP3 PUSH2 0x1FE7 JUMP JUMPDEST PUSH1 0x20 DUP3 ADD SWAP1 POP SWAP2 SWAP1 POP JUMP JUMPDEST PUSH0 PUSH1 0x20 DUP3 ADD SWAP1 POP DUP2 DUP2 SUB PUSH0 DUP4 ADD MSTORE PUSH2 0x2048 DUP2 PUSH2 0x200F JUMP JUMPDEST SWAP1 POP SWAP2 SWAP1 POP JUMP JUMPDEST PUSH0 DUP2 SWAP1 POP SWAP3 SWAP2 POP POP JUMP JUMPDEST POP JUMP JUMPDEST PUSH0 PUSH2 0x2067 PUSH0 DUP4 PUSH2 0x204F JUMP JUMPDEST SWAP2 POP PUSH2 0x2072 DUP3 PUSH2 0x2059 JUMP JUMPDEST PUSH0 DUP3 ADD SWAP1 POP SWAP2 SWAP1 POP JUMP JUMPDEST PUSH0 PUSH2 0x2086 DUP3 PUSH2 0x205C JUMP JUMPDEST SWAP2 POP DUP2 SWAP1 POP SWAP2 SWAP1 POP JUMP JUMPDEST PUSH32 0x5472616E7366657220676167616C000000000000000000000000000000000000 PUSH0 DUP3 ADD MSTORE POP JUMP JUMPDEST PUSH0 PUSH2 0x20C4 PUSH1 0xE DUP4 PUSH2 0x1FD7 JUMP JUMPDEST SWAP2 POP PUSH2 0x20CF DUP3 PUSH2 0x2090 JUMP JUMPDEST PUSH1 0x20 DUP3 ADD SWAP1 POP SWAP2 SWAP1 POP JUMP JUMPDEST PUSH0 PUSH1 0x20 DUP3 ADD SWAP1 POP DUP2 DUP2 SUB PUSH0 DUP4 ADD MSTORE PUSH2 0x20F1 DUP2 PUSH2 0x20B8 JUMP JUMPDEST SWAP1 POP SWAP2 SWAP1 POP JUMP JUMPDEST PUSH32 0x4973756666696369656E742042616C616E636500000000000000000000000000 PUSH0 DUP3 ADD MSTORE POP JUMP JUMPDEST PUSH0 PUSH2 0x212C PUSH1 0x13 DUP4 PUSH2 0x1FD7 JUMP JUMPDEST SWAP2 POP PUSH2 0x2137 DUP3 PUSH2 0x20F8 JUMP JUMPDEST PUSH1 0x20 DUP3 ADD SWAP1 POP SWAP2 SWAP1 POP JUMP JUMPDEST PUSH0 PUSH1 0x20 DUP3 ADD SWAP1 POP DUP2 DUP2 SUB PUSH0 DUP4 ADD MSTORE PUSH2 0x2159 DUP2 PUSH2 0x2120 JUMP JUMPDEST SWAP1 POP SWAP2 SWAP1 POP JUMP JUMPDEST PUSH32 0x4E487B7100000000000000000000000000000000000000000000000000000000 PUSH0 MSTORE PUSH1 0x11 PUSH1 0x4 MSTORE PUSH1 0x24 PUSH0 REVERT JUMPDEST PUSH0 PUSH2 0x2197 DUP3 PUSH2 0x1B58 JUMP JUMPDEST SWAP2 POP PUSH32 0xFFFFFFFFFFFFFFFFFFFFFFFFFFFFFFFFFFFFFFFFFFFFFFFFFFFFFFFFFFFFFFFF DUP3 SUB PUSH2 0x21C9 JUMPI PUSH2 0x21C8 PUSH2 0x2160 JUMP JUMPDEST JUMPDEST PUSH1 0x1 DUP3 ADD SWAP1 POP SWAP2 SWAP1 POP JUMP JUMPDEST PUSH0 PUSH2 0x21DE DUP3 PUSH2 0x1B58 JUMP JUMPDEST SWAP2 POP PUSH2 0x21E9 DUP4 PUSH2 0x1B58 JUMP JUMPDEST SWAP3 POP DUP3 DUP3 SUB SWAP1 POP DUP2 DUP2 GT ISZERO PUSH2 0x2201 JUMPI PUSH2 0x2200 PUSH2 0x2160 JUMP JUMPDEST JUMPDEST SWAP3 SWAP2 POP POP JUMP JUMPDEST PUSH32 0x4E487B7100000000000000000000000000000000000000000000000000000000 PUSH0 MSTORE PUSH1 0x12 PUSH1 0x4 MSTORE PUSH1 0x24 PUSH0 REVERT JUMPDEST PUSH0 PUSH2 0x223E DUP3 PUSH2 0x1B58 JUMP JUMPDEST SWAP2 POP PUSH2 0x2249 DUP4 PUSH2 0x1B58 JUMP JUMPDEST SWAP3 POP DUP3 PUSH2 0x2259 JUMPI PUSH2 0x2258 PUSH2 0x2207 JUMP JUMPDEST JUMPDEST DUP3 DUP3 DIV SWAP1 POP SWAP3 SWAP2 POP POP JUMP JUMPDEST PUSH0 PUSH2 0x226E DUP3 PUSH2 0x1B58 JUMP JUMPDEST SWAP2 POP PUSH2 0x2279 DUP4 PUSH2 0x1B58 JUMP JUMPDEST SWAP3 POP DUP3 DUP3 MUL PUSH2 0x2287 DUP2 PUSH2 0x1B58 JUMP JUMPDEST SWAP2 POP DUP3 DUP3 DIV DUP5 EQ DUP4 ISZERO OR PUSH2 0x229E JUMPI PUSH2 0x229D PUSH2 0x2160 JUMP JUMPDEST JUMPDEST POP SWAP3 SWAP2 POP POP JUMP JUMPDEST PUSH32 0x4E6F7420796F757220706C616E74206275646479210000000000000000000000 PUSH0 DUP3 ADD MSTORE POP JUMP JUMPDEST PUSH0 PUSH2 0x22D9 PUSH1 0x15 DUP4 PUSH2 0x1FD7 JUMP JUMPDEST SWAP2 POP PUSH2 0x22E4 DUP3 PUSH2 0x22A5 JUMP JUMPDEST PUSH1 0x20 DUP3 ADD SWAP1 POP SWAP2 SWAP1 POP JUMP JUMPDEST PUSH0 PUSH1 0x20 DUP3 ADD SWAP1 POP DUP2 DUP2 SUB PUSH0 DUP4 ADD MSTORE PUSH2 0x2306 DUP2 PUSH2 0x22CD JUMP JUMPDEST SWAP1 POP SWAP2 SWAP1 POP JUMP JUMPDEST PUSH0 DUP2 SWAP1 POP SWAP2 SWAP1 POP JUMP JUMPDEST PUSH0 DUP2 SWAP1 POP SWAP2 SWAP1 POP JUMP JUMPDEST PUSH0 PUSH2 0x2339 PUSH2 0x2334 PUSH2 0x232F DUP5 PUSH2 0x230D JUMP JUMPDEST PUSH2 0x2316 JUMP JUMPDEST PUSH2 0x1D6B JUMP JUMPDEST SWAP1 POP SWAP2 SWAP1 POP JUMP JUMPDEST PUSH2 0x2349 DUP2 PUSH2 0x231F JUMP JUMPDEST DUP3 MSTORE POP POP JUMP JUMPDEST PUSH0 PUSH1 0x20 DUP3 ADD SWAP1 POP PUSH2 0x2362 PUSH0 DUP4 ADD DUP5 PUSH2 0x2340 JUMP JUMPDEST SWAP3 SWAP2 POP POP JUMP JUMPDEST PUSH32 0x506C616E7420646F65736E277420657869737421000000000000000000000000 PUSH0 DUP3 ADD MSTORE POP JUMP JUMPDEST PUSH0 PUSH2 0x239C PUSH1 0x14 DUP4 PUSH2 0x1FD7 JUMP JUMPDEST SWAP2 POP PUSH2 0x23A7 DUP3 PUSH2 0x2368 JUMP JUMPDEST PUSH1 0x20 DUP3 ADD SWAP1 POP SWAP2 SWAP1 POP JUMP JUMPDEST PUSH0 PUSH1 0x20 DUP3 ADD SWAP1 POP DUP2 DUP2 SUB PUSH0 DUP4 ADD MSTORE PUSH2 0x23C9 DUP2 PUSH2 0x2390 JUMP JUMPDEST SWAP1 POP SWAP2 SWAP1 POP JUMP JUMPDEST PUSH0 PUSH1 0x20 DUP3 ADD SWAP1 POP PUSH2 0x23E3 PUSH0 DUP4 ADD DUP5 PUSH2 0x1D5C JUMP JUMPDEST SWAP3 SWAP2 POP POP JUMP JUMPDEST PUSH32 0x506C616E7420616C726561647920646561640000000000000000000000000000 PUSH0 DUP3 ADD MSTORE POP JUMP JUMPDEST PUSH0 PUSH2 0x241D PUSH1 0x12 DUP4 PUSH2 0x1FD7 JUMP JUMPDEST SWAP2 POP PUSH2 0x2428 DUP3 PUSH2 0x23E9 JUMP JUMPDEST PUSH1 0x20 DUP3 ADD SWAP1 POP SWAP2 SWAP1 POP JUMP JUMPDEST PUSH0 PUSH1 0x20 DUP3 ADD SWAP1 POP DUP2 DUP2 SUB PUSH0 DUP4 ADD MSTORE PUSH2 0x244A DUP2 PUSH2 0x2411 JUMP JUMPDEST SWAP1 POP SWAP2 SWAP1 POP JUMP JUMPDEST PUSH32 0x7472616E73666572206661696C65640000000000000000000000000000000000 PUSH0 DUP3 ADD MSTORE POP JUMP JUMPDEST PUSH0 PUSH2 0x2485 PUSH1 0xF DUP4 PUSH2 0x1FD7 JUMP JUMPDEST SWAP2 POP PUSH2 0x2490 DUP3 PUSH2 0x2451 JUMP JUMPDEST PUSH1 0x20 DUP3 ADD SWAP1 POP SWAP2 SWAP1 POP JUMP JUMPDEST PUSH0 PUSH1 0x20 DUP3 ADD SWAP1 POP DUP2 DUP2 SUB PUSH0 DUP4 ADD MSTORE PUSH2 0x24B2 DUP2 PUSH2 0x2479 JUMP JUMPDEST SWAP1 POP SWAP2 SWAP1 POP JUMP INVALID LOG2 PUSH5 0x6970667358 0x22 SLT KECCAK256 0xC0 REVERT 0xCA SELFDESTRUCT 0x2E ADD SUB NOT OR SMOD RETURNDATACOPY 0xDF EXTDELEGATECALL 0xDB EXP 0xF6 DUPN 0xD2 0xED EXTCODECOPY JUMP CALLDATACOPY PUSH0 0xB6 0x2D 0xE GASLIMIT DUP9 PUSH0 SWAP13 0xCC DUP12 PUSH5 0x736F6C6343 STOP ADDMOD 0x1E STOP CALLER "
				},
				"gasEstimates": {
					"creation": {
						"codeDepositCost": "1891000",
						"executionCost": "26261",
						"totalCost": "1917261"
					},
					"external": {
						"HARVEST_REWARD()": "414",
						"PLANT_PRICE()": "369",
						"STAGE_DURATION()": "348",
						"WATER_DEPLETION_RATE()": "353",
						"WATER_DEPlESION()": "349",
						"calculateWaterLevel(uint256)": "infinite",
						"getPlant(uint256)": "infinite",
						"getUserPlants(address)": "infinite",
						"harvestPlant(uint256)": "infinite",
						"myPlant()": "infinite",
						"owner()": "2531",
						"plantCounter()": "2514",
						"plantSeed()": "infinite",
						"plants(uint256)": "infinite",
						"updatePlantStage(uint256)": "infinite",
						"userPlants(address,uint256)": "infinite",
						"waterPlant(uint256)": "infinite",
						"withdraw()": "infinite"
					},
					"internal": {
						"updateWaterLevel(uint256)": "infinite"
					}
				},
				"methodIdentifiers": {
					"HARVEST_REWARD()": "891c0785",
					"PLANT_PRICE()": "cfc9a5f8",
					"STAGE_DURATION()": "51f9efde",
					"WATER_DEPLETION_RATE()": "bacb5ebd",
					"WATER_DEPlESION()": "2e0fc9ff",
					"calculateWaterLevel(uint256)": "754e150d",
					"getPlant(uint256)": "ed0b1f5f",
					"getUserPlants(address)": "30cec0eb",
					"harvestPlant(uint256)": "e38f8448",
					"myPlant()": "3a8fdff0",
					"owner()": "8da5cb5b",
					"plantCounter()": "9c471749",
					"plantSeed()": "74119a38",
					"plants(uint256)": "8dd2361c",
					"updatePlantStage(uint256)": "ddd42596",
					"userPlants(address,uint256)": "8aee578b",
					"waterPlant(uint256)": "9886bcfa",
					"withdraw()": "3ccfd60b"
				}
			},
			"storageLayout": {
				"storage": [
					{
						"astId": 27,
						"contract": "contracts/EasyMode.sol:EasyLiskGarden",
						"label": "myPlant",
						"offset": 0,
						"slot": "0",
						"type": "t_struct(Plant)24_storage"
					},
					{
						"astId": 32,
						"contract": "contracts/EasyMode.sol:EasyLiskGarden",
						"label": "plants",
						"offset": 0,
						"slot": "5",
						"type": "t_mapping(t_uint256,t_struct(Plant)24_storage)"
					},
					{
						"astId": 37,
						"contract": "contracts/EasyMode.sol:EasyLiskGarden",
						"label": "userPlants",
						"offset": 0,
						"slot": "6",
						"type": "t_mapping(t_address,t_array(t_uint256)dyn_storage)"
					},
					{
						"astId": 39,
						"contract": "contracts/EasyMode.sol:EasyLiskGarden",
						"label": "plantCounter",
						"offset": 0,
						"slot": "7",
						"type": "t_uint256"
					},
					{
						"astId": 41,
						"contract": "contracts/EasyMode.sol:EasyLiskGarden",
						"label": "owner",
						"offset": 0,
						"slot": "8",
						"type": "t_address"
					}
				],
				"types": {
					"t_address": {
						"encoding": "inplace",
						"label": "address",
						"numberOfBytes": "20"
					},
					"t_array(t_uint256)dyn_storage": {
						"base": "t_uint256",
						"encoding": "dynamic_array",
						"label": "uint256[]",
						"numberOfBytes": "32"
					},
					"t_bool": {
						"encoding": "inplace",
						"label": "bool",
						"numberOfBytes": "1"
					},
					"t_enum(GrowthStage)6": {
						"encoding": "inplace",
						"label": "enum EasyLiskGarden.GrowthStage",
						"numberOfBytes": "1"
					},
					"t_mapping(t_address,t_array(t_uint256)dyn_storage)": {
						"encoding": "mapping",
						"key": "t_address",
						"label": "mapping(address => uint256[])",
						"numberOfBytes": "32",
						"value": "t_array(t_uint256)dyn_storage"
					},
					"t_mapping(t_uint256,t_struct(Plant)24_storage)": {
						"encoding": "mapping",
						"key": "t_uint256",
						"label": "mapping(uint256 => struct EasyLiskGarden.Plant)",
						"numberOfBytes": "32",
						"value": "t_struct(Plant)24_storage"
					},
					"t_struct(Plant)24_storage": {
						"encoding": "inplace",
						"label": "struct EasyLiskGarden.Plant",
						"members": [
							{
								"astId": 8,
								"contract": "contracts/EasyMode.sol:EasyLiskGarden",
								"label": "id",
								"offset": 0,
								"slot": "0",
								"type": "t_uint256"
							},
							{
								"astId": 10,
								"contract": "contracts/EasyMode.sol:EasyLiskGarden",
								"label": "owner",
								"offset": 0,
								"slot": "1",
								"type": "t_address"
							},
							{
								"astId": 13,
								"contract": "contracts/EasyMode.sol:EasyLiskGarden",
								"label": "growthStage",
								"offset": 20,
								"slot": "1",
								"type": "t_enum(GrowthStage)6"
							},
							{
								"astId": 15,
								"contract": "contracts/EasyMode.sol:EasyLiskGarden",
								"label": "plantedDate",
								"offset": 0,
								"slot": "2",
								"type": "t_uint256"
							},
							{
								"astId": 17,
								"contract": "contracts/EasyMode.sol:EasyLiskGarden",
								"label": "lastWatered",
								"offset": 0,
								"slot": "3",
								"type": "t_uint256"
							},
							{
								"astId": 19,
								"contract": "contracts/EasyMode.sol:EasyLiskGarden",
								"label": "waterLevel",
								"offset": 0,
								"slot": "4",
								"type": "t_uint8"
							},
							{
								"astId": 21,
								"contract": "contracts/EasyMode.sol:EasyLiskGarden",
								"label": "exists",
								"offset": 1,
								"slot": "4",
								"type": "t_bool"
							},
							{
								"astId": 23,
								"contract": "contracts/EasyMode.sol:EasyLiskGarden",
								"label": "isDead",
								"offset": 2,
								"slot": "4",
								"type": "t_bool"
							}
						],
						"numberOfBytes": "160"
					},
					"t_uint256": {
						"encoding": "inplace",
						"label": "uint256",
						"numberOfBytes": "32"
					},
					"t_uint8": {
						"encoding": "inplace",
						"label": "uint8",
						"numberOfBytes": "1"
					}
				}
			},
			"userdoc": {
				"kind": "user",
				"methods": {},
				"version": 1
			}
		}
	}
}